{
	"contracts/SupplyChain.sol": {
		"SupplyChain": {
			"abi": [
				{
					"anonymous": false,
					"inputs": [
						{
							"indexed": false,
							"internalType": "uint256",
							"name": "id",
							"type": "uint256"
						},
						{
							"indexed": false,
							"internalType": "string",
							"name": "supplier",
							"type": "string"
						},
						{
							"indexed": false,
							"internalType": "string",
							"name": "manufacturer",
							"type": "string"
						},
						{
							"indexed": false,
							"internalType": "string",
							"name": "distributor",
							"type": "string"
						},
						{
							"indexed": false,
							"internalType": "string",
							"name": "retailer",
							"type": "string"
						},
						{
							"indexed": false,
							"internalType": "uint256",
							"name": "timestamp",
							"type": "uint256"
						}
					],
					"name": "LogProductChange",
					"type": "event"
				},
				{
					"inputs": [
						{
							"internalType": "string",
							"name": "_supplier",
							"type": "string"
						}
					],
					"name": "addProduct",
					"outputs": [],
					"stateMutability": "nonpayable",
					"type": "function"
				},
				{
					"inputs": [
						{
							"internalType": "uint256",
							"name": "_id",
							"type": "uint256"
						}
					],
					"name": "getProduct",
					"outputs": [
						{
							"internalType": "uint256",
							"name": "",
							"type": "uint256"
						},
						{
							"internalType": "string",
							"name": "",
							"type": "string"
						},
						{
							"internalType": "string",
							"name": "",
							"type": "string"
						},
						{
							"internalType": "string",
							"name": "",
							"type": "string"
						},
						{
							"internalType": "string",
							"name": "",
							"type": "string"
						},
						{
							"internalType": "uint256",
							"name": "",
							"type": "uint256"
						}
					],
					"stateMutability": "view",
					"type": "function"
				},
				{
					"inputs": [
						{
							"internalType": "uint256",
							"name": "_id",
							"type": "uint256"
						},
						{
							"internalType": "string",
							"name": "_manufacturer",
							"type": "string"
						},
						{
							"internalType": "string",
							"name": "_distributor",
							"type": "string"
						},
						{
							"internalType": "string",
							"name": "_retailer",
							"type": "string"
						}
					],
					"name": "updateProduct",
					"outputs": [],
					"stateMutability": "nonpayable",
					"type": "function"
				}
			],
			"devdoc": {
				"kind": "dev",
				"methods": {},
				"version": 1
			},
			"evm": {
				"assembly": "    /* \"contracts/SupplyChain.sol\":61:1906  contract SupplyChain {\r... */\n  mstore(0x40, 0x80)\n  callvalue\n  dup1\n  iszero\n  tag_1\n  jumpi\n  0x00\n  dup1\n  revert\ntag_1:\n  pop\n  dataSize(sub_0)\n  dup1\n  dataOffset(sub_0)\n  0x00\n  codecopy\n  0x00\n  return\nstop\n\nsub_0: assembly {\n        /* \"contracts/SupplyChain.sol\":61:1906  contract SupplyChain {\r... */\n      mstore(0x40, 0x80)\n      callvalue\n      dup1\n      iszero\n      tag_1\n      jumpi\n      0x00\n      dup1\n      revert\n    tag_1:\n      pop\n      jumpi(tag_2, lt(calldatasize, 0x04))\n      shr(0xe0, calldataload(0x00))\n      dup1\n      0x3f22dab3\n      eq\n      tag_3\n      jumpi\n      dup1\n      0xb9db15b4\n      eq\n      tag_4\n      jumpi\n      dup1\n      0xdfe00c51\n      eq\n      tag_5\n      jumpi\n    tag_2:\n      0x00\n      dup1\n      revert\n        /* \"contracts/SupplyChain.sol\":1063:1535  function updateProduct(uint256 _id, string memory _manufacturer, string memory _distributor, string memory _retailer) public {\r... */\n    tag_3:\n      tag_6\n      0x04\n      dup1\n      calldatasize\n      sub\n      dup2\n      add\n      swap1\n      tag_7\n      swap2\n      swap1\n      tag_8\n      jump\t// in\n    tag_7:\n      tag_9\n      jump\t// in\n    tag_6:\n      stop\n        /* \"contracts/SupplyChain.sol\":1585:1903  function getProduct(uint256 _id) public view returns (uint256, string memory, string memory, string memory, string memory, uint256) {\r... */\n    tag_4:\n      tag_10\n      0x04\n      dup1\n      calldatasize\n      sub\n      dup2\n      add\n      swap1\n      tag_11\n      swap2\n      swap1\n      tag_12\n      jump\t// in\n    tag_11:\n      tag_13\n      jump\t// in\n    tag_10:\n      mload(0x40)\n      tag_14\n      swap7\n      swap6\n      swap5\n      swap4\n      swap3\n      swap2\n      swap1\n      tag_15\n      jump\t// in\n    tag_14:\n      mload(0x40)\n      dup1\n      swap2\n      sub\n      swap1\n      return\n        /* \"contracts/SupplyChain.sol\":737:1015  function addProduct(string memory _supplier) public {\r... */\n    tag_5:\n      tag_16\n      0x04\n      dup1\n      calldatasize\n      sub\n      dup2\n      add\n      swap1\n      tag_17\n      swap2\n      swap1\n      tag_18\n      jump\t// in\n    tag_17:\n      tag_19\n      jump\t// in\n    tag_16:\n      stop\n        /* \"contracts/SupplyChain.sol\":1063:1535  function updateProduct(uint256 _id, string memory _manufacturer, string memory _distributor, string memory _retailer) public {\r... */\n    tag_9:\n        /* \"contracts/SupplyChain.sol\":1199:1222  Product storage product */\n      0x00\n        /* \"contracts/SupplyChain.sol\":1225:1233  products */\n      dup1\n        /* \"contracts/SupplyChain.sol\":1225:1238  products[_id] */\n      0x00\n        /* \"contracts/SupplyChain.sol\":1234:1237  _id */\n      dup7\n        /* \"contracts/SupplyChain.sol\":1225:1238  products[_id] */\n      dup2\n      mstore\n      0x20\n      add\n      swap1\n      dup2\n      mstore\n      0x20\n      add\n      0x00\n      keccak256\n        /* \"contracts/SupplyChain.sol\":1199:1238  Product storage product = products[_id] */\n      swap1\n      pop\n        /* \"contracts/SupplyChain.sol\":1272:1285  _manufacturer */\n      dup4\n        /* \"contracts/SupplyChain.sol\":1249:1256  product */\n      dup2\n        /* \"contracts/SupplyChain.sol\":1249:1269  product.manufacturer */\n      0x02\n      add\n        /* \"contracts/SupplyChain.sol\":1249:1285  product.manufacturer = _manufacturer */\n      swap1\n      dup1\n      mload\n      swap1\n      0x20\n      add\n      swap1\n      tag_21\n      swap3\n      swap2\n      swap1\n      tag_22\n      jump\t// in\n    tag_21:\n      pop\n        /* \"contracts/SupplyChain.sol\":1318:1330  _distributor */\n      dup3\n        /* \"contracts/SupplyChain.sol\":1296:1303  product */\n      dup2\n        /* \"contracts/SupplyChain.sol\":1296:1315  product.distributor */\n      0x03\n      add\n        /* \"contracts/SupplyChain.sol\":1296:1330  product.distributor = _distributor */\n      swap1\n      dup1\n      mload\n      swap1\n      0x20\n      add\n      swap1\n      tag_23\n      swap3\n      swap2\n      swap1\n      tag_22\n      jump\t// in\n    tag_23:\n      pop\n        /* \"contracts/SupplyChain.sol\":1360:1369  _retailer */\n      dup2\n        /* \"contracts/SupplyChain.sol\":1341:1348  product */\n      dup2\n        /* \"contracts/SupplyChain.sol\":1341:1357  product.retailer */\n      0x04\n      add\n        /* \"contracts/SupplyChain.sol\":1341:1369  product.retailer = _retailer */\n      swap1\n      dup1\n      mload\n      swap1\n      0x20\n      add\n      swap1\n      tag_24\n      swap3\n      swap2\n      swap1\n      tag_22\n      jump\t// in\n    tag_24:\n      pop\n        /* \"contracts/SupplyChain.sol\":1400:1415  block.timestamp */\n      timestamp\n        /* \"contracts/SupplyChain.sol\":1380:1387  product */\n      dup2\n        /* \"contracts/SupplyChain.sol\":1380:1397  product.timestamp */\n      0x05\n      add\n        /* \"contracts/SupplyChain.sol\":1380:1415  product.timestamp = block.timestamp */\n      dup2\n      swap1\n      sstore\n      pop\n        /* \"contracts/SupplyChain.sol\":1431:1527  LogProductChange(_id, product.supplier, _manufacturer, _distributor, _retailer, block.timestamp) */\n      0x16837f0c0323c37bc048f73d6d9866f14abfc89942ea9f6b8d8e3321c175539a\n        /* \"contracts/SupplyChain.sol\":1448:1451  _id */\n      dup6\n        /* \"contracts/SupplyChain.sol\":1453:1460  product */\n      dup3\n        /* \"contracts/SupplyChain.sol\":1453:1469  product.supplier */\n      0x01\n      add\n        /* \"contracts/SupplyChain.sol\":1471:1484  _manufacturer */\n      dup7\n        /* \"contracts/SupplyChain.sol\":1486:1498  _distributor */\n      dup7\n        /* \"contracts/SupplyChain.sol\":1500:1509  _retailer */\n      dup7\n        /* \"contracts/SupplyChain.sol\":1511:1526  block.timestamp */\n      timestamp\n        /* \"contracts/SupplyChain.sol\":1431:1527  LogProductChange(_id, product.supplier, _manufacturer, _distributor, _retailer, block.timestamp) */\n      mload(0x40)\n      tag_25\n      swap7\n      swap6\n      swap5\n      swap4\n      swap3\n      swap2\n      swap1\n      tag_26\n      jump\t// in\n    tag_25:\n      mload(0x40)\n      dup1\n      swap2\n      sub\n      swap1\n      log1\n        /* \"contracts/SupplyChain.sol\":1188:1535  {\r... */\n      pop\n        /* \"contracts/SupplyChain.sol\":1063:1535  function updateProduct(uint256 _id, string memory _manufacturer, string memory _distributor, string memory _retailer) public {\r... */\n      pop\n      pop\n      pop\n      pop\n      jump\t// out\n        /* \"contracts/SupplyChain.sol\":1585:1903  function getProduct(uint256 _id) public view returns (uint256, string memory, string memory, string memory, string memory, uint256) {\r... */\n    tag_13:\n        /* \"contracts/SupplyChain.sol\":1639:1646  uint256 */\n      0x00\n        /* \"contracts/SupplyChain.sol\":1648:1661  string memory */\n      0x60\n        /* \"contracts/SupplyChain.sol\":1663:1676  string memory */\n      dup1\n        /* \"contracts/SupplyChain.sol\":1678:1691  string memory */\n      0x60\n        /* \"contracts/SupplyChain.sol\":1693:1706  string memory */\n      dup1\n        /* \"contracts/SupplyChain.sol\":1708:1715  uint256 */\n      0x00\n        /* \"contracts/SupplyChain.sol\":1728:1751  Product storage product */\n      dup1\n        /* \"contracts/SupplyChain.sol\":1754:1762  products */\n      0x00\n        /* \"contracts/SupplyChain.sol\":1754:1767  products[_id] */\n      dup1\n        /* \"contracts/SupplyChain.sol\":1763:1766  _id */\n      dup10\n        /* \"contracts/SupplyChain.sol\":1754:1767  products[_id] */\n      dup2\n      mstore\n      0x20\n      add\n      swap1\n      dup2\n      mstore\n      0x20\n      add\n      0x00\n      keccak256\n        /* \"contracts/SupplyChain.sol\":1728:1767  Product storage product = products[_id] */\n      swap1\n      pop\n        /* \"contracts/SupplyChain.sol\":1786:1793  product */\n      dup1\n        /* \"contracts/SupplyChain.sol\":1786:1796  product.id */\n      0x00\n      add\n      sload\n        /* \"contracts/SupplyChain.sol\":1798:1805  product */\n      dup2\n        /* \"contracts/SupplyChain.sol\":1798:1814  product.supplier */\n      0x01\n      add\n        /* \"contracts/SupplyChain.sol\":1816:1823  product */\n      dup3\n        /* \"contracts/SupplyChain.sol\":1816:1836  product.manufacturer */\n      0x02\n      add\n        /* \"contracts/SupplyChain.sol\":1838:1845  product */\n      dup4\n        /* \"contracts/SupplyChain.sol\":1838:1857  product.distributor */\n      0x03\n      add\n        /* \"contracts/SupplyChain.sol\":1859:1866  product */\n      dup5\n        /* \"contracts/SupplyChain.sol\":1859:1875  product.retailer */\n      0x04\n      add\n        /* \"contracts/SupplyChain.sol\":1877:1884  product */\n      dup6\n        /* \"contracts/SupplyChain.sol\":1877:1894  product.timestamp */\n      0x05\n      add\n      sload\n        /* \"contracts/SupplyChain.sol\":1778:1895  return (product.id, product.supplier, product.manufacturer, product.distributor, product.retailer, product.timestamp) */\n      dup5\n      dup1\n      sload\n      tag_28\n      swap1\n      tag_29\n      jump\t// in\n    tag_28:\n      dup1\n      0x1f\n      add\n      0x20\n      dup1\n      swap2\n      div\n      mul\n      0x20\n      add\n      mload(0x40)\n      swap1\n      dup2\n      add\n      0x40\n      mstore\n      dup1\n      swap3\n      swap2\n      swap1\n      dup2\n      dup2\n      mstore\n      0x20\n      add\n      dup3\n      dup1\n      sload\n      tag_30\n      swap1\n      tag_29\n      jump\t// in\n    tag_30:\n      dup1\n      iszero\n      tag_31\n      jumpi\n      dup1\n      0x1f\n      lt\n      tag_32\n      jumpi\n      0x0100\n      dup1\n      dup4\n      sload\n      div\n      mul\n      dup4\n      mstore\n      swap2\n      0x20\n      add\n      swap2\n      jump(tag_31)\n    tag_32:\n      dup3\n      add\n      swap2\n      swap1\n      0x00\n      mstore\n      keccak256(0x00, 0x20)\n      swap1\n    tag_33:\n      dup2\n      sload\n      dup2\n      mstore\n      swap1\n      0x01\n      add\n      swap1\n      0x20\n      add\n      dup1\n      dup4\n      gt\n      tag_33\n      jumpi\n      dup3\n      swap1\n      sub\n      0x1f\n      and\n      dup3\n      add\n      swap2\n    tag_31:\n      pop\n      pop\n      pop\n      pop\n      pop\n      swap5\n      pop\n      dup4\n      dup1\n      sload\n      tag_34\n      swap1\n      tag_29\n      jump\t// in\n    tag_34:\n      dup1\n      0x1f\n      add\n      0x20\n      dup1\n      swap2\n      div\n      mul\n      0x20\n      add\n      mload(0x40)\n      swap1\n      dup2\n      add\n      0x40\n      mstore\n      dup1\n      swap3\n      swap2\n      swap1\n      dup2\n      dup2\n      mstore\n      0x20\n      add\n      dup3\n      dup1\n      sload\n      tag_35\n      swap1\n      tag_29\n      jump\t// in\n    tag_35:\n      dup1\n      iszero\n      tag_36\n      jumpi\n      dup1\n      0x1f\n      lt\n      tag_37\n      jumpi\n      0x0100\n      dup1\n      dup4\n      sload\n      div\n      mul\n      dup4\n      mstore\n      swap2\n      0x20\n      add\n      swap2\n      jump(tag_36)\n    tag_37:\n      dup3\n      add\n      swap2\n      swap1\n      0x00\n      mstore\n      keccak256(0x00, 0x20)\n      swap1\n    tag_38:\n      dup2\n      sload\n      dup2\n      mstore\n      swap1\n      0x01\n      add\n      swap1\n      0x20\n      add\n      dup1\n      dup4\n      gt\n      tag_38\n      jumpi\n      dup3\n      swap1\n      sub\n      0x1f\n      and\n      dup3\n      add\n      swap2\n    tag_36:\n      pop\n      pop\n      pop\n      pop\n      pop\n      swap4\n      pop\n      dup3\n      dup1\n      sload\n      tag_39\n      swap1\n      tag_29\n      jump\t// in\n    tag_39:\n      dup1\n      0x1f\n      add\n      0x20\n      dup1\n      swap2\n      div\n      mul\n      0x20\n      add\n      mload(0x40)\n      swap1\n      dup2\n      add\n      0x40\n      mstore\n      dup1\n      swap3\n      swap2\n      swap1\n      dup2\n      dup2\n      mstore\n      0x20\n      add\n      dup3\n      dup1\n      sload\n      tag_40\n      swap1\n      tag_29\n      jump\t// in\n    tag_40:\n      dup1\n      iszero\n      tag_41\n      jumpi\n      dup1\n      0x1f\n      lt\n      tag_42\n      jumpi\n      0x0100\n      dup1\n      dup4\n      sload\n      div\n      mul\n      dup4\n      mstore\n      swap2\n      0x20\n      add\n      swap2\n      jump(tag_41)\n    tag_42:\n      dup3\n      add\n      swap2\n      swap1\n      0x00\n      mstore\n      keccak256(0x00, 0x20)\n      swap1\n    tag_43:\n      dup2\n      sload\n      dup2\n      mstore\n      swap1\n      0x01\n      add\n      swap1\n      0x20\n      add\n      dup1\n      dup4\n      gt\n      tag_43\n      jumpi\n      dup3\n      swap1\n      sub\n      0x1f\n      and\n      dup3\n      add\n      swap2\n    tag_41:\n      pop\n      pop\n      pop\n      pop\n      pop\n      swap3\n      pop\n      dup2\n      dup1\n      sload\n      tag_44\n      swap1\n      tag_29\n      jump\t// in\n    tag_44:\n      dup1\n      0x1f\n      add\n      0x20\n      dup1\n      swap2\n      div\n      mul\n      0x20\n      add\n      mload(0x40)\n      swap1\n      dup2\n      add\n      0x40\n      mstore\n      dup1\n      swap3\n      swap2\n      swap1\n      dup2\n      dup2\n      mstore\n      0x20\n      add\n      dup3\n      dup1\n      sload\n      tag_45\n      swap1\n      tag_29\n      jump\t// in\n    tag_45:\n      dup1\n      iszero\n      tag_46\n      jumpi\n      dup1\n      0x1f\n      lt\n      tag_47\n      jumpi\n      0x0100\n      dup1\n      dup4\n      sload\n      div\n      mul\n      dup4\n      mstore\n      swap2\n      0x20\n      add\n      swap2\n      jump(tag_46)\n    tag_47:\n      dup3\n      add\n      swap2\n      swap1\n      0x00\n      mstore\n      keccak256(0x00, 0x20)\n      swap1\n    tag_48:\n      dup2\n      sload\n      dup2\n      mstore\n      swap1\n      0x01\n      add\n      swap1\n      0x20\n      add\n      dup1\n      dup4\n      gt\n      tag_48\n      jumpi\n      dup3\n      swap1\n      sub\n      0x1f\n      and\n      dup3\n      add\n      swap2\n    tag_46:\n      pop\n      pop\n      pop\n      pop\n      pop\n      swap2\n      pop\n      swap7\n      pop\n      swap7\n      pop\n      swap7\n      pop\n      swap7\n      pop\n      swap7\n      pop\n      swap7\n      pop\n      pop\n        /* \"contracts/SupplyChain.sol\":1585:1903  function getProduct(uint256 _id) public view returns (uint256, string memory, string memory, string memory, string memory, uint256) {\r... */\n      swap2\n      swap4\n      swap6\n      pop\n      swap2\n      swap4\n      swap6\n      jump\t// out\n        /* \"contracts/SupplyChain.sol\":737:1015  function addProduct(string memory _supplier) public {\r... */\n    tag_19:\n        /* \"contracts/SupplyChain.sol\":800:810  uint256 id */\n      0x00\n        /* \"contracts/SupplyChain.sol\":828:829  1 */\n      0x01\n        /* \"contracts/SupplyChain.sol\":813:825  productCount */\n      dup1\n      sload\n        /* \"contracts/SupplyChain.sol\":813:829  productCount + 1 */\n      tag_50\n      swap2\n      swap1\n      tag_51\n      jump\t// in\n    tag_50:\n        /* \"contracts/SupplyChain.sol\":800:829  uint256 id = productCount + 1 */\n      swap1\n      pop\n        /* \"contracts/SupplyChain.sol\":855:906  Product(id, _supplier, \"\", \"\", \"\", block.timestamp) */\n      mload(0x40)\n      dup1\n      0xc0\n      add\n      0x40\n      mstore\n      dup1\n        /* \"contracts/SupplyChain.sol\":863:865  id */\n      dup3\n        /* \"contracts/SupplyChain.sol\":855:906  Product(id, _supplier, \"\", \"\", \"\", block.timestamp) */\n      dup2\n      mstore\n      0x20\n      add\n        /* \"contracts/SupplyChain.sol\":867:876  _supplier */\n      dup4\n        /* \"contracts/SupplyChain.sol\":855:906  Product(id, _supplier, \"\", \"\", \"\", block.timestamp) */\n      dup2\n      mstore\n      0x20\n      add\n      mload(0x40)\n      dup1\n      0x20\n      add\n      0x40\n      mstore\n      dup1\n      0x00\n      dup2\n      mstore\n      pop\n      dup2\n      mstore\n      0x20\n      add\n      mload(0x40)\n      dup1\n      0x20\n      add\n      0x40\n      mstore\n      dup1\n      0x00\n      dup2\n      mstore\n      pop\n      dup2\n      mstore\n      0x20\n      add\n      mload(0x40)\n      dup1\n      0x20\n      add\n      0x40\n      mstore\n      dup1\n      0x00\n      dup2\n      mstore\n      pop\n      dup2\n      mstore\n      0x20\n      add\n        /* \"contracts/SupplyChain.sol\":890:905  block.timestamp */\n      timestamp\n        /* \"contracts/SupplyChain.sol\":855:906  Product(id, _supplier, \"\", \"\", \"\", block.timestamp) */\n      dup2\n      mstore\n      pop\n        /* \"contracts/SupplyChain.sol\":840:848  products */\n      0x00\n        /* \"contracts/SupplyChain.sol\":840:852  products[id] */\n      dup1\n        /* \"contracts/SupplyChain.sol\":849:851  id */\n      dup4\n        /* \"contracts/SupplyChain.sol\":840:852  products[id] */\n      dup2\n      mstore\n      0x20\n      add\n      swap1\n      dup2\n      mstore\n      0x20\n      add\n      0x00\n      keccak256\n        /* \"contracts/SupplyChain.sol\":840:906  products[id] = Product(id, _supplier, \"\", \"\", \"\", block.timestamp) */\n      0x00\n      dup3\n      add\n      mload\n      dup2\n      0x00\n      add\n      sstore\n      0x20\n      dup3\n      add\n      mload\n      dup2\n      0x01\n      add\n      swap1\n      dup1\n      mload\n      swap1\n      0x20\n      add\n      swap1\n      tag_52\n      swap3\n      swap2\n      swap1\n      tag_22\n      jump\t// in\n    tag_52:\n      pop\n      0x40\n      dup3\n      add\n      mload\n      dup2\n      0x02\n      add\n      swap1\n      dup1\n      mload\n      swap1\n      0x20\n      add\n      swap1\n      tag_53\n      swap3\n      swap2\n      swap1\n      tag_22\n      jump\t// in\n    tag_53:\n      pop\n      0x60\n      dup3\n      add\n      mload\n      dup2\n      0x03\n      add\n      swap1\n      dup1\n      mload\n      swap1\n      0x20\n      add\n      swap1\n      tag_54\n      swap3\n      swap2\n      swap1\n      tag_22\n      jump\t// in\n    tag_54:\n      pop\n      0x80\n      dup3\n      add\n      mload\n      dup2\n      0x04\n      add\n      swap1\n      dup1\n      mload\n      swap1\n      0x20\n      add\n      swap1\n      tag_55\n      swap3\n      swap2\n      swap1\n      tag_22\n      jump\t// in\n    tag_55:\n      pop\n      0xa0\n      dup3\n      add\n      mload\n      dup2\n      0x05\n      add\n      sstore\n      swap1\n      pop\n      pop\n        /* \"contracts/SupplyChain.sol\":917:929  productCount */\n      0x01\n      0x00\n        /* \"contracts/SupplyChain.sol\":917:931  productCount++ */\n      dup2\n      sload\n      dup1\n      swap3\n      swap2\n      swap1\n      tag_56\n      swap1\n      tag_57\n      jump\t// in\n    tag_56:\n      swap2\n      swap1\n      pop\n      sstore\n      pop\n        /* \"contracts/SupplyChain.sol\":947:1007  LogProductChange(id, _supplier, \"\", \"\", \"\", block.timestamp) */\n      0x16837f0c0323c37bc048f73d6d9866f14abfc89942ea9f6b8d8e3321c175539a\n        /* \"contracts/SupplyChain.sol\":964:966  id */\n      dup2\n        /* \"contracts/SupplyChain.sol\":968:977  _supplier */\n      dup4\n        /* \"contracts/SupplyChain.sol\":991:1006  block.timestamp */\n      timestamp\n        /* \"contracts/SupplyChain.sol\":947:1007  LogProductChange(id, _supplier, \"\", \"\", \"\", block.timestamp) */\n      mload(0x40)\n      tag_58\n      swap4\n      swap3\n      swap2\n      swap1\n      tag_59\n      jump\t// in\n    tag_58:\n      mload(0x40)\n      dup1\n      swap2\n      sub\n      swap1\n      log1\n        /* \"contracts/SupplyChain.sol\":789:1015  {\r... */\n      pop\n        /* \"contracts/SupplyChain.sol\":737:1015  function addProduct(string memory _supplier) public {\r... */\n      pop\n      jump\t// out\n    tag_22:\n      dup3\n      dup1\n      sload\n      tag_60\n      swap1\n      tag_29\n      jump\t// in\n    tag_60:\n      swap1\n      0x00\n      mstore\n      keccak256(0x00, 0x20)\n      swap1\n      0x1f\n      add\n      0x20\n      swap1\n      div\n      dup2\n      add\n      swap3\n      dup3\n      tag_62\n      jumpi\n      0x00\n      dup6\n      sstore\n      jump(tag_61)\n    tag_62:\n      dup3\n      0x1f\n      lt\n      tag_63\n      jumpi\n      dup1\n      mload\n      not(0xff)\n      and\n      dup4\n      dup1\n      add\n      or\n      dup6\n      sstore\n      jump(tag_61)\n    tag_63:\n      dup3\n      dup1\n      add\n      0x01\n      add\n      dup6\n      sstore\n      dup3\n      iszero\n      tag_61\n      jumpi\n      swap2\n      dup3\n      add\n    tag_64:\n      dup3\n      dup2\n      gt\n      iszero\n      tag_65\n      jumpi\n      dup3\n      mload\n      dup3\n      sstore\n      swap2\n      0x20\n      add\n      swap2\n      swap1\n      0x01\n      add\n      swap1\n      jump(tag_64)\n    tag_65:\n    tag_61:\n      pop\n      swap1\n      pop\n      tag_66\n      swap2\n      swap1\n      tag_67\n      jump\t// in\n    tag_66:\n      pop\n      swap1\n      jump\t// out\n    tag_67:\n    tag_68:\n      dup1\n      dup3\n      gt\n      iszero\n      tag_69\n      jumpi\n      0x00\n      dup2\n      0x00\n      swap1\n      sstore\n      pop\n      0x01\n      add\n      jump(tag_68)\n    tag_69:\n      pop\n      swap1\n      jump\t// out\n        /* \"#utility.yul\":7:419   */\n    tag_71:\n        /* \"#utility.yul\":85:90   */\n      0x00\n        /* \"#utility.yul\":110:176   */\n      tag_73\n        /* \"#utility.yul\":126:175   */\n      tag_74\n        /* \"#utility.yul\":168:174   */\n      dup5\n        /* \"#utility.yul\":126:175   */\n      tag_75\n      jump\t// in\n    tag_74:\n        /* \"#utility.yul\":110:176   */\n      tag_76\n      jump\t// in\n    tag_73:\n        /* \"#utility.yul\":101:176   */\n      swap1\n      pop\n        /* \"#utility.yul\":199:205   */\n      dup3\n        /* \"#utility.yul\":192:197   */\n      dup2\n        /* \"#utility.yul\":185:206   */\n      mstore\n        /* \"#utility.yul\":237:241   */\n      0x20\n        /* \"#utility.yul\":230:235   */\n      dup2\n        /* \"#utility.yul\":226:242   */\n      add\n        /* \"#utility.yul\":275:278   */\n      dup5\n        /* \"#utility.yul\":266:272   */\n      dup5\n        /* \"#utility.yul\":261:264   */\n      dup5\n        /* \"#utility.yul\":257:273   */\n      add\n        /* \"#utility.yul\":254:279   */\n      gt\n        /* \"#utility.yul\":251:363   */\n      iszero\n      tag_77\n      jumpi\n        /* \"#utility.yul\":282:361   */\n      tag_78\n      tag_79\n      jump\t// in\n    tag_78:\n        /* \"#utility.yul\":251:363   */\n    tag_77:\n        /* \"#utility.yul\":372:413   */\n      tag_80\n        /* \"#utility.yul\":406:412   */\n      dup5\n        /* \"#utility.yul\":401:404   */\n      dup3\n        /* \"#utility.yul\":396:399   */\n      dup6\n        /* \"#utility.yul\":372:413   */\n      tag_81\n      jump\t// in\n    tag_80:\n        /* \"#utility.yul\":91:419   */\n      pop\n        /* \"#utility.yul\":7:419   */\n      swap4\n      swap3\n      pop\n      pop\n      pop\n      jump\t// out\n        /* \"#utility.yul\":439:779   */\n    tag_82:\n        /* \"#utility.yul\":495:500   */\n      0x00\n        /* \"#utility.yul\":544:547   */\n      dup3\n        /* \"#utility.yul\":537:541   */\n      0x1f\n        /* \"#utility.yul\":529:535   */\n      dup4\n        /* \"#utility.yul\":525:542   */\n      add\n        /* \"#utility.yul\":521:548   */\n      slt\n        /* \"#utility.yul\":511:633   */\n      tag_84\n      jumpi\n        /* \"#utility.yul\":552:631   */\n      tag_85\n      tag_86\n      jump\t// in\n    tag_85:\n        /* \"#utility.yul\":511:633   */\n    tag_84:\n        /* \"#utility.yul\":669:675   */\n      dup2\n        /* \"#utility.yul\":656:676   */\n      calldataload\n        /* \"#utility.yul\":694:773   */\n      tag_87\n        /* \"#utility.yul\":769:772   */\n      dup5\n        /* \"#utility.yul\":761:767   */\n      dup3\n        /* \"#utility.yul\":754:758   */\n      0x20\n        /* \"#utility.yul\":746:752   */\n      dup7\n        /* \"#utility.yul\":742:759   */\n      add\n        /* \"#utility.yul\":694:773   */\n      tag_71\n      jump\t// in\n    tag_87:\n        /* \"#utility.yul\":685:773   */\n      swap2\n      pop\n        /* \"#utility.yul\":501:779   */\n      pop\n        /* \"#utility.yul\":439:779   */\n      swap3\n      swap2\n      pop\n      pop\n      jump\t// out\n        /* \"#utility.yul\":785:924   */\n    tag_88:\n        /* \"#utility.yul\":831:836   */\n      0x00\n        /* \"#utility.yul\":869:875   */\n      dup2\n        /* \"#utility.yul\":856:876   */\n      calldataload\n        /* \"#utility.yul\":847:876   */\n      swap1\n      pop\n        /* \"#utility.yul\":885:918   */\n      tag_90\n        /* \"#utility.yul\":912:917   */\n      dup2\n        /* \"#utility.yul\":885:918   */\n      tag_91\n      jump\t// in\n    tag_90:\n        /* \"#utility.yul\":785:924   */\n      swap3\n      swap2\n      pop\n      pop\n      jump\t// out\n        /* \"#utility.yul\":930:1439   */\n    tag_18:\n        /* \"#utility.yul\":999:1005   */\n      0x00\n        /* \"#utility.yul\":1048:1050   */\n      0x20\n        /* \"#utility.yul\":1036:1045   */\n      dup3\n        /* \"#utility.yul\":1027:1034   */\n      dup5\n        /* \"#utility.yul\":1023:1046   */\n      sub\n        /* \"#utility.yul\":1019:1051   */\n      slt\n        /* \"#utility.yul\":1016:1135   */\n      iszero\n      tag_93\n      jumpi\n        /* \"#utility.yul\":1054:1133   */\n      tag_94\n      tag_95\n      jump\t// in\n    tag_94:\n        /* \"#utility.yul\":1016:1135   */\n    tag_93:\n        /* \"#utility.yul\":1202:1203   */\n      0x00\n        /* \"#utility.yul\":1191:1200   */\n      dup3\n        /* \"#utility.yul\":1187:1204   */\n      add\n        /* \"#utility.yul\":1174:1205   */\n      calldataload\n        /* \"#utility.yul\":1232:1250   */\n      0xffffffffffffffff\n        /* \"#utility.yul\":1224:1230   */\n      dup2\n        /* \"#utility.yul\":1221:1251   */\n      gt\n        /* \"#utility.yul\":1218:1335   */\n      iszero\n      tag_96\n      jumpi\n        /* \"#utility.yul\":1254:1333   */\n      tag_97\n      tag_98\n      jump\t// in\n    tag_97:\n        /* \"#utility.yul\":1218:1335   */\n    tag_96:\n        /* \"#utility.yul\":1359:1422   */\n      tag_99\n        /* \"#utility.yul\":1414:1421   */\n      dup5\n        /* \"#utility.yul\":1405:1411   */\n      dup3\n        /* \"#utility.yul\":1394:1403   */\n      dup6\n        /* \"#utility.yul\":1390:1412   */\n      add\n        /* \"#utility.yul\":1359:1422   */\n      tag_82\n      jump\t// in\n    tag_99:\n        /* \"#utility.yul\":1349:1422   */\n      swap2\n      pop\n        /* \"#utility.yul\":1145:1432   */\n      pop\n        /* \"#utility.yul\":930:1439   */\n      swap3\n      swap2\n      pop\n      pop\n      jump\t// out\n        /* \"#utility.yul\":1445:1774   */\n    tag_12:\n        /* \"#utility.yul\":1504:1510   */\n      0x00\n        /* \"#utility.yul\":1553:1555   */\n      0x20\n        /* \"#utility.yul\":1541:1550   */\n      dup3\n        /* \"#utility.yul\":1532:1539   */\n      dup5\n        /* \"#utility.yul\":1528:1551   */\n      sub\n        /* \"#utility.yul\":1524:1556   */\n      slt\n        /* \"#utility.yul\":1521:1640   */\n      iszero\n      tag_101\n      jumpi\n        /* \"#utility.yul\":1559:1638   */\n      tag_102\n      tag_95\n      jump\t// in\n    tag_102:\n        /* \"#utility.yul\":1521:1640   */\n    tag_101:\n        /* \"#utility.yul\":1679:1680   */\n      0x00\n        /* \"#utility.yul\":1704:1757   */\n      tag_103\n        /* \"#utility.yul\":1749:1756   */\n      dup5\n        /* \"#utility.yul\":1740:1746   */\n      dup3\n        /* \"#utility.yul\":1729:1738   */\n      dup6\n        /* \"#utility.yul\":1725:1747   */\n      add\n        /* \"#utility.yul\":1704:1757   */\n      tag_88\n      jump\t// in\n    tag_103:\n        /* \"#utility.yul\":1694:1757   */\n      swap2\n      pop\n        /* \"#utility.yul\":1650:1767   */\n      pop\n        /* \"#utility.yul\":1445:1774   */\n      swap3\n      swap2\n      pop\n      pop\n      jump\t// out\n        /* \"#utility.yul\":1780:3085   */\n    tag_8:\n        /* \"#utility.yul\":1896:1902   */\n      0x00\n        /* \"#utility.yul\":1904:1910   */\n      dup1\n        /* \"#utility.yul\":1912:1918   */\n      0x00\n        /* \"#utility.yul\":1920:1926   */\n      dup1\n        /* \"#utility.yul\":1969:1972   */\n      0x80\n        /* \"#utility.yul\":1957:1966   */\n      dup6\n        /* \"#utility.yul\":1948:1955   */\n      dup8\n        /* \"#utility.yul\":1944:1967   */\n      sub\n        /* \"#utility.yul\":1940:1973   */\n      slt\n        /* \"#utility.yul\":1937:2057   */\n      iszero\n      tag_105\n      jumpi\n        /* \"#utility.yul\":1976:2055   */\n      tag_106\n      tag_95\n      jump\t// in\n    tag_106:\n        /* \"#utility.yul\":1937:2057   */\n    tag_105:\n        /* \"#utility.yul\":2096:2097   */\n      0x00\n        /* \"#utility.yul\":2121:2174   */\n      tag_107\n        /* \"#utility.yul\":2166:2173   */\n      dup8\n        /* \"#utility.yul\":2157:2163   */\n      dup3\n        /* \"#utility.yul\":2146:2155   */\n      dup9\n        /* \"#utility.yul\":2142:2164   */\n      add\n        /* \"#utility.yul\":2121:2174   */\n      tag_88\n      jump\t// in\n    tag_107:\n        /* \"#utility.yul\":2111:2174   */\n      swap5\n      pop\n        /* \"#utility.yul\":2067:2184   */\n      pop\n        /* \"#utility.yul\":2251:2253   */\n      0x20\n        /* \"#utility.yul\":2240:2249   */\n      dup6\n        /* \"#utility.yul\":2236:2254   */\n      add\n        /* \"#utility.yul\":2223:2255   */\n      calldataload\n        /* \"#utility.yul\":2282:2300   */\n      0xffffffffffffffff\n        /* \"#utility.yul\":2274:2280   */\n      dup2\n        /* \"#utility.yul\":2271:2301   */\n      gt\n        /* \"#utility.yul\":2268:2385   */\n      iszero\n      tag_108\n      jumpi\n        /* \"#utility.yul\":2304:2383   */\n      tag_109\n      tag_98\n      jump\t// in\n    tag_109:\n        /* \"#utility.yul\":2268:2385   */\n    tag_108:\n        /* \"#utility.yul\":2409:2472   */\n      tag_110\n        /* \"#utility.yul\":2464:2471   */\n      dup8\n        /* \"#utility.yul\":2455:2461   */\n      dup3\n        /* \"#utility.yul\":2444:2453   */\n      dup9\n        /* \"#utility.yul\":2440:2462   */\n      add\n        /* \"#utility.yul\":2409:2472   */\n      tag_82\n      jump\t// in\n    tag_110:\n        /* \"#utility.yul\":2399:2472   */\n      swap4\n      pop\n        /* \"#utility.yul\":2194:2482   */\n      pop\n        /* \"#utility.yul\":2549:2551   */\n      0x40\n        /* \"#utility.yul\":2538:2547   */\n      dup6\n        /* \"#utility.yul\":2534:2552   */\n      add\n        /* \"#utility.yul\":2521:2553   */\n      calldataload\n        /* \"#utility.yul\":2580:2598   */\n      0xffffffffffffffff\n        /* \"#utility.yul\":2572:2578   */\n      dup2\n        /* \"#utility.yul\":2569:2599   */\n      gt\n        /* \"#utility.yul\":2566:2683   */\n      iszero\n      tag_111\n      jumpi\n        /* \"#utility.yul\":2602:2681   */\n      tag_112\n      tag_98\n      jump\t// in\n    tag_112:\n        /* \"#utility.yul\":2566:2683   */\n    tag_111:\n        /* \"#utility.yul\":2707:2770   */\n      tag_113\n        /* \"#utility.yul\":2762:2769   */\n      dup8\n        /* \"#utility.yul\":2753:2759   */\n      dup3\n        /* \"#utility.yul\":2742:2751   */\n      dup9\n        /* \"#utility.yul\":2738:2760   */\n      add\n        /* \"#utility.yul\":2707:2770   */\n      tag_82\n      jump\t// in\n    tag_113:\n        /* \"#utility.yul\":2697:2770   */\n      swap3\n      pop\n        /* \"#utility.yul\":2492:2780   */\n      pop\n        /* \"#utility.yul\":2847:2849   */\n      0x60\n        /* \"#utility.yul\":2836:2845   */\n      dup6\n        /* \"#utility.yul\":2832:2850   */\n      add\n        /* \"#utility.yul\":2819:2851   */\n      calldataload\n        /* \"#utility.yul\":2878:2896   */\n      0xffffffffffffffff\n        /* \"#utility.yul\":2870:2876   */\n      dup2\n        /* \"#utility.yul\":2867:2897   */\n      gt\n        /* \"#utility.yul\":2864:2981   */\n      iszero\n      tag_114\n      jumpi\n        /* \"#utility.yul\":2900:2979   */\n      tag_115\n      tag_98\n      jump\t// in\n    tag_115:\n        /* \"#utility.yul\":2864:2981   */\n    tag_114:\n        /* \"#utility.yul\":3005:3068   */\n      tag_116\n        /* \"#utility.yul\":3060:3067   */\n      dup8\n        /* \"#utility.yul\":3051:3057   */\n      dup3\n        /* \"#utility.yul\":3040:3049   */\n      dup9\n        /* \"#utility.yul\":3036:3058   */\n      add\n        /* \"#utility.yul\":3005:3068   */\n      tag_82\n      jump\t// in\n    tag_116:\n        /* \"#utility.yul\":2995:3068   */\n      swap2\n      pop\n        /* \"#utility.yul\":2790:3078   */\n      pop\n        /* \"#utility.yul\":1780:3085   */\n      swap3\n      swap6\n      swap2\n      swap5\n      pop\n      swap3\n      pop\n      jump\t// out\n        /* \"#utility.yul\":3091:3455   */\n    tag_117:\n        /* \"#utility.yul\":3179:3182   */\n      0x00\n        /* \"#utility.yul\":3207:3246   */\n      tag_119\n        /* \"#utility.yul\":3240:3245   */\n      dup3\n        /* \"#utility.yul\":3207:3246   */\n      tag_120\n      jump\t// in\n    tag_119:\n        /* \"#utility.yul\":3262:3333   */\n      tag_121\n        /* \"#utility.yul\":3326:3332   */\n      dup2\n        /* \"#utility.yul\":3321:3324   */\n      dup6\n        /* \"#utility.yul\":3262:3333   */\n      tag_122\n      jump\t// in\n    tag_121:\n        /* \"#utility.yul\":3255:3333   */\n      swap4\n      pop\n        /* \"#utility.yul\":3342:3394   */\n      tag_123\n        /* \"#utility.yul\":3387:3393   */\n      dup2\n        /* \"#utility.yul\":3382:3385   */\n      dup6\n        /* \"#utility.yul\":3375:3379   */\n      0x20\n        /* \"#utility.yul\":3368:3373   */\n      dup7\n        /* \"#utility.yul\":3364:3380   */\n      add\n        /* \"#utility.yul\":3342:3394   */\n      tag_124\n      jump\t// in\n    tag_123:\n        /* \"#utility.yul\":3419:3448   */\n      tag_125\n        /* \"#utility.yul\":3441:3447   */\n      dup2\n        /* \"#utility.yul\":3419:3448   */\n      tag_126\n      jump\t// in\n    tag_125:\n        /* \"#utility.yul\":3414:3417   */\n      dup5\n        /* \"#utility.yul\":3410:3449   */\n      add\n        /* \"#utility.yul\":3403:3449   */\n      swap2\n      pop\n        /* \"#utility.yul\":3183:3455   */\n      pop\n        /* \"#utility.yul\":3091:3455   */\n      swap3\n      swap2\n      pop\n      pop\n      jump\t// out\n        /* \"#utility.yul\":3485:4287   */\n    tag_127:\n        /* \"#utility.yul\":3570:3573   */\n      0x00\n        /* \"#utility.yul\":3607:3612   */\n      dup2\n        /* \"#utility.yul\":3601:3613   */\n      sload\n        /* \"#utility.yul\":3636:3672   */\n      tag_129\n        /* \"#utility.yul\":3662:3671   */\n      dup2\n        /* \"#utility.yul\":3636:3672   */\n      tag_29\n      jump\t// in\n    tag_129:\n        /* \"#utility.yul\":3688:3759   */\n      tag_130\n        /* \"#utility.yul\":3752:3758   */\n      dup2\n        /* \"#utility.yul\":3747:3750   */\n      dup7\n        /* \"#utility.yul\":3688:3759   */\n      tag_122\n      jump\t// in\n    tag_130:\n        /* \"#utility.yul\":3681:3759   */\n      swap5\n      pop\n        /* \"#utility.yul\":3790:3791   */\n      0x01\n        /* \"#utility.yul\":3779:3788   */\n      dup3\n        /* \"#utility.yul\":3775:3792   */\n      and\n        /* \"#utility.yul\":3806:3807   */\n      0x00\n        /* \"#utility.yul\":3801:3936   */\n      dup2\n      eq\n      tag_132\n      jumpi\n        /* \"#utility.yul\":3950:3951   */\n      0x01\n        /* \"#utility.yul\":3945:4281   */\n      dup2\n      eq\n      tag_133\n      jumpi\n        /* \"#utility.yul\":3768:4281   */\n      jump(tag_131)\n        /* \"#utility.yul\":3801:3936   */\n    tag_132:\n        /* \"#utility.yul\":3885:3889   */\n      0xff\n        /* \"#utility.yul\":3881:3890   */\n      not\n        /* \"#utility.yul\":3870:3879   */\n      dup4\n        /* \"#utility.yul\":3866:3891   */\n      and\n        /* \"#utility.yul\":3861:3864   */\n      dup7\n        /* \"#utility.yul\":3854:3892   */\n      mstore\n        /* \"#utility.yul\":3921:3925   */\n      0x20\n        /* \"#utility.yul\":3916:3919   */\n      dup7\n        /* \"#utility.yul\":3912:3926   */\n      add\n        /* \"#utility.yul\":3905:3926   */\n      swap4\n      pop\n        /* \"#utility.yul\":3801:3936   */\n      jump(tag_131)\n        /* \"#utility.yul\":3945:4281   */\n    tag_133:\n        /* \"#utility.yul\":4012:4050   */\n      tag_134\n        /* \"#utility.yul\":4044:4049   */\n      dup6\n        /* \"#utility.yul\":4012:4050   */\n      tag_135\n      jump\t// in\n    tag_134:\n        /* \"#utility.yul\":4072:4073   */\n      0x00\n        /* \"#utility.yul\":4086:4240   */\n    tag_136:\n        /* \"#utility.yul\":4100:4106   */\n      dup4\n        /* \"#utility.yul\":4097:4098   */\n      dup2\n        /* \"#utility.yul\":4094:4107   */\n      lt\n        /* \"#utility.yul\":4086:4240   */\n      iszero\n      tag_138\n      jumpi\n        /* \"#utility.yul\":4174:4181   */\n      dup2\n        /* \"#utility.yul\":4168:4182   */\n      sload\n        /* \"#utility.yul\":4164:4165   */\n      dup2\n        /* \"#utility.yul\":4159:4162   */\n      dup10\n        /* \"#utility.yul\":4155:4166   */\n      add\n        /* \"#utility.yul\":4148:4183   */\n      mstore\n        /* \"#utility.yul\":4224:4225   */\n      0x01\n        /* \"#utility.yul\":4215:4222   */\n      dup3\n        /* \"#utility.yul\":4211:4226   */\n      add\n        /* \"#utility.yul\":4200:4226   */\n      swap2\n      pop\n        /* \"#utility.yul\":4122:4126   */\n      0x20\n        /* \"#utility.yul\":4119:4120   */\n      dup2\n        /* \"#utility.yul\":4115:4127   */\n      add\n        /* \"#utility.yul\":4110:4127   */\n      swap1\n      pop\n        /* \"#utility.yul\":4086:4240   */\n      jump(tag_136)\n    tag_138:\n        /* \"#utility.yul\":4269:4270   */\n      dup1\n        /* \"#utility.yul\":4264:4267   */\n      dup9\n        /* \"#utility.yul\":4260:4271   */\n      add\n        /* \"#utility.yul\":4253:4271   */\n      swap6\n      pop\n        /* \"#utility.yul\":3952:4281   */\n      pop\n      pop\n        /* \"#utility.yul\":3768:4281   */\n    tag_131:\n      pop\n        /* \"#utility.yul\":3574:4287   */\n      pop\n      pop\n        /* \"#utility.yul\":3485:4287   */\n      swap3\n      swap2\n      pop\n      pop\n      jump\t// out\n        /* \"#utility.yul\":4293:4657   */\n    tag_139:\n        /* \"#utility.yul\":4435:4438   */\n      0x00\n        /* \"#utility.yul\":4456:4522   */\n      tag_141\n        /* \"#utility.yul\":4520:4521   */\n      0x00\n        /* \"#utility.yul\":4515:4518   */\n      dup4\n        /* \"#utility.yul\":4456:4522   */\n      tag_122\n      jump\t// in\n    tag_141:\n        /* \"#utility.yul\":4449:4522   */\n      swap2\n      pop\n        /* \"#utility.yul\":4531:4624   */\n      tag_142\n        /* \"#utility.yul\":4620:4623   */\n      dup3\n        /* \"#utility.yul\":4531:4624   */\n      tag_143\n      jump\t// in\n    tag_142:\n        /* \"#utility.yul\":4649:4650   */\n      0x00\n        /* \"#utility.yul\":4644:4647   */\n      dup3\n        /* \"#utility.yul\":4640:4651   */\n      add\n        /* \"#utility.yul\":4633:4651   */\n      swap1\n      pop\n        /* \"#utility.yul\":4293:4657   */\n      swap2\n      swap1\n      pop\n      jump\t// out\n        /* \"#utility.yul\":4663:4781   */\n    tag_144:\n        /* \"#utility.yul\":4750:4774   */\n      tag_146\n        /* \"#utility.yul\":4768:4773   */\n      dup2\n        /* \"#utility.yul\":4750:4774   */\n      tag_147\n      jump\t// in\n    tag_146:\n        /* \"#utility.yul\":4745:4748   */\n      dup3\n        /* \"#utility.yul\":4738:4775   */\n      mstore\n        /* \"#utility.yul\":4663:4781   */\n      pop\n      pop\n      jump\t// out\n        /* \"#utility.yul\":4787:5926   */\n    tag_15:\n        /* \"#utility.yul\":5100:5104   */\n      0x00\n        /* \"#utility.yul\":5138:5141   */\n      0xc0\n        /* \"#utility.yul\":5127:5136   */\n      dup3\n        /* \"#utility.yul\":5123:5142   */\n      add\n        /* \"#utility.yul\":5115:5142   */\n      swap1\n      pop\n        /* \"#utility.yul\":5152:5223   */\n      tag_149\n        /* \"#utility.yul\":5220:5221   */\n      0x00\n        /* \"#utility.yul\":5209:5218   */\n      dup4\n        /* \"#utility.yul\":5205:5222   */\n      add\n        /* \"#utility.yul\":5196:5202   */\n      dup10\n        /* \"#utility.yul\":5152:5223   */\n      tag_144\n      jump\t// in\n    tag_149:\n        /* \"#utility.yul\":5270:5279   */\n      dup2\n        /* \"#utility.yul\":5264:5268   */\n      dup2\n        /* \"#utility.yul\":5260:5280   */\n      sub\n        /* \"#utility.yul\":5255:5257   */\n      0x20\n        /* \"#utility.yul\":5244:5253   */\n      dup4\n        /* \"#utility.yul\":5240:5258   */\n      add\n        /* \"#utility.yul\":5233:5281   */\n      mstore\n        /* \"#utility.yul\":5298:5376   */\n      tag_150\n        /* \"#utility.yul\":5371:5375   */\n      dup2\n        /* \"#utility.yul\":5362:5368   */\n      dup9\n        /* \"#utility.yul\":5298:5376   */\n      tag_117\n      jump\t// in\n    tag_150:\n        /* \"#utility.yul\":5290:5376   */\n      swap1\n      pop\n        /* \"#utility.yul\":5423:5432   */\n      dup2\n        /* \"#utility.yul\":5417:5421   */\n      dup2\n        /* \"#utility.yul\":5413:5433   */\n      sub\n        /* \"#utility.yul\":5408:5410   */\n      0x40\n        /* \"#utility.yul\":5397:5406   */\n      dup4\n        /* \"#utility.yul\":5393:5411   */\n      add\n        /* \"#utility.yul\":5386:5434   */\n      mstore\n        /* \"#utility.yul\":5451:5529   */\n      tag_151\n        /* \"#utility.yul\":5524:5528   */\n      dup2\n        /* \"#utility.yul\":5515:5521   */\n      dup8\n        /* \"#utility.yul\":5451:5529   */\n      tag_117\n      jump\t// in\n    tag_151:\n        /* \"#utility.yul\":5443:5529   */\n      swap1\n      pop\n        /* \"#utility.yul\":5576:5585   */\n      dup2\n        /* \"#utility.yul\":5570:5574   */\n      dup2\n        /* \"#utility.yul\":5566:5586   */\n      sub\n        /* \"#utility.yul\":5561:5563   */\n      0x60\n        /* \"#utility.yul\":5550:5559   */\n      dup4\n        /* \"#utility.yul\":5546:5564   */\n      add\n        /* \"#utility.yul\":5539:5587   */\n      mstore\n        /* \"#utility.yul\":5604:5682   */\n      tag_152\n        /* \"#utility.yul\":5677:5681   */\n      dup2\n        /* \"#utility.yul\":5668:5674   */\n      dup7\n        /* \"#utility.yul\":5604:5682   */\n      tag_117\n      jump\t// in\n    tag_152:\n        /* \"#utility.yul\":5596:5682   */\n      swap1\n      pop\n        /* \"#utility.yul\":5730:5739   */\n      dup2\n        /* \"#utility.yul\":5724:5728   */\n      dup2\n        /* \"#utility.yul\":5720:5740   */\n      sub\n        /* \"#utility.yul\":5714:5717   */\n      0x80\n        /* \"#utility.yul\":5703:5712   */\n      dup4\n        /* \"#utility.yul\":5699:5718   */\n      add\n        /* \"#utility.yul\":5692:5741   */\n      mstore\n        /* \"#utility.yul\":5758:5836   */\n      tag_153\n        /* \"#utility.yul\":5831:5835   */\n      dup2\n        /* \"#utility.yul\":5822:5828   */\n      dup6\n        /* \"#utility.yul\":5758:5836   */\n      tag_117\n      jump\t// in\n    tag_153:\n        /* \"#utility.yul\":5750:5836   */\n      swap1\n      pop\n        /* \"#utility.yul\":5846:5919   */\n      tag_154\n        /* \"#utility.yul\":5914:5917   */\n      0xa0\n        /* \"#utility.yul\":5903:5912   */\n      dup4\n        /* \"#utility.yul\":5899:5918   */\n      add\n        /* \"#utility.yul\":5890:5896   */\n      dup5\n        /* \"#utility.yul\":5846:5919   */\n      tag_144\n      jump\t// in\n    tag_154:\n        /* \"#utility.yul\":4787:5926   */\n      swap8\n      swap7\n      pop\n      pop\n      pop\n      pop\n      pop\n      pop\n      pop\n      jump\t// out\n        /* \"#utility.yul\":5932:7389   */\n    tag_59:\n        /* \"#utility.yul\":6404:6408   */\n      0x00\n        /* \"#utility.yul\":6442:6445   */\n      0xc0\n        /* \"#utility.yul\":6431:6440   */\n      dup3\n        /* \"#utility.yul\":6427:6446   */\n      add\n        /* \"#utility.yul\":6419:6446   */\n      swap1\n      pop\n        /* \"#utility.yul\":6456:6527   */\n      tag_156\n        /* \"#utility.yul\":6524:6525   */\n      0x00\n        /* \"#utility.yul\":6513:6522   */\n      dup4\n        /* \"#utility.yul\":6509:6526   */\n      add\n        /* \"#utility.yul\":6500:6506   */\n      dup7\n        /* \"#utility.yul\":6456:6527   */\n      tag_144\n      jump\t// in\n    tag_156:\n        /* \"#utility.yul\":6574:6583   */\n      dup2\n        /* \"#utility.yul\":6568:6572   */\n      dup2\n        /* \"#utility.yul\":6564:6584   */\n      sub\n        /* \"#utility.yul\":6559:6561   */\n      0x20\n        /* \"#utility.yul\":6548:6557   */\n      dup4\n        /* \"#utility.yul\":6544:6562   */\n      add\n        /* \"#utility.yul\":6537:6585   */\n      mstore\n        /* \"#utility.yul\":6602:6680   */\n      tag_157\n        /* \"#utility.yul\":6675:6679   */\n      dup2\n        /* \"#utility.yul\":6666:6672   */\n      dup6\n        /* \"#utility.yul\":6602:6680   */\n      tag_117\n      jump\t// in\n    tag_157:\n        /* \"#utility.yul\":6594:6680   */\n      swap1\n      pop\n        /* \"#utility.yul\":6727:6736   */\n      dup2\n        /* \"#utility.yul\":6721:6725   */\n      dup2\n        /* \"#utility.yul\":6717:6737   */\n      sub\n        /* \"#utility.yul\":6712:6714   */\n      0x40\n        /* \"#utility.yul\":6701:6710   */\n      dup4\n        /* \"#utility.yul\":6697:6715   */\n      add\n        /* \"#utility.yul\":6690:6738   */\n      mstore\n        /* \"#utility.yul\":6755:6886   */\n      tag_158\n        /* \"#utility.yul\":6881:6885   */\n      dup2\n        /* \"#utility.yul\":6755:6886   */\n      tag_139\n      jump\t// in\n    tag_158:\n        /* \"#utility.yul\":6747:6886   */\n      swap1\n      pop\n        /* \"#utility.yul\":6933:6942   */\n      dup2\n        /* \"#utility.yul\":6927:6931   */\n      dup2\n        /* \"#utility.yul\":6923:6943   */\n      sub\n        /* \"#utility.yul\":6918:6920   */\n      0x60\n        /* \"#utility.yul\":6907:6916   */\n      dup4\n        /* \"#utility.yul\":6903:6921   */\n      add\n        /* \"#utility.yul\":6896:6944   */\n      mstore\n        /* \"#utility.yul\":6961:7092   */\n      tag_159\n        /* \"#utility.yul\":7087:7091   */\n      dup2\n        /* \"#utility.yul\":6961:7092   */\n      tag_139\n      jump\t// in\n    tag_159:\n        /* \"#utility.yul\":6953:7092   */\n      swap1\n      pop\n        /* \"#utility.yul\":7140:7149   */\n      dup2\n        /* \"#utility.yul\":7134:7138   */\n      dup2\n        /* \"#utility.yul\":7130:7150   */\n      sub\n        /* \"#utility.yul\":7124:7127   */\n      0x80\n        /* \"#utility.yul\":7113:7122   */\n      dup4\n        /* \"#utility.yul\":7109:7128   */\n      add\n        /* \"#utility.yul\":7102:7151   */\n      mstore\n        /* \"#utility.yul\":7168:7299   */\n      tag_160\n        /* \"#utility.yul\":7294:7298   */\n      dup2\n        /* \"#utility.yul\":7168:7299   */\n      tag_139\n      jump\t// in\n    tag_160:\n        /* \"#utility.yul\":7160:7299   */\n      swap1\n      pop\n        /* \"#utility.yul\":7309:7382   */\n      tag_161\n        /* \"#utility.yul\":7377:7380   */\n      0xa0\n        /* \"#utility.yul\":7366:7375   */\n      dup4\n        /* \"#utility.yul\":7362:7381   */\n      add\n        /* \"#utility.yul\":7353:7359   */\n      dup5\n        /* \"#utility.yul\":7309:7382   */\n      tag_144\n      jump\t// in\n    tag_161:\n        /* \"#utility.yul\":5932:7389   */\n      swap5\n      swap4\n      pop\n      pop\n      pop\n      pop\n      jump\t// out\n        /* \"#utility.yul\":7395:8528   */\n    tag_26:\n        /* \"#utility.yul\":7705:7709   */\n      0x00\n        /* \"#utility.yul\":7743:7746   */\n      0xc0\n        /* \"#utility.yul\":7732:7741   */\n      dup3\n        /* \"#utility.yul\":7728:7747   */\n      add\n        /* \"#utility.yul\":7720:7747   */\n      swap1\n      pop\n        /* \"#utility.yul\":7757:7828   */\n      tag_163\n        /* \"#utility.yul\":7825:7826   */\n      0x00\n        /* \"#utility.yul\":7814:7823   */\n      dup4\n        /* \"#utility.yul\":7810:7827   */\n      add\n        /* \"#utility.yul\":7801:7807   */\n      dup10\n        /* \"#utility.yul\":7757:7828   */\n      tag_144\n      jump\t// in\n    tag_163:\n        /* \"#utility.yul\":7875:7884   */\n      dup2\n        /* \"#utility.yul\":7869:7873   */\n      dup2\n        /* \"#utility.yul\":7865:7885   */\n      sub\n        /* \"#utility.yul\":7860:7862   */\n      0x20\n        /* \"#utility.yul\":7849:7858   */\n      dup4\n        /* \"#utility.yul\":7845:7863   */\n      add\n        /* \"#utility.yul\":7838:7886   */\n      mstore\n        /* \"#utility.yul\":7903:7978   */\n      tag_164\n        /* \"#utility.yul\":7973:7977   */\n      dup2\n        /* \"#utility.yul\":7964:7970   */\n      dup9\n        /* \"#utility.yul\":7903:7978   */\n      tag_127\n      jump\t// in\n    tag_164:\n        /* \"#utility.yul\":7895:7978   */\n      swap1\n      pop\n        /* \"#utility.yul\":8025:8034   */\n      dup2\n        /* \"#utility.yul\":8019:8023   */\n      dup2\n        /* \"#utility.yul\":8015:8035   */\n      sub\n        /* \"#utility.yul\":8010:8012   */\n      0x40\n        /* \"#utility.yul\":7999:8008   */\n      dup4\n        /* \"#utility.yul\":7995:8013   */\n      add\n        /* \"#utility.yul\":7988:8036   */\n      mstore\n        /* \"#utility.yul\":8053:8131   */\n      tag_165\n        /* \"#utility.yul\":8126:8130   */\n      dup2\n        /* \"#utility.yul\":8117:8123   */\n      dup8\n        /* \"#utility.yul\":8053:8131   */\n      tag_117\n      jump\t// in\n    tag_165:\n        /* \"#utility.yul\":8045:8131   */\n      swap1\n      pop\n        /* \"#utility.yul\":8178:8187   */\n      dup2\n        /* \"#utility.yul\":8172:8176   */\n      dup2\n        /* \"#utility.yul\":8168:8188   */\n      sub\n        /* \"#utility.yul\":8163:8165   */\n      0x60\n        /* \"#utility.yul\":8152:8161   */\n      dup4\n        /* \"#utility.yul\":8148:8166   */\n      add\n        /* \"#utility.yul\":8141:8189   */\n      mstore\n        /* \"#utility.yul\":8206:8284   */\n      tag_166\n        /* \"#utility.yul\":8279:8283   */\n      dup2\n        /* \"#utility.yul\":8270:8276   */\n      dup7\n        /* \"#utility.yul\":8206:8284   */\n      tag_117\n      jump\t// in\n    tag_166:\n        /* \"#utility.yul\":8198:8284   */\n      swap1\n      pop\n        /* \"#utility.yul\":8332:8341   */\n      dup2\n        /* \"#utility.yul\":8326:8330   */\n      dup2\n        /* \"#utility.yul\":8322:8342   */\n      sub\n        /* \"#utility.yul\":8316:8319   */\n      0x80\n        /* \"#utility.yul\":8305:8314   */\n      dup4\n        /* \"#utility.yul\":8301:8320   */\n      add\n        /* \"#utility.yul\":8294:8343   */\n      mstore\n        /* \"#utility.yul\":8360:8438   */\n      tag_167\n        /* \"#utility.yul\":8433:8437   */\n      dup2\n        /* \"#utility.yul\":8424:8430   */\n      dup6\n        /* \"#utility.yul\":8360:8438   */\n      tag_117\n      jump\t// in\n    tag_167:\n        /* \"#utility.yul\":8352:8438   */\n      swap1\n      pop\n        /* \"#utility.yul\":8448:8521   */\n      tag_168\n        /* \"#utility.yul\":8516:8519   */\n      0xa0\n        /* \"#utility.yul\":8505:8514   */\n      dup4\n        /* \"#utility.yul\":8501:8520   */\n      add\n        /* \"#utility.yul\":8492:8498   */\n      dup5\n        /* \"#utility.yul\":8448:8521   */\n      tag_144\n      jump\t// in\n    tag_168:\n        /* \"#utility.yul\":7395:8528   */\n      swap8\n      swap7\n      pop\n      pop\n      pop\n      pop\n      pop\n      pop\n      pop\n      jump\t// out\n        /* \"#utility.yul\":8534:8663   */\n    tag_76:\n        /* \"#utility.yul\":8568:8574   */\n      0x00\n        /* \"#utility.yul\":8595:8615   */\n      tag_170\n      tag_171\n      jump\t// in\n    tag_170:\n        /* \"#utility.yul\":8585:8615   */\n      swap1\n      pop\n        /* \"#utility.yul\":8624:8657   */\n      tag_172\n        /* \"#utility.yul\":8652:8656   */\n      dup3\n        /* \"#utility.yul\":8644:8650   */\n      dup3\n        /* \"#utility.yul\":8624:8657   */\n      tag_173\n      jump\t// in\n    tag_172:\n        /* \"#utility.yul\":8534:8663   */\n      swap2\n      swap1\n      pop\n      jump\t// out\n        /* \"#utility.yul\":8669:8744   */\n    tag_171:\n        /* \"#utility.yul\":8702:8708   */\n      0x00\n        /* \"#utility.yul\":8735:8737   */\n      0x40\n        /* \"#utility.yul\":8729:8738   */\n      mload\n        /* \"#utility.yul\":8719:8738   */\n      swap1\n      pop\n        /* \"#utility.yul\":8669:8744   */\n      swap1\n      jump\t// out\n        /* \"#utility.yul\":8750:9058   */\n    tag_75:\n        /* \"#utility.yul\":8812:8816   */\n      0x00\n        /* \"#utility.yul\":8902:8920   */\n      0xffffffffffffffff\n        /* \"#utility.yul\":8894:8900   */\n      dup3\n        /* \"#utility.yul\":8891:8921   */\n      gt\n        /* \"#utility.yul\":8888:8944   */\n      iszero\n      tag_176\n      jumpi\n        /* \"#utility.yul\":8924:8942   */\n      tag_177\n      tag_178\n      jump\t// in\n    tag_177:\n        /* \"#utility.yul\":8888:8944   */\n    tag_176:\n        /* \"#utility.yul\":8962:8991   */\n      tag_179\n        /* \"#utility.yul\":8984:8990   */\n      dup3\n        /* \"#utility.yul\":8962:8991   */\n      tag_126\n      jump\t// in\n    tag_179:\n        /* \"#utility.yul\":8954:8991   */\n      swap1\n      pop\n        /* \"#utility.yul\":9046:9050   */\n      0x20\n        /* \"#utility.yul\":9040:9044   */\n      dup2\n        /* \"#utility.yul\":9036:9051   */\n      add\n        /* \"#utility.yul\":9028:9051   */\n      swap1\n      pop\n        /* \"#utility.yul\":8750:9058   */\n      swap2\n      swap1\n      pop\n      jump\t// out\n        /* \"#utility.yul\":9064:9205   */\n    tag_135:\n        /* \"#utility.yul\":9113:9117   */\n      0x00\n        /* \"#utility.yul\":9136:9139   */\n      dup2\n        /* \"#utility.yul\":9128:9139   */\n      swap1\n      pop\n        /* \"#utility.yul\":9159:9162   */\n      dup2\n        /* \"#utility.yul\":9156:9157   */\n      0x00\n        /* \"#utility.yul\":9149:9163   */\n      mstore\n        /* \"#utility.yul\":9193:9197   */\n      0x20\n        /* \"#utility.yul\":9190:9191   */\n      0x00\n        /* \"#utility.yul\":9180:9198   */\n      keccak256\n        /* \"#utility.yul\":9172:9198   */\n      swap1\n      pop\n        /* \"#utility.yul\":9064:9205   */\n      swap2\n      swap1\n      pop\n      jump\t// out\n        /* \"#utility.yul\":9211:9310   */\n    tag_120:\n        /* \"#utility.yul\":9263:9269   */\n      0x00\n        /* \"#utility.yul\":9297:9302   */\n      dup2\n        /* \"#utility.yul\":9291:9303   */\n      mload\n        /* \"#utility.yul\":9281:9303   */\n      swap1\n      pop\n        /* \"#utility.yul\":9211:9310   */\n      swap2\n      swap1\n      pop\n      jump\t// out\n        /* \"#utility.yul\":9316:9485   */\n    tag_122:\n        /* \"#utility.yul\":9400:9411   */\n      0x00\n        /* \"#utility.yul\":9434:9440   */\n      dup3\n        /* \"#utility.yul\":9429:9432   */\n      dup3\n        /* \"#utility.yul\":9422:9441   */\n      mstore\n        /* \"#utility.yul\":9474:9478   */\n      0x20\n        /* \"#utility.yul\":9469:9472   */\n      dup3\n        /* \"#utility.yul\":9465:9479   */\n      add\n        /* \"#utility.yul\":9450:9479   */\n      swap1\n      pop\n        /* \"#utility.yul\":9316:9485   */\n      swap3\n      swap2\n      pop\n      pop\n      jump\t// out\n        /* \"#utility.yul\":9491:9796   */\n    tag_51:\n        /* \"#utility.yul\":9531:9534   */\n      0x00\n        /* \"#utility.yul\":9550:9570   */\n      tag_184\n        /* \"#utility.yul\":9568:9569   */\n      dup3\n        /* \"#utility.yul\":9550:9570   */\n      tag_147\n      jump\t// in\n    tag_184:\n        /* \"#utility.yul\":9545:9570   */\n      swap2\n      pop\n        /* \"#utility.yul\":9584:9604   */\n      tag_185\n        /* \"#utility.yul\":9602:9603   */\n      dup4\n        /* \"#utility.yul\":9584:9604   */\n      tag_147\n      jump\t// in\n    tag_185:\n        /* \"#utility.yul\":9579:9604   */\n      swap3\n      pop\n        /* \"#utility.yul\":9738:9739   */\n      dup3\n        /* \"#utility.yul\":9670:9736   */\n      0xffffffffffffffffffffffffffffffffffffffffffffffffffffffffffffffff\n        /* \"#utility.yul\":9666:9740   */\n      sub\n        /* \"#utility.yul\":9663:9664   */\n      dup3\n        /* \"#utility.yul\":9660:9741   */\n      gt\n        /* \"#utility.yul\":9657:9764   */\n      iszero\n      tag_186\n      jumpi\n        /* \"#utility.yul\":9744:9762   */\n      tag_187\n      tag_188\n      jump\t// in\n    tag_187:\n        /* \"#utility.yul\":9657:9764   */\n    tag_186:\n        /* \"#utility.yul\":9788:9789   */\n      dup3\n        /* \"#utility.yul\":9785:9786   */\n      dup3\n        /* \"#utility.yul\":9781:9790   */\n      add\n        /* \"#utility.yul\":9774:9790   */\n      swap1\n      pop\n        /* \"#utility.yul\":9491:9796   */\n      swap3\n      swap2\n      pop\n      pop\n      jump\t// out\n        /* \"#utility.yul\":9802:9879   */\n    tag_147:\n        /* \"#utility.yul\":9839:9846   */\n      0x00\n        /* \"#utility.yul\":9868:9873   */\n      dup2\n        /* \"#utility.yul\":9857:9873   */\n      swap1\n      pop\n        /* \"#utility.yul\":9802:9879   */\n      swap2\n      swap1\n      pop\n      jump\t// out\n        /* \"#utility.yul\":9885:10039   */\n    tag_81:\n        /* \"#utility.yul\":9969:9975   */\n      dup3\n        /* \"#utility.yul\":9964:9967   */\n      dup2\n        /* \"#utility.yul\":9959:9962   */\n      dup4\n        /* \"#utility.yul\":9946:9976   */\n      calldatacopy\n        /* \"#utility.yul\":10031:10032   */\n      0x00\n        /* \"#utility.yul\":10022:10028   */\n      dup4\n        /* \"#utility.yul\":10017:10020   */\n      dup4\n        /* \"#utility.yul\":10013:10029   */\n      add\n        /* \"#utility.yul\":10006:10033   */\n      mstore\n        /* \"#utility.yul\":9885:10039   */\n      pop\n      pop\n      pop\n      jump\t// out\n        /* \"#utility.yul\":10045:10352   */\n    tag_124:\n        /* \"#utility.yul\":10113:10114   */\n      0x00\n        /* \"#utility.yul\":10123:10236   */\n    tag_192:\n        /* \"#utility.yul\":10137:10143   */\n      dup4\n        /* \"#utility.yul\":10134:10135   */\n      dup2\n        /* \"#utility.yul\":10131:10144   */\n      lt\n        /* \"#utility.yul\":10123:10236   */\n      iszero\n      tag_194\n      jumpi\n        /* \"#utility.yul\":10222:10223   */\n      dup1\n        /* \"#utility.yul\":10217:10220   */\n      dup3\n        /* \"#utility.yul\":10213:10224   */\n      add\n        /* \"#utility.yul\":10207:10225   */\n      mload\n        /* \"#utility.yul\":10203:10204   */\n      dup2\n        /* \"#utility.yul\":10198:10201   */\n      dup5\n        /* \"#utility.yul\":10194:10205   */\n      add\n        /* \"#utility.yul\":10187:10226   */\n      mstore\n        /* \"#utility.yul\":10159:10161   */\n      0x20\n        /* \"#utility.yul\":10156:10157   */\n      dup2\n        /* \"#utility.yul\":10152:10162   */\n      add\n        /* \"#utility.yul\":10147:10162   */\n      swap1\n      pop\n        /* \"#utility.yul\":10123:10236   */\n      jump(tag_192)\n    tag_194:\n        /* \"#utility.yul\":10254:10260   */\n      dup4\n        /* \"#utility.yul\":10251:10252   */\n      dup2\n        /* \"#utility.yul\":10248:10261   */\n      gt\n        /* \"#utility.yul\":10245:10346   */\n      iszero\n      tag_195\n      jumpi\n        /* \"#utility.yul\":10334:10335   */\n      0x00\n        /* \"#utility.yul\":10325:10331   */\n      dup5\n        /* \"#utility.yul\":10320:10323   */\n      dup5\n        /* \"#utility.yul\":10316:10332   */\n      add\n        /* \"#utility.yul\":10309:10336   */\n      mstore\n        /* \"#utility.yul\":10245:10346   */\n    tag_195:\n        /* \"#utility.yul\":10094:10352   */\n      pop\n        /* \"#utility.yul\":10045:10352   */\n      pop\n      pop\n      pop\n      jump\t// out\n        /* \"#utility.yul\":10358:10678   */\n    tag_29:\n        /* \"#utility.yul\":10402:10408   */\n      0x00\n        /* \"#utility.yul\":10439:10440   */\n      0x02\n        /* \"#utility.yul\":10433:10437   */\n      dup3\n        /* \"#utility.yul\":10429:10441   */\n      div\n        /* \"#utility.yul\":10419:10441   */\n      swap1\n      pop\n        /* \"#utility.yul\":10486:10487   */\n      0x01\n        /* \"#utility.yul\":10480:10484   */\n      dup3\n        /* \"#utility.yul\":10476:10488   */\n      and\n        /* \"#utility.yul\":10507:10525   */\n      dup1\n        /* \"#utility.yul\":10497:10578   */\n      tag_197\n      jumpi\n        /* \"#utility.yul\":10563:10567   */\n      0x7f\n        /* \"#utility.yul\":10555:10561   */\n      dup3\n        /* \"#utility.yul\":10551:10568   */\n      and\n        /* \"#utility.yul\":10541:10568   */\n      swap2\n      pop\n        /* \"#utility.yul\":10497:10578   */\n    tag_197:\n        /* \"#utility.yul\":10625:10627   */\n      0x20\n        /* \"#utility.yul\":10617:10623   */\n      dup3\n        /* \"#utility.yul\":10614:10628   */\n      lt\n        /* \"#utility.yul\":10594:10612   */\n      dup2\n        /* \"#utility.yul\":10591:10629   */\n      eq\n        /* \"#utility.yul\":10588:10672   */\n      iszero\n      tag_198\n      jumpi\n        /* \"#utility.yul\":10644:10662   */\n      tag_199\n      tag_200\n      jump\t// in\n    tag_199:\n        /* \"#utility.yul\":10588:10672   */\n    tag_198:\n        /* \"#utility.yul\":10409:10678   */\n      pop\n        /* \"#utility.yul\":10358:10678   */\n      swap2\n      swap1\n      pop\n      jump\t// out\n        /* \"#utility.yul\":10684:10965   */\n    tag_173:\n        /* \"#utility.yul\":10767:10794   */\n      tag_202\n        /* \"#utility.yul\":10789:10793   */\n      dup3\n        /* \"#utility.yul\":10767:10794   */\n      tag_126\n      jump\t// in\n    tag_202:\n        /* \"#utility.yul\":10759:10765   */\n      dup2\n        /* \"#utility.yul\":10755:10795   */\n      add\n        /* \"#utility.yul\":10897:10903   */\n      dup2\n        /* \"#utility.yul\":10885:10895   */\n      dup2\n        /* \"#utility.yul\":10882:10904   */\n      lt\n        /* \"#utility.yul\":10861:10879   */\n      0xffffffffffffffff\n        /* \"#utility.yul\":10849:10859   */\n      dup3\n        /* \"#utility.yul\":10846:10880   */\n      gt\n        /* \"#utility.yul\":10843:10905   */\n      or\n        /* \"#utility.yul\":10840:10928   */\n      iszero\n      tag_203\n      jumpi\n        /* \"#utility.yul\":10908:10926   */\n      tag_204\n      tag_178\n      jump\t// in\n    tag_204:\n        /* \"#utility.yul\":10840:10928   */\n    tag_203:\n        /* \"#utility.yul\":10948:10958   */\n      dup1\n        /* \"#utility.yul\":10944:10946   */\n      0x40\n        /* \"#utility.yul\":10937:10959   */\n      mstore\n        /* \"#utility.yul\":10727:10965   */\n      pop\n        /* \"#utility.yul\":10684:10965   */\n      pop\n      pop\n      jump\t// out\n        /* \"#utility.yul\":10971:11204   */\n    tag_57:\n        /* \"#utility.yul\":11010:11013   */\n      0x00\n        /* \"#utility.yul\":11033:11057   */\n      tag_206\n        /* \"#utility.yul\":11051:11056   */\n      dup3\n        /* \"#utility.yul\":11033:11057   */\n      tag_147\n      jump\t// in\n    tag_206:\n        /* \"#utility.yul\":11024:11057   */\n      swap2\n      pop\n        /* \"#utility.yul\":11079:11145   */\n      0xffffffffffffffffffffffffffffffffffffffffffffffffffffffffffffffff\n        /* \"#utility.yul\":11072:11077   */\n      dup3\n        /* \"#utility.yul\":11069:11146   */\n      eq\n        /* \"#utility.yul\":11066:11169   */\n      iszero\n      tag_207\n      jumpi\n        /* \"#utility.yul\":11149:11167   */\n      tag_208\n      tag_188\n      jump\t// in\n    tag_208:\n        /* \"#utility.yul\":11066:11169   */\n    tag_207:\n        /* \"#utility.yul\":11196:11197   */\n      0x01\n        /* \"#utility.yul\":11189:11194   */\n      dup3\n        /* \"#utility.yul\":11185:11198   */\n      add\n        /* \"#utility.yul\":11178:11198   */\n      swap1\n      pop\n        /* \"#utility.yul\":10971:11204   */\n      swap2\n      swap1\n      pop\n      jump\t// out\n        /* \"#utility.yul\":11210:11390   */\n    tag_188:\n        /* \"#utility.yul\":11258:11335   */\n      0x4e487b7100000000000000000000000000000000000000000000000000000000\n        /* \"#utility.yul\":11255:11256   */\n      0x00\n        /* \"#utility.yul\":11248:11336   */\n      mstore\n        /* \"#utility.yul\":11355:11359   */\n      0x11\n        /* \"#utility.yul\":11352:11353   */\n      0x04\n        /* \"#utility.yul\":11345:11360   */\n      mstore\n        /* \"#utility.yul\":11379:11383   */\n      0x24\n        /* \"#utility.yul\":11376:11377   */\n      0x00\n        /* \"#utility.yul\":11369:11384   */\n      revert\n        /* \"#utility.yul\":11396:11576   */\n    tag_200:\n        /* \"#utility.yul\":11444:11521   */\n      0x4e487b7100000000000000000000000000000000000000000000000000000000\n        /* \"#utility.yul\":11441:11442   */\n      0x00\n        /* \"#utility.yul\":11434:11522   */\n      mstore\n        /* \"#utility.yul\":11541:11545   */\n      0x22\n        /* \"#utility.yul\":11538:11539   */\n      0x04\n        /* \"#utility.yul\":11531:11546   */\n      mstore\n        /* \"#utility.yul\":11565:11569   */\n      0x24\n        /* \"#utility.yul\":11562:11563   */\n      0x00\n        /* \"#utility.yul\":11555:11570   */\n      revert\n        /* \"#utility.yul\":11582:11762   */\n    tag_178:\n        /* \"#utility.yul\":11630:11707   */\n      0x4e487b7100000000000000000000000000000000000000000000000000000000\n        /* \"#utility.yul\":11627:11628   */\n      0x00\n        /* \"#utility.yul\":11620:11708   */\n      mstore\n        /* \"#utility.yul\":11727:11731   */\n      0x41\n        /* \"#utility.yul\":11724:11725   */\n      0x04\n        /* \"#utility.yul\":11717:11732   */\n      mstore\n        /* \"#utility.yul\":11751:11755   */\n      0x24\n        /* \"#utility.yul\":11748:11749   */\n      0x00\n        /* \"#utility.yul\":11741:11756   */\n      revert\n        /* \"#utility.yul\":11768:11885   */\n    tag_86:\n        /* \"#utility.yul\":11877:11878   */\n      0x00\n        /* \"#utility.yul\":11874:11875   */\n      dup1\n        /* \"#utility.yul\":11867:11879   */\n      revert\n        /* \"#utility.yul\":11891:12008   */\n    tag_79:\n        /* \"#utility.yul\":12000:12001   */\n      0x00\n        /* \"#utility.yul\":11997:11998   */\n      dup1\n        /* \"#utility.yul\":11990:12002   */\n      revert\n        /* \"#utility.yul\":12014:12131   */\n    tag_98:\n        /* \"#utility.yul\":12123:12124   */\n      0x00\n        /* \"#utility.yul\":12120:12121   */\n      dup1\n        /* \"#utility.yul\":12113:12125   */\n      revert\n        /* \"#utility.yul\":12137:12254   */\n    tag_95:\n        /* \"#utility.yul\":12246:12247   */\n      0x00\n        /* \"#utility.yul\":12243:12244   */\n      dup1\n        /* \"#utility.yul\":12236:12248   */\n      revert\n        /* \"#utility.yul\":12260:12362   */\n    tag_126:\n        /* \"#utility.yul\":12301:12307   */\n      0x00\n        /* \"#utility.yul\":12352:12354   */\n      0x1f\n        /* \"#utility.yul\":12348:12355   */\n      not\n        /* \"#utility.yul\":12343:12345   */\n      0x1f\n        /* \"#utility.yul\":12336:12341   */\n      dup4\n        /* \"#utility.yul\":12332:12346   */\n      add\n        /* \"#utility.yul\":12328:12356   */\n      and\n        /* \"#utility.yul\":12318:12356   */\n      swap1\n      pop\n        /* \"#utility.yul\":12260:12362   */\n      swap2\n      swap1\n      pop\n      jump\t// out\n        /* \"#utility.yul\":12368:12482   */\n    tag_143:\n      pop\n      jump\t// out\n        /* \"#utility.yul\":12488:12610   */\n    tag_91:\n        /* \"#utility.yul\":12561:12585   */\n      tag_219\n        /* \"#utility.yul\":12579:12584   */\n      dup2\n        /* \"#utility.yul\":12561:12585   */\n      tag_147\n      jump\t// in\n    tag_219:\n        /* \"#utility.yul\":12554:12559   */\n      dup2\n        /* \"#utility.yul\":12551:12586   */\n      eq\n        /* \"#utility.yul\":12541:12604   */\n      tag_220\n      jumpi\n        /* \"#utility.yul\":12600:12601   */\n      0x00\n        /* \"#utility.yul\":12597:12598   */\n      dup1\n        /* \"#utility.yul\":12590:12602   */\n      revert\n        /* \"#utility.yul\":12541:12604   */\n    tag_220:\n        /* \"#utility.yul\":12488:12610   */\n      pop\n      jump\t// out\n\n    auxdata: 0xa26469706673582212200bcd8fef64d9460c1d40680dae3e790ba186a2f9259ca883d36daa5b7b5551c964736f6c63430008070033\n}\n",
				"bytecode": {
					"linkReferences": {},
					"object": "608060405234801561001057600080fd5b50610cd3806100206000396000f3fe608060405234801561001057600080fd5b50600436106100415760003560e01c80633f22dab314610046578063b9db15b414610062578063dfe00c5114610097575b600080fd5b610060600480360381019061005b91906106e5565b6100b3565b005b61007c600480360381019061007791906106b8565b610168565b60405161008e9695949392919061088b565b60405180910390f35b6100b160048036038101906100ac919061066f565b6103e7565b005b60008060008681526020019081526020016000209050838160020190805190602001906100e1929190610547565b50828160030190805190602001906100fa929190610547565b5081816004019080519060200190610113929190610547565b504281600501819055507f16837f0c0323c37bc048f73d6d9866f14abfc89942ea9f6b8d8e3321c175539a8582600101868686426040516101599695949392919061097f565b60405180910390a15050505050565b6000606080606080600080600080898152602001908152602001600020905080600001548160010182600201836003018460040185600501548480546101ad90610b25565b80601f01602080910402602001604051908101604052809291908181526020018280546101d990610b25565b80156102265780601f106101fb57610100808354040283529160200191610226565b820191906000526020600020905b81548152906001019060200180831161020957829003601f168201915b5050505050945083805461023990610b25565b80601f016020809104026020016040519081016040528092919081815260200182805461026590610b25565b80156102b25780601f10610287576101008083540402835291602001916102b2565b820191906000526020600020905b81548152906001019060200180831161029557829003601f168201915b505050505093508280546102c590610b25565b80601f01602080910402602001604051908101604052809291908181526020018280546102f190610b25565b801561033e5780601f106103135761010080835404028352916020019161033e565b820191906000526020600020905b81548152906001019060200180831161032157829003601f168201915b5050505050925081805461035190610b25565b80601f016020809104026020016040519081016040528092919081815260200182805461037d90610b25565b80156103ca5780601f1061039f576101008083540402835291602001916103ca565b820191906000526020600020905b8154815290600101906020018083116103ad57829003601f168201915b505050505091509650965096509650965096505091939550919395565b6000600180546103f79190610a83565b90506040518060c001604052808281526020018381526020016040518060200160405280600081525081526020016040518060200160405280600081525081526020016040518060200160405280600081525081526020014281525060008083815260200190815260200160002060008201518160000155602082015181600101908051906020019061048b929190610547565b5060408201518160020190805190602001906104a8929190610547565b5060608201518160030190805190602001906104c5929190610547565b5060808201518160040190805190602001906104e2929190610547565b5060a082015181600501559050506001600081548092919061050390610b88565b91905055507f16837f0c0323c37bc048f73d6d9866f14abfc89942ea9f6b8d8e3321c175539a81834260405161053b93929190610908565b60405180910390a15050565b82805461055390610b25565b90600052602060002090601f01602090048101928261057557600085556105bc565b82601f1061058e57805160ff19168380011785556105bc565b828001600101855582156105bc579182015b828111156105bb5782518255916020019190600101906105a0565b5b5090506105c991906105cd565b5090565b5b808211156105e65760008160009055506001016105ce565b5090565b60006105fd6105f884610a21565b6109fc565b90508281526020810184848401111561061957610618610c63565b5b610624848285610ae3565b509392505050565b600082601f83011261064157610640610c5e565b5b81356106518482602086016105ea565b91505092915050565b60008135905061066981610c86565b92915050565b60006020828403121561068557610684610c6d565b5b600082013567ffffffffffffffff8111156106a3576106a2610c68565b5b6106af8482850161062c565b91505092915050565b6000602082840312156106ce576106cd610c6d565b5b60006106dc8482850161065a565b91505092915050565b600080600080608085870312156106ff576106fe610c6d565b5b600061070d8782880161065a565b945050602085013567ffffffffffffffff81111561072e5761072d610c68565b5b61073a8782880161062c565b935050604085013567ffffffffffffffff81111561075b5761075a610c68565b5b6107678782880161062c565b925050606085013567ffffffffffffffff81111561078857610787610c68565b5b6107948782880161062c565b91505092959194509250565b60006107ab82610a67565b6107b58185610a72565b93506107c5818560208601610af2565b6107ce81610c72565b840191505092915050565b600081546107e681610b25565b6107f08186610a72565b9450600182166000811461080b576001811461081d57610850565b60ff1983168652602086019350610850565b61082685610a52565b60005b8381101561084857815481890152600182019150602081019050610829565b808801955050505b50505092915050565b6000610866600083610a72565b915061087182610c83565b600082019050919050565b61088581610ad9565b82525050565b600060c0820190506108a0600083018961087c565b81810360208301526108b281886107a0565b905081810360408301526108c681876107a0565b905081810360608301526108da81866107a0565b905081810360808301526108ee81856107a0565b90506108fd60a083018461087c565b979650505050505050565b600060c08201905061091d600083018661087c565b818103602083015261092f81856107a0565b9050818103604083015261094281610859565b9050818103606083015261095581610859565b9050818103608083015261096881610859565b905061097760a083018461087c565b949350505050565b600060c082019050610994600083018961087c565b81810360208301526109a681886107d9565b905081810360408301526109ba81876107a0565b905081810360608301526109ce81866107a0565b905081810360808301526109e281856107a0565b90506109f160a083018461087c565b979650505050505050565b6000610a06610a17565b9050610a128282610b57565b919050565b6000604051905090565b600067ffffffffffffffff821115610a3c57610a3b610c2f565b5b610a4582610c72565b9050602081019050919050565b60008190508160005260206000209050919050565b600081519050919050565b600082825260208201905092915050565b6000610a8e82610ad9565b9150610a9983610ad9565b9250827fffffffffffffffffffffffffffffffffffffffffffffffffffffffffffffffff03821115610ace57610acd610bd1565b5b828201905092915050565b6000819050919050565b82818337600083830152505050565b60005b83811015610b10578082015181840152602081019050610af5565b83811115610b1f576000848401525b50505050565b60006002820490506001821680610b3d57607f821691505b60208210811415610b5157610b50610c00565b5b50919050565b610b6082610c72565b810181811067ffffffffffffffff82111715610b7f57610b7e610c2f565b5b80604052505050565b6000610b9382610ad9565b91507fffffffffffffffffffffffffffffffffffffffffffffffffffffffffffffffff821415610bc657610bc5610bd1565b5b600182019050919050565b7f4e487b7100000000000000000000000000000000000000000000000000000000600052601160045260246000fd5b7f4e487b7100000000000000000000000000000000000000000000000000000000600052602260045260246000fd5b7f4e487b7100000000000000000000000000000000000000000000000000000000600052604160045260246000fd5b600080fd5b600080fd5b600080fd5b600080fd5b6000601f19601f8301169050919050565b50565b610c8f81610ad9565b8114610c9a57600080fd5b5056fea26469706673582212200bcd8fef64d9460c1d40680dae3e790ba186a2f9259ca883d36daa5b7b5551c964736f6c63430008070033",
					"opcodes": "PUSH1 0x80 PUSH1 0x40 MSTORE CALLVALUE DUP1 ISZERO PUSH2 0x10 JUMPI PUSH1 0x0 DUP1 REVERT JUMPDEST POP PUSH2 0xCD3 DUP1 PUSH2 0x20 PUSH1 0x0 CODECOPY PUSH1 0x0 RETURN INVALID PUSH1 0x80 PUSH1 0x40 MSTORE CALLVALUE DUP1 ISZERO PUSH2 0x10 JUMPI PUSH1 0x0 DUP1 REVERT JUMPDEST POP PUSH1 0x4 CALLDATASIZE LT PUSH2 0x41 JUMPI PUSH1 0x0 CALLDATALOAD PUSH1 0xE0 SHR DUP1 PUSH4 0x3F22DAB3 EQ PUSH2 0x46 JUMPI DUP1 PUSH4 0xB9DB15B4 EQ PUSH2 0x62 JUMPI DUP1 PUSH4 0xDFE00C51 EQ PUSH2 0x97 JUMPI JUMPDEST PUSH1 0x0 DUP1 REVERT JUMPDEST PUSH2 0x60 PUSH1 0x4 DUP1 CALLDATASIZE SUB DUP2 ADD SWAP1 PUSH2 0x5B SWAP2 SWAP1 PUSH2 0x6E5 JUMP JUMPDEST PUSH2 0xB3 JUMP JUMPDEST STOP JUMPDEST PUSH2 0x7C PUSH1 0x4 DUP1 CALLDATASIZE SUB DUP2 ADD SWAP1 PUSH2 0x77 SWAP2 SWAP1 PUSH2 0x6B8 JUMP JUMPDEST PUSH2 0x168 JUMP JUMPDEST PUSH1 0x40 MLOAD PUSH2 0x8E SWAP7 SWAP6 SWAP5 SWAP4 SWAP3 SWAP2 SWAP1 PUSH2 0x88B JUMP JUMPDEST PUSH1 0x40 MLOAD DUP1 SWAP2 SUB SWAP1 RETURN JUMPDEST PUSH2 0xB1 PUSH1 0x4 DUP1 CALLDATASIZE SUB DUP2 ADD SWAP1 PUSH2 0xAC SWAP2 SWAP1 PUSH2 0x66F JUMP JUMPDEST PUSH2 0x3E7 JUMP JUMPDEST STOP JUMPDEST PUSH1 0x0 DUP1 PUSH1 0x0 DUP7 DUP2 MSTORE PUSH1 0x20 ADD SWAP1 DUP2 MSTORE PUSH1 0x20 ADD PUSH1 0x0 KECCAK256 SWAP1 POP DUP4 DUP2 PUSH1 0x2 ADD SWAP1 DUP1 MLOAD SWAP1 PUSH1 0x20 ADD SWAP1 PUSH2 0xE1 SWAP3 SWAP2 SWAP1 PUSH2 0x547 JUMP JUMPDEST POP DUP3 DUP2 PUSH1 0x3 ADD SWAP1 DUP1 MLOAD SWAP1 PUSH1 0x20 ADD SWAP1 PUSH2 0xFA SWAP3 SWAP2 SWAP1 PUSH2 0x547 JUMP JUMPDEST POP DUP2 DUP2 PUSH1 0x4 ADD SWAP1 DUP1 MLOAD SWAP1 PUSH1 0x20 ADD SWAP1 PUSH2 0x113 SWAP3 SWAP2 SWAP1 PUSH2 0x547 JUMP JUMPDEST POP TIMESTAMP DUP2 PUSH1 0x5 ADD DUP2 SWAP1 SSTORE POP PUSH32 0x16837F0C0323C37BC048F73D6D9866F14ABFC89942EA9F6B8D8E3321C175539A DUP6 DUP3 PUSH1 0x1 ADD DUP7 DUP7 DUP7 TIMESTAMP PUSH1 0x40 MLOAD PUSH2 0x159 SWAP7 SWAP6 SWAP5 SWAP4 SWAP3 SWAP2 SWAP1 PUSH2 0x97F JUMP JUMPDEST PUSH1 0x40 MLOAD DUP1 SWAP2 SUB SWAP1 LOG1 POP POP POP POP POP JUMP JUMPDEST PUSH1 0x0 PUSH1 0x60 DUP1 PUSH1 0x60 DUP1 PUSH1 0x0 DUP1 PUSH1 0x0 DUP1 DUP10 DUP2 MSTORE PUSH1 0x20 ADD SWAP1 DUP2 MSTORE PUSH1 0x20 ADD PUSH1 0x0 KECCAK256 SWAP1 POP DUP1 PUSH1 0x0 ADD SLOAD DUP2 PUSH1 0x1 ADD DUP3 PUSH1 0x2 ADD DUP4 PUSH1 0x3 ADD DUP5 PUSH1 0x4 ADD DUP6 PUSH1 0x5 ADD SLOAD DUP5 DUP1 SLOAD PUSH2 0x1AD SWAP1 PUSH2 0xB25 JUMP JUMPDEST DUP1 PUSH1 0x1F ADD PUSH1 0x20 DUP1 SWAP2 DIV MUL PUSH1 0x20 ADD PUSH1 0x40 MLOAD SWAP1 DUP2 ADD PUSH1 0x40 MSTORE DUP1 SWAP3 SWAP2 SWAP1 DUP2 DUP2 MSTORE PUSH1 0x20 ADD DUP3 DUP1 SLOAD PUSH2 0x1D9 SWAP1 PUSH2 0xB25 JUMP JUMPDEST DUP1 ISZERO PUSH2 0x226 JUMPI DUP1 PUSH1 0x1F LT PUSH2 0x1FB JUMPI PUSH2 0x100 DUP1 DUP4 SLOAD DIV MUL DUP4 MSTORE SWAP2 PUSH1 0x20 ADD SWAP2 PUSH2 0x226 JUMP JUMPDEST DUP3 ADD SWAP2 SWAP1 PUSH1 0x0 MSTORE PUSH1 0x20 PUSH1 0x0 KECCAK256 SWAP1 JUMPDEST DUP2 SLOAD DUP2 MSTORE SWAP1 PUSH1 0x1 ADD SWAP1 PUSH1 0x20 ADD DUP1 DUP4 GT PUSH2 0x209 JUMPI DUP3 SWAP1 SUB PUSH1 0x1F AND DUP3 ADD SWAP2 JUMPDEST POP POP POP POP POP SWAP5 POP DUP4 DUP1 SLOAD PUSH2 0x239 SWAP1 PUSH2 0xB25 JUMP JUMPDEST DUP1 PUSH1 0x1F ADD PUSH1 0x20 DUP1 SWAP2 DIV MUL PUSH1 0x20 ADD PUSH1 0x40 MLOAD SWAP1 DUP2 ADD PUSH1 0x40 MSTORE DUP1 SWAP3 SWAP2 SWAP1 DUP2 DUP2 MSTORE PUSH1 0x20 ADD DUP3 DUP1 SLOAD PUSH2 0x265 SWAP1 PUSH2 0xB25 JUMP JUMPDEST DUP1 ISZERO PUSH2 0x2B2 JUMPI DUP1 PUSH1 0x1F LT PUSH2 0x287 JUMPI PUSH2 0x100 DUP1 DUP4 SLOAD DIV MUL DUP4 MSTORE SWAP2 PUSH1 0x20 ADD SWAP2 PUSH2 0x2B2 JUMP JUMPDEST DUP3 ADD SWAP2 SWAP1 PUSH1 0x0 MSTORE PUSH1 0x20 PUSH1 0x0 KECCAK256 SWAP1 JUMPDEST DUP2 SLOAD DUP2 MSTORE SWAP1 PUSH1 0x1 ADD SWAP1 PUSH1 0x20 ADD DUP1 DUP4 GT PUSH2 0x295 JUMPI DUP3 SWAP1 SUB PUSH1 0x1F AND DUP3 ADD SWAP2 JUMPDEST POP POP POP POP POP SWAP4 POP DUP3 DUP1 SLOAD PUSH2 0x2C5 SWAP1 PUSH2 0xB25 JUMP JUMPDEST DUP1 PUSH1 0x1F ADD PUSH1 0x20 DUP1 SWAP2 DIV MUL PUSH1 0x20 ADD PUSH1 0x40 MLOAD SWAP1 DUP2 ADD PUSH1 0x40 MSTORE DUP1 SWAP3 SWAP2 SWAP1 DUP2 DUP2 MSTORE PUSH1 0x20 ADD DUP3 DUP1 SLOAD PUSH2 0x2F1 SWAP1 PUSH2 0xB25 JUMP JUMPDEST DUP1 ISZERO PUSH2 0x33E JUMPI DUP1 PUSH1 0x1F LT PUSH2 0x313 JUMPI PUSH2 0x100 DUP1 DUP4 SLOAD DIV MUL DUP4 MSTORE SWAP2 PUSH1 0x20 ADD SWAP2 PUSH2 0x33E JUMP JUMPDEST DUP3 ADD SWAP2 SWAP1 PUSH1 0x0 MSTORE PUSH1 0x20 PUSH1 0x0 KECCAK256 SWAP1 JUMPDEST DUP2 SLOAD DUP2 MSTORE SWAP1 PUSH1 0x1 ADD SWAP1 PUSH1 0x20 ADD DUP1 DUP4 GT PUSH2 0x321 JUMPI DUP3 SWAP1 SUB PUSH1 0x1F AND DUP3 ADD SWAP2 JUMPDEST POP POP POP POP POP SWAP3 POP DUP2 DUP1 SLOAD PUSH2 0x351 SWAP1 PUSH2 0xB25 JUMP JUMPDEST DUP1 PUSH1 0x1F ADD PUSH1 0x20 DUP1 SWAP2 DIV MUL PUSH1 0x20 ADD PUSH1 0x40 MLOAD SWAP1 DUP2 ADD PUSH1 0x40 MSTORE DUP1 SWAP3 SWAP2 SWAP1 DUP2 DUP2 MSTORE PUSH1 0x20 ADD DUP3 DUP1 SLOAD PUSH2 0x37D SWAP1 PUSH2 0xB25 JUMP JUMPDEST DUP1 ISZERO PUSH2 0x3CA JUMPI DUP1 PUSH1 0x1F LT PUSH2 0x39F JUMPI PUSH2 0x100 DUP1 DUP4 SLOAD DIV MUL DUP4 MSTORE SWAP2 PUSH1 0x20 ADD SWAP2 PUSH2 0x3CA JUMP JUMPDEST DUP3 ADD SWAP2 SWAP1 PUSH1 0x0 MSTORE PUSH1 0x20 PUSH1 0x0 KECCAK256 SWAP1 JUMPDEST DUP2 SLOAD DUP2 MSTORE SWAP1 PUSH1 0x1 ADD SWAP1 PUSH1 0x20 ADD DUP1 DUP4 GT PUSH2 0x3AD JUMPI DUP3 SWAP1 SUB PUSH1 0x1F AND DUP3 ADD SWAP2 JUMPDEST POP POP POP POP POP SWAP2 POP SWAP7 POP SWAP7 POP SWAP7 POP SWAP7 POP SWAP7 POP SWAP7 POP POP SWAP2 SWAP4 SWAP6 POP SWAP2 SWAP4 SWAP6 JUMP JUMPDEST PUSH1 0x0 PUSH1 0x1 DUP1 SLOAD PUSH2 0x3F7 SWAP2 SWAP1 PUSH2 0xA83 JUMP JUMPDEST SWAP1 POP PUSH1 0x40 MLOAD DUP1 PUSH1 0xC0 ADD PUSH1 0x40 MSTORE DUP1 DUP3 DUP2 MSTORE PUSH1 0x20 ADD DUP4 DUP2 MSTORE PUSH1 0x20 ADD PUSH1 0x40 MLOAD DUP1 PUSH1 0x20 ADD PUSH1 0x40 MSTORE DUP1 PUSH1 0x0 DUP2 MSTORE POP DUP2 MSTORE PUSH1 0x20 ADD PUSH1 0x40 MLOAD DUP1 PUSH1 0x20 ADD PUSH1 0x40 MSTORE DUP1 PUSH1 0x0 DUP2 MSTORE POP DUP2 MSTORE PUSH1 0x20 ADD PUSH1 0x40 MLOAD DUP1 PUSH1 0x20 ADD PUSH1 0x40 MSTORE DUP1 PUSH1 0x0 DUP2 MSTORE POP DUP2 MSTORE PUSH1 0x20 ADD TIMESTAMP DUP2 MSTORE POP PUSH1 0x0 DUP1 DUP4 DUP2 MSTORE PUSH1 0x20 ADD SWAP1 DUP2 MSTORE PUSH1 0x20 ADD PUSH1 0x0 KECCAK256 PUSH1 0x0 DUP3 ADD MLOAD DUP2 PUSH1 0x0 ADD SSTORE PUSH1 0x20 DUP3 ADD MLOAD DUP2 PUSH1 0x1 ADD SWAP1 DUP1 MLOAD SWAP1 PUSH1 0x20 ADD SWAP1 PUSH2 0x48B SWAP3 SWAP2 SWAP1 PUSH2 0x547 JUMP JUMPDEST POP PUSH1 0x40 DUP3 ADD MLOAD DUP2 PUSH1 0x2 ADD SWAP1 DUP1 MLOAD SWAP1 PUSH1 0x20 ADD SWAP1 PUSH2 0x4A8 SWAP3 SWAP2 SWAP1 PUSH2 0x547 JUMP JUMPDEST POP PUSH1 0x60 DUP3 ADD MLOAD DUP2 PUSH1 0x3 ADD SWAP1 DUP1 MLOAD SWAP1 PUSH1 0x20 ADD SWAP1 PUSH2 0x4C5 SWAP3 SWAP2 SWAP1 PUSH2 0x547 JUMP JUMPDEST POP PUSH1 0x80 DUP3 ADD MLOAD DUP2 PUSH1 0x4 ADD SWAP1 DUP1 MLOAD SWAP1 PUSH1 0x20 ADD SWAP1 PUSH2 0x4E2 SWAP3 SWAP2 SWAP1 PUSH2 0x547 JUMP JUMPDEST POP PUSH1 0xA0 DUP3 ADD MLOAD DUP2 PUSH1 0x5 ADD SSTORE SWAP1 POP POP PUSH1 0x1 PUSH1 0x0 DUP2 SLOAD DUP1 SWAP3 SWAP2 SWAP1 PUSH2 0x503 SWAP1 PUSH2 0xB88 JUMP JUMPDEST SWAP2 SWAP1 POP SSTORE POP PUSH32 0x16837F0C0323C37BC048F73D6D9866F14ABFC89942EA9F6B8D8E3321C175539A DUP2 DUP4 TIMESTAMP PUSH1 0x40 MLOAD PUSH2 0x53B SWAP4 SWAP3 SWAP2 SWAP1 PUSH2 0x908 JUMP JUMPDEST PUSH1 0x40 MLOAD DUP1 SWAP2 SUB SWAP1 LOG1 POP POP JUMP JUMPDEST DUP3 DUP1 SLOAD PUSH2 0x553 SWAP1 PUSH2 0xB25 JUMP JUMPDEST SWAP1 PUSH1 0x0 MSTORE PUSH1 0x20 PUSH1 0x0 KECCAK256 SWAP1 PUSH1 0x1F ADD PUSH1 0x20 SWAP1 DIV DUP2 ADD SWAP3 DUP3 PUSH2 0x575 JUMPI PUSH1 0x0 DUP6 SSTORE PUSH2 0x5BC JUMP JUMPDEST DUP3 PUSH1 0x1F LT PUSH2 0x58E JUMPI DUP1 MLOAD PUSH1 0xFF NOT AND DUP4 DUP1 ADD OR DUP6 SSTORE PUSH2 0x5BC JUMP JUMPDEST DUP3 DUP1 ADD PUSH1 0x1 ADD DUP6 SSTORE DUP3 ISZERO PUSH2 0x5BC JUMPI SWAP2 DUP3 ADD JUMPDEST DUP3 DUP2 GT ISZERO PUSH2 0x5BB JUMPI DUP3 MLOAD DUP3 SSTORE SWAP2 PUSH1 0x20 ADD SWAP2 SWAP1 PUSH1 0x1 ADD SWAP1 PUSH2 0x5A0 JUMP JUMPDEST JUMPDEST POP SWAP1 POP PUSH2 0x5C9 SWAP2 SWAP1 PUSH2 0x5CD JUMP JUMPDEST POP SWAP1 JUMP JUMPDEST JUMPDEST DUP1 DUP3 GT ISZERO PUSH2 0x5E6 JUMPI PUSH1 0x0 DUP2 PUSH1 0x0 SWAP1 SSTORE POP PUSH1 0x1 ADD PUSH2 0x5CE JUMP JUMPDEST POP SWAP1 JUMP JUMPDEST PUSH1 0x0 PUSH2 0x5FD PUSH2 0x5F8 DUP5 PUSH2 0xA21 JUMP JUMPDEST PUSH2 0x9FC JUMP JUMPDEST SWAP1 POP DUP3 DUP2 MSTORE PUSH1 0x20 DUP2 ADD DUP5 DUP5 DUP5 ADD GT ISZERO PUSH2 0x619 JUMPI PUSH2 0x618 PUSH2 0xC63 JUMP JUMPDEST JUMPDEST PUSH2 0x624 DUP5 DUP3 DUP6 PUSH2 0xAE3 JUMP JUMPDEST POP SWAP4 SWAP3 POP POP POP JUMP JUMPDEST PUSH1 0x0 DUP3 PUSH1 0x1F DUP4 ADD SLT PUSH2 0x641 JUMPI PUSH2 0x640 PUSH2 0xC5E JUMP JUMPDEST JUMPDEST DUP2 CALLDATALOAD PUSH2 0x651 DUP5 DUP3 PUSH1 0x20 DUP7 ADD PUSH2 0x5EA JUMP JUMPDEST SWAP2 POP POP SWAP3 SWAP2 POP POP JUMP JUMPDEST PUSH1 0x0 DUP2 CALLDATALOAD SWAP1 POP PUSH2 0x669 DUP2 PUSH2 0xC86 JUMP JUMPDEST SWAP3 SWAP2 POP POP JUMP JUMPDEST PUSH1 0x0 PUSH1 0x20 DUP3 DUP5 SUB SLT ISZERO PUSH2 0x685 JUMPI PUSH2 0x684 PUSH2 0xC6D JUMP JUMPDEST JUMPDEST PUSH1 0x0 DUP3 ADD CALLDATALOAD PUSH8 0xFFFFFFFFFFFFFFFF DUP2 GT ISZERO PUSH2 0x6A3 JUMPI PUSH2 0x6A2 PUSH2 0xC68 JUMP JUMPDEST JUMPDEST PUSH2 0x6AF DUP5 DUP3 DUP6 ADD PUSH2 0x62C JUMP JUMPDEST SWAP2 POP POP SWAP3 SWAP2 POP POP JUMP JUMPDEST PUSH1 0x0 PUSH1 0x20 DUP3 DUP5 SUB SLT ISZERO PUSH2 0x6CE JUMPI PUSH2 0x6CD PUSH2 0xC6D JUMP JUMPDEST JUMPDEST PUSH1 0x0 PUSH2 0x6DC DUP5 DUP3 DUP6 ADD PUSH2 0x65A JUMP JUMPDEST SWAP2 POP POP SWAP3 SWAP2 POP POP JUMP JUMPDEST PUSH1 0x0 DUP1 PUSH1 0x0 DUP1 PUSH1 0x80 DUP6 DUP8 SUB SLT ISZERO PUSH2 0x6FF JUMPI PUSH2 0x6FE PUSH2 0xC6D JUMP JUMPDEST JUMPDEST PUSH1 0x0 PUSH2 0x70D DUP8 DUP3 DUP9 ADD PUSH2 0x65A JUMP JUMPDEST SWAP5 POP POP PUSH1 0x20 DUP6 ADD CALLDATALOAD PUSH8 0xFFFFFFFFFFFFFFFF DUP2 GT ISZERO PUSH2 0x72E JUMPI PUSH2 0x72D PUSH2 0xC68 JUMP JUMPDEST JUMPDEST PUSH2 0x73A DUP8 DUP3 DUP9 ADD PUSH2 0x62C JUMP JUMPDEST SWAP4 POP POP PUSH1 0x40 DUP6 ADD CALLDATALOAD PUSH8 0xFFFFFFFFFFFFFFFF DUP2 GT ISZERO PUSH2 0x75B JUMPI PUSH2 0x75A PUSH2 0xC68 JUMP JUMPDEST JUMPDEST PUSH2 0x767 DUP8 DUP3 DUP9 ADD PUSH2 0x62C JUMP JUMPDEST SWAP3 POP POP PUSH1 0x60 DUP6 ADD CALLDATALOAD PUSH8 0xFFFFFFFFFFFFFFFF DUP2 GT ISZERO PUSH2 0x788 JUMPI PUSH2 0x787 PUSH2 0xC68 JUMP JUMPDEST JUMPDEST PUSH2 0x794 DUP8 DUP3 DUP9 ADD PUSH2 0x62C JUMP JUMPDEST SWAP2 POP POP SWAP3 SWAP6 SWAP2 SWAP5 POP SWAP3 POP JUMP JUMPDEST PUSH1 0x0 PUSH2 0x7AB DUP3 PUSH2 0xA67 JUMP JUMPDEST PUSH2 0x7B5 DUP2 DUP6 PUSH2 0xA72 JUMP JUMPDEST SWAP4 POP PUSH2 0x7C5 DUP2 DUP6 PUSH1 0x20 DUP7 ADD PUSH2 0xAF2 JUMP JUMPDEST PUSH2 0x7CE DUP2 PUSH2 0xC72 JUMP JUMPDEST DUP5 ADD SWAP2 POP POP SWAP3 SWAP2 POP POP JUMP JUMPDEST PUSH1 0x0 DUP2 SLOAD PUSH2 0x7E6 DUP2 PUSH2 0xB25 JUMP JUMPDEST PUSH2 0x7F0 DUP2 DUP7 PUSH2 0xA72 JUMP JUMPDEST SWAP5 POP PUSH1 0x1 DUP3 AND PUSH1 0x0 DUP2 EQ PUSH2 0x80B JUMPI PUSH1 0x1 DUP2 EQ PUSH2 0x81D JUMPI PUSH2 0x850 JUMP JUMPDEST PUSH1 0xFF NOT DUP4 AND DUP7 MSTORE PUSH1 0x20 DUP7 ADD SWAP4 POP PUSH2 0x850 JUMP JUMPDEST PUSH2 0x826 DUP6 PUSH2 0xA52 JUMP JUMPDEST PUSH1 0x0 JUMPDEST DUP4 DUP2 LT ISZERO PUSH2 0x848 JUMPI DUP2 SLOAD DUP2 DUP10 ADD MSTORE PUSH1 0x1 DUP3 ADD SWAP2 POP PUSH1 0x20 DUP2 ADD SWAP1 POP PUSH2 0x829 JUMP JUMPDEST DUP1 DUP9 ADD SWAP6 POP POP POP JUMPDEST POP POP POP SWAP3 SWAP2 POP POP JUMP JUMPDEST PUSH1 0x0 PUSH2 0x866 PUSH1 0x0 DUP4 PUSH2 0xA72 JUMP JUMPDEST SWAP2 POP PUSH2 0x871 DUP3 PUSH2 0xC83 JUMP JUMPDEST PUSH1 0x0 DUP3 ADD SWAP1 POP SWAP2 SWAP1 POP JUMP JUMPDEST PUSH2 0x885 DUP2 PUSH2 0xAD9 JUMP JUMPDEST DUP3 MSTORE POP POP JUMP JUMPDEST PUSH1 0x0 PUSH1 0xC0 DUP3 ADD SWAP1 POP PUSH2 0x8A0 PUSH1 0x0 DUP4 ADD DUP10 PUSH2 0x87C JUMP JUMPDEST DUP2 DUP2 SUB PUSH1 0x20 DUP4 ADD MSTORE PUSH2 0x8B2 DUP2 DUP9 PUSH2 0x7A0 JUMP JUMPDEST SWAP1 POP DUP2 DUP2 SUB PUSH1 0x40 DUP4 ADD MSTORE PUSH2 0x8C6 DUP2 DUP8 PUSH2 0x7A0 JUMP JUMPDEST SWAP1 POP DUP2 DUP2 SUB PUSH1 0x60 DUP4 ADD MSTORE PUSH2 0x8DA DUP2 DUP7 PUSH2 0x7A0 JUMP JUMPDEST SWAP1 POP DUP2 DUP2 SUB PUSH1 0x80 DUP4 ADD MSTORE PUSH2 0x8EE DUP2 DUP6 PUSH2 0x7A0 JUMP JUMPDEST SWAP1 POP PUSH2 0x8FD PUSH1 0xA0 DUP4 ADD DUP5 PUSH2 0x87C JUMP JUMPDEST SWAP8 SWAP7 POP POP POP POP POP POP POP JUMP JUMPDEST PUSH1 0x0 PUSH1 0xC0 DUP3 ADD SWAP1 POP PUSH2 0x91D PUSH1 0x0 DUP4 ADD DUP7 PUSH2 0x87C JUMP JUMPDEST DUP2 DUP2 SUB PUSH1 0x20 DUP4 ADD MSTORE PUSH2 0x92F DUP2 DUP6 PUSH2 0x7A0 JUMP JUMPDEST SWAP1 POP DUP2 DUP2 SUB PUSH1 0x40 DUP4 ADD MSTORE PUSH2 0x942 DUP2 PUSH2 0x859 JUMP JUMPDEST SWAP1 POP DUP2 DUP2 SUB PUSH1 0x60 DUP4 ADD MSTORE PUSH2 0x955 DUP2 PUSH2 0x859 JUMP JUMPDEST SWAP1 POP DUP2 DUP2 SUB PUSH1 0x80 DUP4 ADD MSTORE PUSH2 0x968 DUP2 PUSH2 0x859 JUMP JUMPDEST SWAP1 POP PUSH2 0x977 PUSH1 0xA0 DUP4 ADD DUP5 PUSH2 0x87C JUMP JUMPDEST SWAP5 SWAP4 POP POP POP POP JUMP JUMPDEST PUSH1 0x0 PUSH1 0xC0 DUP3 ADD SWAP1 POP PUSH2 0x994 PUSH1 0x0 DUP4 ADD DUP10 PUSH2 0x87C JUMP JUMPDEST DUP2 DUP2 SUB PUSH1 0x20 DUP4 ADD MSTORE PUSH2 0x9A6 DUP2 DUP9 PUSH2 0x7D9 JUMP JUMPDEST SWAP1 POP DUP2 DUP2 SUB PUSH1 0x40 DUP4 ADD MSTORE PUSH2 0x9BA DUP2 DUP8 PUSH2 0x7A0 JUMP JUMPDEST SWAP1 POP DUP2 DUP2 SUB PUSH1 0x60 DUP4 ADD MSTORE PUSH2 0x9CE DUP2 DUP7 PUSH2 0x7A0 JUMP JUMPDEST SWAP1 POP DUP2 DUP2 SUB PUSH1 0x80 DUP4 ADD MSTORE PUSH2 0x9E2 DUP2 DUP6 PUSH2 0x7A0 JUMP JUMPDEST SWAP1 POP PUSH2 0x9F1 PUSH1 0xA0 DUP4 ADD DUP5 PUSH2 0x87C JUMP JUMPDEST SWAP8 SWAP7 POP POP POP POP POP POP POP JUMP JUMPDEST PUSH1 0x0 PUSH2 0xA06 PUSH2 0xA17 JUMP JUMPDEST SWAP1 POP PUSH2 0xA12 DUP3 DUP3 PUSH2 0xB57 JUMP JUMPDEST SWAP2 SWAP1 POP JUMP JUMPDEST PUSH1 0x0 PUSH1 0x40 MLOAD SWAP1 POP SWAP1 JUMP JUMPDEST PUSH1 0x0 PUSH8 0xFFFFFFFFFFFFFFFF DUP3 GT ISZERO PUSH2 0xA3C JUMPI PUSH2 0xA3B PUSH2 0xC2F JUMP JUMPDEST JUMPDEST PUSH2 0xA45 DUP3 PUSH2 0xC72 JUMP JUMPDEST SWAP1 POP PUSH1 0x20 DUP2 ADD SWAP1 POP SWAP2 SWAP1 POP JUMP JUMPDEST PUSH1 0x0 DUP2 SWAP1 POP DUP2 PUSH1 0x0 MSTORE PUSH1 0x20 PUSH1 0x0 KECCAK256 SWAP1 POP SWAP2 SWAP1 POP JUMP JUMPDEST PUSH1 0x0 DUP2 MLOAD SWAP1 POP SWAP2 SWAP1 POP JUMP JUMPDEST PUSH1 0x0 DUP3 DUP3 MSTORE PUSH1 0x20 DUP3 ADD SWAP1 POP SWAP3 SWAP2 POP POP JUMP JUMPDEST PUSH1 0x0 PUSH2 0xA8E DUP3 PUSH2 0xAD9 JUMP JUMPDEST SWAP2 POP PUSH2 0xA99 DUP4 PUSH2 0xAD9 JUMP JUMPDEST SWAP3 POP DUP3 PUSH32 0xFFFFFFFFFFFFFFFFFFFFFFFFFFFFFFFFFFFFFFFFFFFFFFFFFFFFFFFFFFFFFFFF SUB DUP3 GT ISZERO PUSH2 0xACE JUMPI PUSH2 0xACD PUSH2 0xBD1 JUMP JUMPDEST JUMPDEST DUP3 DUP3 ADD SWAP1 POP SWAP3 SWAP2 POP POP JUMP JUMPDEST PUSH1 0x0 DUP2 SWAP1 POP SWAP2 SWAP1 POP JUMP JUMPDEST DUP3 DUP2 DUP4 CALLDATACOPY PUSH1 0x0 DUP4 DUP4 ADD MSTORE POP POP POP JUMP JUMPDEST PUSH1 0x0 JUMPDEST DUP4 DUP2 LT ISZERO PUSH2 0xB10 JUMPI DUP1 DUP3 ADD MLOAD DUP2 DUP5 ADD MSTORE PUSH1 0x20 DUP2 ADD SWAP1 POP PUSH2 0xAF5 JUMP JUMPDEST DUP4 DUP2 GT ISZERO PUSH2 0xB1F JUMPI PUSH1 0x0 DUP5 DUP5 ADD MSTORE JUMPDEST POP POP POP POP JUMP JUMPDEST PUSH1 0x0 PUSH1 0x2 DUP3 DIV SWAP1 POP PUSH1 0x1 DUP3 AND DUP1 PUSH2 0xB3D JUMPI PUSH1 0x7F DUP3 AND SWAP2 POP JUMPDEST PUSH1 0x20 DUP3 LT DUP2 EQ ISZERO PUSH2 0xB51 JUMPI PUSH2 0xB50 PUSH2 0xC00 JUMP JUMPDEST JUMPDEST POP SWAP2 SWAP1 POP JUMP JUMPDEST PUSH2 0xB60 DUP3 PUSH2 0xC72 JUMP JUMPDEST DUP2 ADD DUP2 DUP2 LT PUSH8 0xFFFFFFFFFFFFFFFF DUP3 GT OR ISZERO PUSH2 0xB7F JUMPI PUSH2 0xB7E PUSH2 0xC2F JUMP JUMPDEST JUMPDEST DUP1 PUSH1 0x40 MSTORE POP POP POP JUMP JUMPDEST PUSH1 0x0 PUSH2 0xB93 DUP3 PUSH2 0xAD9 JUMP JUMPDEST SWAP2 POP PUSH32 0xFFFFFFFFFFFFFFFFFFFFFFFFFFFFFFFFFFFFFFFFFFFFFFFFFFFFFFFFFFFFFFFF DUP3 EQ ISZERO PUSH2 0xBC6 JUMPI PUSH2 0xBC5 PUSH2 0xBD1 JUMP JUMPDEST JUMPDEST PUSH1 0x1 DUP3 ADD SWAP1 POP SWAP2 SWAP1 POP JUMP JUMPDEST PUSH32 0x4E487B7100000000000000000000000000000000000000000000000000000000 PUSH1 0x0 MSTORE PUSH1 0x11 PUSH1 0x4 MSTORE PUSH1 0x24 PUSH1 0x0 REVERT JUMPDEST PUSH32 0x4E487B7100000000000000000000000000000000000000000000000000000000 PUSH1 0x0 MSTORE PUSH1 0x22 PUSH1 0x4 MSTORE PUSH1 0x24 PUSH1 0x0 REVERT JUMPDEST PUSH32 0x4E487B7100000000000000000000000000000000000000000000000000000000 PUSH1 0x0 MSTORE PUSH1 0x41 PUSH1 0x4 MSTORE PUSH1 0x24 PUSH1 0x0 REVERT JUMPDEST PUSH1 0x0 DUP1 REVERT JUMPDEST PUSH1 0x0 DUP1 REVERT JUMPDEST PUSH1 0x0 DUP1 REVERT JUMPDEST PUSH1 0x0 DUP1 REVERT JUMPDEST PUSH1 0x0 PUSH1 0x1F NOT PUSH1 0x1F DUP4 ADD AND SWAP1 POP SWAP2 SWAP1 POP JUMP JUMPDEST POP JUMP JUMPDEST PUSH2 0xC8F DUP2 PUSH2 0xAD9 JUMP JUMPDEST DUP2 EQ PUSH2 0xC9A JUMPI PUSH1 0x0 DUP1 REVERT JUMPDEST POP JUMP INVALID LOG2 PUSH5 0x6970667358 0x22 SLT KECCAK256 SIGNEXTEND 0xCD DUP16 0xEF PUSH5 0xD9460C1D40 PUSH9 0xDAE3E790BA186A2F9 0x25 SWAP13 0xA8 DUP4 0xD3 PUSH14 0xAA5B7B5551C964736F6C63430008 SMOD STOP CALLER "
				},
				"gasEstimates": {
					"creation": {
						"codeDepositCost": "656600",
						"executionCost": "689",
						"totalCost": "657289"
					},
					"external": {
						"addProduct(string)": "infinite",
						"getProduct(uint256)": "infinite",
						"updateProduct(uint256,string,string,string)": "infinite"
					}
				},
				"methodIdentifiers": {
					"addProduct(string)": "dfe00c51",
					"getProduct(uint256)": "b9db15b4",
					"updateProduct(uint256,string,string,string)": "3f22dab3"
				}
			},
			"storageLayout": {
				"storage": [
					{
						"astId": 19,
						"contract": "contracts/SupplyChain.sol:SupplyChain",
						"label": "products",
						"offset": 0,
						"slot": "0",
						"type": "t_mapping(t_uint256,t_struct(Product)14_storage)"
					},
					{
						"astId": 21,
						"contract": "contracts/SupplyChain.sol:SupplyChain",
						"label": "productCount",
						"offset": 0,
						"slot": "1",
						"type": "t_uint256"
					}
				],
				"types": {
					"t_mapping(t_uint256,t_struct(Product)14_storage)": {
						"encoding": "mapping",
						"key": "t_uint256",
						"label": "mapping(uint256 => struct SupplyChain.Product)",
						"numberOfBytes": "32",
						"value": "t_struct(Product)14_storage"
					},
					"t_string_storage": {
						"encoding": "bytes",
						"label": "string",
						"numberOfBytes": "32"
					},
					"t_struct(Product)14_storage": {
						"encoding": "inplace",
						"label": "struct SupplyChain.Product",
						"members": [
							{
								"astId": 3,
								"contract": "contracts/SupplyChain.sol:SupplyChain",
								"label": "id",
								"offset": 0,
								"slot": "0",
								"type": "t_uint256"
							},
							{
								"astId": 5,
								"contract": "contracts/SupplyChain.sol:SupplyChain",
								"label": "supplier",
								"offset": 0,
								"slot": "1",
								"type": "t_string_storage"
							},
							{
								"astId": 7,
								"contract": "contracts/SupplyChain.sol:SupplyChain",
								"label": "manufacturer",
								"offset": 0,
								"slot": "2",
								"type": "t_string_storage"
							},
							{
								"astId": 9,
								"contract": "contracts/SupplyChain.sol:SupplyChain",
								"label": "distributor",
								"offset": 0,
								"slot": "3",
								"type": "t_string_storage"
							},
							{
								"astId": 11,
								"contract": "contracts/SupplyChain.sol:SupplyChain",
								"label": "retailer",
								"offset": 0,
								"slot": "4",
								"type": "t_string_storage"
							},
							{
								"astId": 13,
								"contract": "contracts/SupplyChain.sol:SupplyChain",
								"label": "timestamp",
								"offset": 0,
								"slot": "5",
								"type": "t_uint256"
							}
						],
						"numberOfBytes": "192"
					},
					"t_uint256": {
						"encoding": "inplace",
						"label": "uint256",
						"numberOfBytes": "32"
					}
				}
			},
			"userdoc": {
				"kind": "user",
				"methods": {},
				"version": 1
			}
		}
	}
}