{
	"contracts/ExampleStrings.sol": {
		"ExampleStrings": {
			"abi": [
				{
					"inputs": [
						{
							"internalType": "string",
							"name": "_myString",
							"type": "string"
						}
					],
					"name": "compareTwoStrings",
					"outputs": [
						{
							"internalType": "bool",
							"name": "",
							"type": "bool"
						}
					],
					"stateMutability": "view",
					"type": "function"
				},
				{
					"inputs": [],
					"name": "myBytes",
					"outputs": [
						{
							"internalType": "bytes",
							"name": "",
							"type": "bytes"
						}
					],
					"stateMutability": "view",
					"type": "function"
				},
				{
					"inputs": [],
					"name": "myString",
					"outputs": [
						{
							"internalType": "string",
							"name": "",
							"type": "string"
						}
					],
					"stateMutability": "view",
					"type": "function"
				},
				{
					"inputs": [
						{
							"internalType": "string",
							"name": "_myString",
							"type": "string"
						}
					],
					"name": "setMyString",
					"outputs": [],
					"stateMutability": "nonpayable",
					"type": "function"
				}
			],
			"devdoc": {
				"kind": "dev",
				"methods": {},
				"version": 1
			},
			"evm": {
				"assembly": "    /* \"contracts/ExampleStrings.sol\":61:468  contract ExampleStrings {\r... */\n  mstore(0x40, 0x80)\n    /* \"contracts/ExampleStrings.sol\":92:130  string public myString = \"Hello World\" */\n  mload(0x40)\n  dup1\n  0x40\n  add\n  0x40\n  mstore\n  dup1\n  0x0b\n  dup2\n  mstore\n  0x20\n  add\n  0x48656c6c6f20576f726c64000000000000000000000000000000000000000000\n  dup2\n  mstore\n  pop\n  0x00\n  swap1\n  dup1\n  mload\n  swap1\n  0x20\n  add\n  swap1\n  tag_1\n  swap3\n  swap2\n  swap1\n  tag_2\n  jump\t// in\ntag_1:\n  pop\n    /* \"contracts/ExampleStrings.sol\":137:173  bytes public myBytes = \"Hello World\" */\n  mload(0x40)\n  dup1\n  0x40\n  add\n  0x40\n  mstore\n  dup1\n  0x0b\n  dup2\n  mstore\n  0x20\n  add\n  0x48656c6c6f20576f726c64000000000000000000000000000000000000000000\n  dup2\n  mstore\n  pop\n  0x01\n  swap1\n  dup1\n  mload\n  swap1\n  0x20\n  add\n  swap1\n  tag_3\n  swap3\n  swap2\n  swap1\n  tag_4\n  jump\t// in\ntag_3:\n  pop\n    /* \"contracts/ExampleStrings.sol\":61:468  contract ExampleStrings {\r... */\n  callvalue\n  dup1\n  iszero\n  tag_5\n  jumpi\n  0x00\n  dup1\n  revert\ntag_5:\n  pop\n  jump(tag_6)\ntag_2:\n  dup3\n  dup1\n  sload\n  tag_7\n  swap1\n  tag_8\n  jump\t// in\ntag_7:\n  swap1\n  0x00\n  mstore\n  keccak256(0x00, 0x20)\n  swap1\n  0x1f\n  add\n  0x20\n  swap1\n  div\n  dup2\n  add\n  swap3\n  dup3\n  tag_10\n  jumpi\n  0x00\n  dup6\n  sstore\n  jump(tag_9)\ntag_10:\n  dup3\n  0x1f\n  lt\n  tag_11\n  jumpi\n  dup1\n  mload\n  not(0xff)\n  and\n  dup4\n  dup1\n  add\n  or\n  dup6\n  sstore\n  jump(tag_9)\ntag_11:\n  dup3\n  dup1\n  add\n  0x01\n  add\n  dup6\n  sstore\n  dup3\n  iszero\n  tag_9\n  jumpi\n  swap2\n  dup3\n  add\ntag_12:\n  dup3\n  dup2\n  gt\n  iszero\n  tag_13\n  jumpi\n  dup3\n  mload\n  dup3\n  sstore\n  swap2\n  0x20\n  add\n  swap2\n  swap1\n  0x01\n  add\n  swap1\n  jump(tag_12)\ntag_13:\ntag_9:\n  pop\n  swap1\n  pop\n  tag_14\n  swap2\n  swap1\n  tag_15\n  jump\t// in\ntag_14:\n  pop\n  swap1\n  jump\t// out\ntag_4:\n  dup3\n  dup1\n  sload\n  tag_16\n  swap1\n  tag_8\n  jump\t// in\ntag_16:\n  swap1\n  0x00\n  mstore\n  keccak256(0x00, 0x20)\n  swap1\n  0x1f\n  add\n  0x20\n  swap1\n  div\n  dup2\n  add\n  swap3\n  dup3\n  tag_18\n  jumpi\n  0x00\n  dup6\n  sstore\n  jump(tag_17)\ntag_18:\n  dup3\n  0x1f\n  lt\n  tag_19\n  jumpi\n  dup1\n  mload\n  not(0xff)\n  and\n  dup4\n  dup1\n  add\n  or\n  dup6\n  sstore\n  jump(tag_17)\ntag_19:\n  dup3\n  dup1\n  add\n  0x01\n  add\n  dup6\n  sstore\n  dup3\n  iszero\n  tag_17\n  jumpi\n  swap2\n  dup3\n  add\ntag_20:\n  dup3\n  dup2\n  gt\n  iszero\n  tag_21\n  jumpi\n  dup3\n  mload\n  dup3\n  sstore\n  swap2\n  0x20\n  add\n  swap2\n  swap1\n  0x01\n  add\n  swap1\n  jump(tag_20)\ntag_21:\ntag_17:\n  pop\n  swap1\n  pop\n  tag_22\n  swap2\n  swap1\n  tag_15\n  jump\t// in\ntag_22:\n  pop\n  swap1\n  jump\t// out\ntag_15:\ntag_23:\n  dup1\n  dup3\n  gt\n  iszero\n  tag_24\n  jumpi\n  0x00\n  dup2\n  0x00\n  swap1\n  sstore\n  pop\n  0x01\n  add\n  jump(tag_23)\ntag_24:\n  pop\n  swap1\n  jump\t// out\n    /* \"#utility.yul\":7:327   */\ntag_8:\n    /* \"#utility.yul\":51:57   */\n  0x00\n    /* \"#utility.yul\":88:89   */\n  0x02\n    /* \"#utility.yul\":82:86   */\n  dup3\n    /* \"#utility.yul\":78:90   */\n  div\n    /* \"#utility.yul\":68:90   */\n  swap1\n  pop\n    /* \"#utility.yul\":135:136   */\n  0x01\n    /* \"#utility.yul\":129:133   */\n  dup3\n    /* \"#utility.yul\":125:137   */\n  and\n    /* \"#utility.yul\":156:174   */\n  dup1\n    /* \"#utility.yul\":146:227   */\n  tag_27\n  jumpi\n    /* \"#utility.yul\":212:216   */\n  0x7f\n    /* \"#utility.yul\":204:210   */\n  dup3\n    /* \"#utility.yul\":200:217   */\n  and\n    /* \"#utility.yul\":190:217   */\n  swap2\n  pop\n    /* \"#utility.yul\":146:227   */\ntag_27:\n    /* \"#utility.yul\":274:276   */\n  0x20\n    /* \"#utility.yul\":266:272   */\n  dup3\n    /* \"#utility.yul\":263:277   */\n  lt\n    /* \"#utility.yul\":243:261   */\n  dup2\n    /* \"#utility.yul\":240:278   */\n  eq\n    /* \"#utility.yul\":237:321   */\n  iszero\n  tag_28\n  jumpi\n    /* \"#utility.yul\":293:311   */\n  tag_29\n  tag_30\n  jump\t// in\ntag_29:\n    /* \"#utility.yul\":237:321   */\ntag_28:\n    /* \"#utility.yul\":58:327   */\n  pop\n    /* \"#utility.yul\":7:327   */\n  swap2\n  swap1\n  pop\n  jump\t// out\n    /* \"#utility.yul\":333:513   */\ntag_30:\n    /* \"#utility.yul\":381:458   */\n  0x4e487b7100000000000000000000000000000000000000000000000000000000\n    /* \"#utility.yul\":378:379   */\n  0x00\n    /* \"#utility.yul\":371:459   */\n  mstore\n    /* \"#utility.yul\":478:482   */\n  0x22\n    /* \"#utility.yul\":475:476   */\n  0x04\n    /* \"#utility.yul\":468:483   */\n  mstore\n    /* \"#utility.yul\":502:506   */\n  0x24\n    /* \"#utility.yul\":499:500   */\n  0x00\n    /* \"#utility.yul\":492:507   */\n  revert\n    /* \"contracts/ExampleStrings.sol\":61:468  contract ExampleStrings {\r... */\ntag_6:\n  dataSize(sub_0)\n  dup1\n  dataOffset(sub_0)\n  0x00\n  codecopy\n  0x00\n  return\nstop\n\nsub_0: assembly {\n        /* \"contracts/ExampleStrings.sol\":61:468  contract ExampleStrings {\r... */\n      mstore(0x40, 0x80)\n      callvalue\n      dup1\n      iszero\n      tag_1\n      jumpi\n      0x00\n      dup1\n      revert\n    tag_1:\n      pop\n      jumpi(tag_2, lt(calldatasize, 0x04))\n      shr(0xe0, calldataload(0x00))\n      dup1\n      0x492bfa18\n      eq\n      tag_3\n      jumpi\n      dup1\n      0x5ce25353\n      eq\n      tag_4\n      jumpi\n      dup1\n      0x712f4602\n      eq\n      tag_5\n      jumpi\n      dup1\n      0x82180568\n      eq\n      tag_6\n      jumpi\n    tag_2:\n      0x00\n      dup1\n      revert\n        /* \"contracts/ExampleStrings.sol\":92:130  string public myString = \"Hello World\" */\n    tag_3:\n      tag_7\n      tag_8\n      jump\t// in\n    tag_7:\n      mload(0x40)\n      tag_9\n      swap2\n      swap1\n      tag_10\n      jump\t// in\n    tag_9:\n      mload(0x40)\n      dup1\n      swap2\n      sub\n      swap1\n      return\n        /* \"contracts/ExampleStrings.sol\":282:465  function compareTwoStrings(string memory _myString) public view returns(bool) {\r... */\n    tag_4:\n      tag_11\n      0x04\n      dup1\n      calldatasize\n      sub\n      dup2\n      add\n      swap1\n      tag_12\n      swap2\n      swap1\n      tag_13\n      jump\t// in\n    tag_12:\n      tag_14\n      jump\t// in\n    tag_11:\n      mload(0x40)\n      tag_15\n      swap2\n      swap1\n      tag_16\n      jump\t// in\n    tag_15:\n      mload(0x40)\n      dup1\n      swap2\n      sub\n      swap1\n      return\n        /* \"contracts/ExampleStrings.sol\":137:173  bytes public myBytes = \"Hello World\" */\n    tag_5:\n      tag_17\n      tag_18\n      jump\t// in\n    tag_17:\n      mload(0x40)\n      tag_19\n      swap2\n      swap1\n      tag_20\n      jump\t// in\n    tag_19:\n      mload(0x40)\n      dup1\n      swap2\n      sub\n      swap1\n      return\n        /* \"contracts/ExampleStrings.sol\":182:274  function setMyString(string memory _myString) public {\r... */\n    tag_6:\n      tag_21\n      0x04\n      dup1\n      calldatasize\n      sub\n      dup2\n      add\n      swap1\n      tag_22\n      swap2\n      swap1\n      tag_13\n      jump\t// in\n    tag_22:\n      tag_23\n      jump\t// in\n    tag_21:\n      stop\n        /* \"contracts/ExampleStrings.sol\":92:130  string public myString = \"Hello World\" */\n    tag_8:\n      0x00\n      dup1\n      sload\n      tag_24\n      swap1\n      tag_25\n      jump\t// in\n    tag_24:\n      dup1\n      0x1f\n      add\n      0x20\n      dup1\n      swap2\n      div\n      mul\n      0x20\n      add\n      mload(0x40)\n      swap1\n      dup2\n      add\n      0x40\n      mstore\n      dup1\n      swap3\n      swap2\n      swap1\n      dup2\n      dup2\n      mstore\n      0x20\n      add\n      dup3\n      dup1\n      sload\n      tag_26\n      swap1\n      tag_25\n      jump\t// in\n    tag_26:\n      dup1\n      iszero\n      tag_27\n      jumpi\n      dup1\n      0x1f\n      lt\n      tag_28\n      jumpi\n      0x0100\n      dup1\n      dup4\n      sload\n      div\n      mul\n      dup4\n      mstore\n      swap2\n      0x20\n      add\n      swap2\n      jump(tag_27)\n    tag_28:\n      dup3\n      add\n      swap2\n      swap1\n      0x00\n      mstore\n      keccak256(0x00, 0x20)\n      swap1\n    tag_29:\n      dup2\n      sload\n      dup2\n      mstore\n      swap1\n      0x01\n      add\n      swap1\n      0x20\n      add\n      dup1\n      dup4\n      gt\n      tag_29\n      jumpi\n      dup3\n      swap1\n      sub\n      0x1f\n      and\n      dup3\n      add\n      swap2\n    tag_27:\n      pop\n      pop\n      pop\n      pop\n      pop\n      dup2\n      jump\t// out\n        /* \"contracts/ExampleStrings.sol\":282:465  function compareTwoStrings(string memory _myString) public view returns(bool) {\r... */\n    tag_14:\n        /* \"contracts/ExampleStrings.sol\":354:358  bool */\n      0x00\n        /* \"contracts/ExampleStrings.sol\":446:455  _myString */\n      dup2\n        /* \"contracts/ExampleStrings.sol\":429:456  abi.encodePacked(_myString) */\n      add(0x20, mload(0x40))\n      tag_31\n      swap2\n      swap1\n      tag_32\n      jump\t// in\n    tag_31:\n      mload(0x40)\n      0x20\n      dup2\n      dup4\n      sub\n      sub\n      dup2\n      mstore\n      swap1\n      0x40\n      mstore\n        /* \"contracts/ExampleStrings.sol\":419:457  keccak256(abi.encodePacked(_myString)) */\n      dup1\n      mload\n      swap1\n      0x20\n      add\n      keccak256\n        /* \"contracts/ExampleStrings.sol\":405:413  myString */\n      0x00\n        /* \"contracts/ExampleStrings.sol\":388:414  abi.encodePacked(myString) */\n      add(0x20, mload(0x40))\n      tag_33\n      swap2\n      swap1\n      tag_34\n      jump\t// in\n    tag_33:\n      mload(0x40)\n      0x20\n      dup2\n      dup4\n      sub\n      sub\n      dup2\n      mstore\n      swap1\n      0x40\n      mstore\n        /* \"contracts/ExampleStrings.sol\":378:415  keccak256(abi.encodePacked(myString)) */\n      dup1\n      mload\n      swap1\n      0x20\n      add\n      keccak256\n        /* \"contracts/ExampleStrings.sol\":378:457  keccak256(abi.encodePacked(myString)) == keccak256(abi.encodePacked(_myString)) */\n      eq\n        /* \"contracts/ExampleStrings.sol\":371:457  return keccak256(abi.encodePacked(myString)) == keccak256(abi.encodePacked(_myString)) */\n      swap1\n      pop\n        /* \"contracts/ExampleStrings.sol\":282:465  function compareTwoStrings(string memory _myString) public view returns(bool) {\r... */\n      swap2\n      swap1\n      pop\n      jump\t// out\n        /* \"contracts/ExampleStrings.sol\":137:173  bytes public myBytes = \"Hello World\" */\n    tag_18:\n      0x01\n      dup1\n      sload\n      tag_35\n      swap1\n      tag_25\n      jump\t// in\n    tag_35:\n      dup1\n      0x1f\n      add\n      0x20\n      dup1\n      swap2\n      div\n      mul\n      0x20\n      add\n      mload(0x40)\n      swap1\n      dup2\n      add\n      0x40\n      mstore\n      dup1\n      swap3\n      swap2\n      swap1\n      dup2\n      dup2\n      mstore\n      0x20\n      add\n      dup3\n      dup1\n      sload\n      tag_36\n      swap1\n      tag_25\n      jump\t// in\n    tag_36:\n      dup1\n      iszero\n      tag_37\n      jumpi\n      dup1\n      0x1f\n      lt\n      tag_38\n      jumpi\n      0x0100\n      dup1\n      dup4\n      sload\n      div\n      mul\n      dup4\n      mstore\n      swap2\n      0x20\n      add\n      swap2\n      jump(tag_37)\n    tag_38:\n      dup3\n      add\n      swap2\n      swap1\n      0x00\n      mstore\n      keccak256(0x00, 0x20)\n      swap1\n    tag_39:\n      dup2\n      sload\n      dup2\n      mstore\n      swap1\n      0x01\n      add\n      swap1\n      0x20\n      add\n      dup1\n      dup4\n      gt\n      tag_39\n      jumpi\n      dup3\n      swap1\n      sub\n      0x1f\n      and\n      dup3\n      add\n      swap2\n    tag_37:\n      pop\n      pop\n      pop\n      pop\n      pop\n      dup2\n      jump\t// out\n        /* \"contracts/ExampleStrings.sol\":182:274  function setMyString(string memory _myString) public {\r... */\n    tag_23:\n        /* \"contracts/ExampleStrings.sol\":257:266  _myString */\n      dup1\n        /* \"contracts/ExampleStrings.sol\":246:254  myString */\n      0x00\n        /* \"contracts/ExampleStrings.sol\":246:266  myString = _myString */\n      swap1\n      dup1\n      mload\n      swap1\n      0x20\n      add\n      swap1\n      tag_41\n      swap3\n      swap2\n      swap1\n      tag_42\n      jump\t// in\n    tag_41:\n      pop\n        /* \"contracts/ExampleStrings.sol\":182:274  function setMyString(string memory _myString) public {\r... */\n      pop\n      jump\t// out\n    tag_42:\n      dup3\n      dup1\n      sload\n      tag_43\n      swap1\n      tag_25\n      jump\t// in\n    tag_43:\n      swap1\n      0x00\n      mstore\n      keccak256(0x00, 0x20)\n      swap1\n      0x1f\n      add\n      0x20\n      swap1\n      div\n      dup2\n      add\n      swap3\n      dup3\n      tag_45\n      jumpi\n      0x00\n      dup6\n      sstore\n      jump(tag_44)\n    tag_45:\n      dup3\n      0x1f\n      lt\n      tag_46\n      jumpi\n      dup1\n      mload\n      not(0xff)\n      and\n      dup4\n      dup1\n      add\n      or\n      dup6\n      sstore\n      jump(tag_44)\n    tag_46:\n      dup3\n      dup1\n      add\n      0x01\n      add\n      dup6\n      sstore\n      dup3\n      iszero\n      tag_44\n      jumpi\n      swap2\n      dup3\n      add\n    tag_47:\n      dup3\n      dup2\n      gt\n      iszero\n      tag_48\n      jumpi\n      dup3\n      mload\n      dup3\n      sstore\n      swap2\n      0x20\n      add\n      swap2\n      swap1\n      0x01\n      add\n      swap1\n      jump(tag_47)\n    tag_48:\n    tag_44:\n      pop\n      swap1\n      pop\n      tag_49\n      swap2\n      swap1\n      tag_50\n      jump\t// in\n    tag_49:\n      pop\n      swap1\n      jump\t// out\n    tag_50:\n    tag_51:\n      dup1\n      dup3\n      gt\n      iszero\n      tag_52\n      jumpi\n      0x00\n      dup2\n      0x00\n      swap1\n      sstore\n      pop\n      0x01\n      add\n      jump(tag_51)\n    tag_52:\n      pop\n      swap1\n      jump\t// out\n        /* \"#utility.yul\":7:419   */\n    tag_54:\n        /* \"#utility.yul\":85:90   */\n      0x00\n        /* \"#utility.yul\":110:176   */\n      tag_56\n        /* \"#utility.yul\":126:175   */\n      tag_57\n        /* \"#utility.yul\":168:174   */\n      dup5\n        /* \"#utility.yul\":126:175   */\n      tag_58\n      jump\t// in\n    tag_57:\n        /* \"#utility.yul\":110:176   */\n      tag_59\n      jump\t// in\n    tag_56:\n        /* \"#utility.yul\":101:176   */\n      swap1\n      pop\n        /* \"#utility.yul\":199:205   */\n      dup3\n        /* \"#utility.yul\":192:197   */\n      dup2\n        /* \"#utility.yul\":185:206   */\n      mstore\n        /* \"#utility.yul\":237:241   */\n      0x20\n        /* \"#utility.yul\":230:235   */\n      dup2\n        /* \"#utility.yul\":226:242   */\n      add\n        /* \"#utility.yul\":275:278   */\n      dup5\n        /* \"#utility.yul\":266:272   */\n      dup5\n        /* \"#utility.yul\":261:264   */\n      dup5\n        /* \"#utility.yul\":257:273   */\n      add\n        /* \"#utility.yul\":254:279   */\n      gt\n        /* \"#utility.yul\":251:363   */\n      iszero\n      tag_60\n      jumpi\n        /* \"#utility.yul\":282:361   */\n      tag_61\n      tag_62\n      jump\t// in\n    tag_61:\n        /* \"#utility.yul\":251:363   */\n    tag_60:\n        /* \"#utility.yul\":372:413   */\n      tag_63\n        /* \"#utility.yul\":406:412   */\n      dup5\n        /* \"#utility.yul\":401:404   */\n      dup3\n        /* \"#utility.yul\":396:399   */\n      dup6\n        /* \"#utility.yul\":372:413   */\n      tag_64\n      jump\t// in\n    tag_63:\n        /* \"#utility.yul\":91:419   */\n      pop\n        /* \"#utility.yul\":7:419   */\n      swap4\n      swap3\n      pop\n      pop\n      pop\n      jump\t// out\n        /* \"#utility.yul\":439:779   */\n    tag_65:\n        /* \"#utility.yul\":495:500   */\n      0x00\n        /* \"#utility.yul\":544:547   */\n      dup3\n        /* \"#utility.yul\":537:541   */\n      0x1f\n        /* \"#utility.yul\":529:535   */\n      dup4\n        /* \"#utility.yul\":525:542   */\n      add\n        /* \"#utility.yul\":521:548   */\n      slt\n        /* \"#utility.yul\":511:633   */\n      tag_67\n      jumpi\n        /* \"#utility.yul\":552:631   */\n      tag_68\n      tag_69\n      jump\t// in\n    tag_68:\n        /* \"#utility.yul\":511:633   */\n    tag_67:\n        /* \"#utility.yul\":669:675   */\n      dup2\n        /* \"#utility.yul\":656:676   */\n      calldataload\n        /* \"#utility.yul\":694:773   */\n      tag_70\n        /* \"#utility.yul\":769:772   */\n      dup5\n        /* \"#utility.yul\":761:767   */\n      dup3\n        /* \"#utility.yul\":754:758   */\n      0x20\n        /* \"#utility.yul\":746:752   */\n      dup7\n        /* \"#utility.yul\":742:759   */\n      add\n        /* \"#utility.yul\":694:773   */\n      tag_54\n      jump\t// in\n    tag_70:\n        /* \"#utility.yul\":685:773   */\n      swap2\n      pop\n        /* \"#utility.yul\":501:779   */\n      pop\n        /* \"#utility.yul\":439:779   */\n      swap3\n      swap2\n      pop\n      pop\n      jump\t// out\n        /* \"#utility.yul\":785:1294   */\n    tag_13:\n        /* \"#utility.yul\":854:860   */\n      0x00\n        /* \"#utility.yul\":903:905   */\n      0x20\n        /* \"#utility.yul\":891:900   */\n      dup3\n        /* \"#utility.yul\":882:889   */\n      dup5\n        /* \"#utility.yul\":878:901   */\n      sub\n        /* \"#utility.yul\":874:906   */\n      slt\n        /* \"#utility.yul\":871:990   */\n      iszero\n      tag_72\n      jumpi\n        /* \"#utility.yul\":909:988   */\n      tag_73\n      tag_74\n      jump\t// in\n    tag_73:\n        /* \"#utility.yul\":871:990   */\n    tag_72:\n        /* \"#utility.yul\":1057:1058   */\n      0x00\n        /* \"#utility.yul\":1046:1055   */\n      dup3\n        /* \"#utility.yul\":1042:1059   */\n      add\n        /* \"#utility.yul\":1029:1060   */\n      calldataload\n        /* \"#utility.yul\":1087:1105   */\n      0xffffffffffffffff\n        /* \"#utility.yul\":1079:1085   */\n      dup2\n        /* \"#utility.yul\":1076:1106   */\n      gt\n        /* \"#utility.yul\":1073:1190   */\n      iszero\n      tag_75\n      jumpi\n        /* \"#utility.yul\":1109:1188   */\n      tag_76\n      tag_77\n      jump\t// in\n    tag_76:\n        /* \"#utility.yul\":1073:1190   */\n    tag_75:\n        /* \"#utility.yul\":1214:1277   */\n      tag_78\n        /* \"#utility.yul\":1269:1276   */\n      dup5\n        /* \"#utility.yul\":1260:1266   */\n      dup3\n        /* \"#utility.yul\":1249:1258   */\n      dup6\n        /* \"#utility.yul\":1245:1267   */\n      add\n        /* \"#utility.yul\":1214:1277   */\n      tag_65\n      jump\t// in\n    tag_78:\n        /* \"#utility.yul\":1204:1277   */\n      swap2\n      pop\n        /* \"#utility.yul\":1000:1287   */\n      pop\n        /* \"#utility.yul\":785:1294   */\n      swap3\n      swap2\n      pop\n      pop\n      jump\t// out\n        /* \"#utility.yul\":1300:1409   */\n    tag_79:\n        /* \"#utility.yul\":1381:1402   */\n      tag_81\n        /* \"#utility.yul\":1396:1401   */\n      dup2\n        /* \"#utility.yul\":1381:1402   */\n      tag_82\n      jump\t// in\n    tag_81:\n        /* \"#utility.yul\":1376:1379   */\n      dup3\n        /* \"#utility.yul\":1369:1403   */\n      mstore\n        /* \"#utility.yul\":1300:1409   */\n      pop\n      pop\n      jump\t// out\n        /* \"#utility.yul\":1415:1775   */\n    tag_83:\n        /* \"#utility.yul\":1501:1504   */\n      0x00\n        /* \"#utility.yul\":1529:1567   */\n      tag_85\n        /* \"#utility.yul\":1561:1566   */\n      dup3\n        /* \"#utility.yul\":1529:1567   */\n      tag_86\n      jump\t// in\n    tag_85:\n        /* \"#utility.yul\":1583:1653   */\n      tag_87\n        /* \"#utility.yul\":1646:1652   */\n      dup2\n        /* \"#utility.yul\":1641:1644   */\n      dup6\n        /* \"#utility.yul\":1583:1653   */\n      tag_88\n      jump\t// in\n    tag_87:\n        /* \"#utility.yul\":1576:1653   */\n      swap4\n      pop\n        /* \"#utility.yul\":1662:1714   */\n      tag_89\n        /* \"#utility.yul\":1707:1713   */\n      dup2\n        /* \"#utility.yul\":1702:1705   */\n      dup6\n        /* \"#utility.yul\":1695:1699   */\n      0x20\n        /* \"#utility.yul\":1688:1693   */\n      dup7\n        /* \"#utility.yul\":1684:1700   */\n      add\n        /* \"#utility.yul\":1662:1714   */\n      tag_90\n      jump\t// in\n    tag_89:\n        /* \"#utility.yul\":1739:1768   */\n      tag_91\n        /* \"#utility.yul\":1761:1767   */\n      dup2\n        /* \"#utility.yul\":1739:1768   */\n      tag_92\n      jump\t// in\n    tag_91:\n        /* \"#utility.yul\":1734:1737   */\n      dup5\n        /* \"#utility.yul\":1730:1769   */\n      add\n        /* \"#utility.yul\":1723:1769   */\n      swap2\n      pop\n        /* \"#utility.yul\":1505:1775   */\n      pop\n        /* \"#utility.yul\":1415:1775   */\n      swap3\n      swap2\n      pop\n      pop\n      jump\t// out\n        /* \"#utility.yul\":1781:2145   */\n    tag_93:\n        /* \"#utility.yul\":1869:1872   */\n      0x00\n        /* \"#utility.yul\":1897:1936   */\n      tag_95\n        /* \"#utility.yul\":1930:1935   */\n      dup3\n        /* \"#utility.yul\":1897:1936   */\n      tag_96\n      jump\t// in\n    tag_95:\n        /* \"#utility.yul\":1952:2023   */\n      tag_97\n        /* \"#utility.yul\":2016:2022   */\n      dup2\n        /* \"#utility.yul\":2011:2014   */\n      dup6\n        /* \"#utility.yul\":1952:2023   */\n      tag_98\n      jump\t// in\n    tag_97:\n        /* \"#utility.yul\":1945:2023   */\n      swap4\n      pop\n        /* \"#utility.yul\":2032:2084   */\n      tag_99\n        /* \"#utility.yul\":2077:2083   */\n      dup2\n        /* \"#utility.yul\":2072:2075   */\n      dup6\n        /* \"#utility.yul\":2065:2069   */\n      0x20\n        /* \"#utility.yul\":2058:2063   */\n      dup7\n        /* \"#utility.yul\":2054:2070   */\n      add\n        /* \"#utility.yul\":2032:2084   */\n      tag_90\n      jump\t// in\n    tag_99:\n        /* \"#utility.yul\":2109:2138   */\n      tag_100\n        /* \"#utility.yul\":2131:2137   */\n      dup2\n        /* \"#utility.yul\":2109:2138   */\n      tag_92\n      jump\t// in\n    tag_100:\n        /* \"#utility.yul\":2104:2107   */\n      dup5\n        /* \"#utility.yul\":2100:2139   */\n      add\n        /* \"#utility.yul\":2093:2139   */\n      swap2\n      pop\n        /* \"#utility.yul\":1873:2145   */\n      pop\n        /* \"#utility.yul\":1781:2145   */\n      swap3\n      swap2\n      pop\n      pop\n      jump\t// out\n        /* \"#utility.yul\":2151:2528   */\n    tag_101:\n        /* \"#utility.yul\":2257:2260   */\n      0x00\n        /* \"#utility.yul\":2285:2324   */\n      tag_103\n        /* \"#utility.yul\":2318:2323   */\n      dup3\n        /* \"#utility.yul\":2285:2324   */\n      tag_96\n      jump\t// in\n    tag_103:\n        /* \"#utility.yul\":2340:2429   */\n      tag_104\n        /* \"#utility.yul\":2422:2428   */\n      dup2\n        /* \"#utility.yul\":2417:2420   */\n      dup6\n        /* \"#utility.yul\":2340:2429   */\n      tag_105\n      jump\t// in\n    tag_104:\n        /* \"#utility.yul\":2333:2429   */\n      swap4\n      pop\n        /* \"#utility.yul\":2438:2490   */\n      tag_106\n        /* \"#utility.yul\":2483:2489   */\n      dup2\n        /* \"#utility.yul\":2478:2481   */\n      dup6\n        /* \"#utility.yul\":2471:2475   */\n      0x20\n        /* \"#utility.yul\":2464:2469   */\n      dup7\n        /* \"#utility.yul\":2460:2476   */\n      add\n        /* \"#utility.yul\":2438:2490   */\n      tag_90\n      jump\t// in\n    tag_106:\n        /* \"#utility.yul\":2515:2521   */\n      dup1\n        /* \"#utility.yul\":2510:2513   */\n      dup5\n        /* \"#utility.yul\":2506:2522   */\n      add\n        /* \"#utility.yul\":2499:2522   */\n      swap2\n      pop\n        /* \"#utility.yul\":2261:2528   */\n      pop\n        /* \"#utility.yul\":2151:2528   */\n      swap3\n      swap2\n      pop\n      pop\n      jump\t// out\n        /* \"#utility.yul\":2558:3403   */\n    tag_107:\n        /* \"#utility.yul\":2661:2664   */\n      0x00\n        /* \"#utility.yul\":2698:2703   */\n      dup2\n        /* \"#utility.yul\":2692:2704   */\n      sload\n        /* \"#utility.yul\":2727:2763   */\n      tag_109\n        /* \"#utility.yul\":2753:2762   */\n      dup2\n        /* \"#utility.yul\":2727:2763   */\n      tag_25\n      jump\t// in\n    tag_109:\n        /* \"#utility.yul\":2779:2868   */\n      tag_110\n        /* \"#utility.yul\":2861:2867   */\n      dup2\n        /* \"#utility.yul\":2856:2859   */\n      dup7\n        /* \"#utility.yul\":2779:2868   */\n      tag_105\n      jump\t// in\n    tag_110:\n        /* \"#utility.yul\":2772:2868   */\n      swap5\n      pop\n        /* \"#utility.yul\":2899:2900   */\n      0x01\n        /* \"#utility.yul\":2888:2897   */\n      dup3\n        /* \"#utility.yul\":2884:2901   */\n      and\n        /* \"#utility.yul\":2915:2916   */\n      0x00\n        /* \"#utility.yul\":2910:3047   */\n      dup2\n      eq\n      tag_112\n      jumpi\n        /* \"#utility.yul\":3061:3062   */\n      0x01\n        /* \"#utility.yul\":3056:3397   */\n      dup2\n      eq\n      tag_113\n      jumpi\n        /* \"#utility.yul\":2877:3397   */\n      jump(tag_111)\n        /* \"#utility.yul\":2910:3047   */\n    tag_112:\n        /* \"#utility.yul\":2994:2998   */\n      0xff\n        /* \"#utility.yul\":2990:2999   */\n      not\n        /* \"#utility.yul\":2979:2988   */\n      dup4\n        /* \"#utility.yul\":2975:3000   */\n      and\n        /* \"#utility.yul\":2970:2973   */\n      dup7\n        /* \"#utility.yul\":2963:3001   */\n      mstore\n        /* \"#utility.yul\":3030:3036   */\n      dup2\n        /* \"#utility.yul\":3025:3028   */\n      dup7\n        /* \"#utility.yul\":3021:3037   */\n      add\n        /* \"#utility.yul\":3014:3037   */\n      swap4\n      pop\n        /* \"#utility.yul\":2910:3047   */\n      jump(tag_111)\n        /* \"#utility.yul\":3056:3397   */\n    tag_113:\n        /* \"#utility.yul\":3123:3161   */\n      tag_114\n        /* \"#utility.yul\":3155:3160   */\n      dup6\n        /* \"#utility.yul\":3123:3161   */\n      tag_115\n      jump\t// in\n    tag_114:\n        /* \"#utility.yul\":3183:3184   */\n      0x00\n        /* \"#utility.yul\":3197:3351   */\n    tag_116:\n        /* \"#utility.yul\":3211:3217   */\n      dup4\n        /* \"#utility.yul\":3208:3209   */\n      dup2\n        /* \"#utility.yul\":3205:3218   */\n      lt\n        /* \"#utility.yul\":3197:3351   */\n      iszero\n      tag_118\n      jumpi\n        /* \"#utility.yul\":3285:3292   */\n      dup2\n        /* \"#utility.yul\":3279:3293   */\n      sload\n        /* \"#utility.yul\":3275:3276   */\n      dup2\n        /* \"#utility.yul\":3270:3273   */\n      dup10\n        /* \"#utility.yul\":3266:3277   */\n      add\n        /* \"#utility.yul\":3259:3294   */\n      mstore\n        /* \"#utility.yul\":3335:3336   */\n      0x01\n        /* \"#utility.yul\":3326:3333   */\n      dup3\n        /* \"#utility.yul\":3322:3337   */\n      add\n        /* \"#utility.yul\":3311:3337   */\n      swap2\n      pop\n        /* \"#utility.yul\":3233:3237   */\n      0x20\n        /* \"#utility.yul\":3230:3231   */\n      dup2\n        /* \"#utility.yul\":3226:3238   */\n      add\n        /* \"#utility.yul\":3221:3238   */\n      swap1\n      pop\n        /* \"#utility.yul\":3197:3351   */\n      jump(tag_116)\n    tag_118:\n        /* \"#utility.yul\":3380:3386   */\n      dup4\n        /* \"#utility.yul\":3375:3378   */\n      dup9\n        /* \"#utility.yul\":3371:3387   */\n      add\n        /* \"#utility.yul\":3364:3387   */\n      swap6\n      pop\n        /* \"#utility.yul\":3063:3397   */\n      pop\n      pop\n        /* \"#utility.yul\":2877:3397   */\n    tag_111:\n      pop\n        /* \"#utility.yul\":2665:3403   */\n      pop\n      pop\n        /* \"#utility.yul\":2558:3403   */\n      swap3\n      swap2\n      pop\n      pop\n      jump\t// out\n        /* \"#utility.yul\":3409:3684   */\n    tag_32:\n        /* \"#utility.yul\":3541:3544   */\n      0x00\n        /* \"#utility.yul\":3563:3658   */\n      tag_120\n        /* \"#utility.yul\":3654:3657   */\n      dup3\n        /* \"#utility.yul\":3645:3651   */\n      dup5\n        /* \"#utility.yul\":3563:3658   */\n      tag_101\n      jump\t// in\n    tag_120:\n        /* \"#utility.yul\":3556:3658   */\n      swap2\n      pop\n        /* \"#utility.yul\":3675:3678   */\n      dup2\n        /* \"#utility.yul\":3668:3678   */\n      swap1\n      pop\n        /* \"#utility.yul\":3409:3684   */\n      swap3\n      swap2\n      pop\n      pop\n      jump\t// out\n        /* \"#utility.yul\":3690:3959   */\n    tag_34:\n        /* \"#utility.yul\":3819:3822   */\n      0x00\n        /* \"#utility.yul\":3841:3933   */\n      tag_122\n        /* \"#utility.yul\":3929:3932   */\n      dup3\n        /* \"#utility.yul\":3920:3926   */\n      dup5\n        /* \"#utility.yul\":3841:3933   */\n      tag_107\n      jump\t// in\n    tag_122:\n        /* \"#utility.yul\":3834:3933   */\n      swap2\n      pop\n        /* \"#utility.yul\":3950:3953   */\n      dup2\n        /* \"#utility.yul\":3943:3953   */\n      swap1\n      pop\n        /* \"#utility.yul\":3690:3959   */\n      swap3\n      swap2\n      pop\n      pop\n      jump\t// out\n        /* \"#utility.yul\":3965:4175   */\n    tag_16:\n        /* \"#utility.yul\":4052:4056   */\n      0x00\n        /* \"#utility.yul\":4090:4092   */\n      0x20\n        /* \"#utility.yul\":4079:4088   */\n      dup3\n        /* \"#utility.yul\":4075:4093   */\n      add\n        /* \"#utility.yul\":4067:4093   */\n      swap1\n      pop\n        /* \"#utility.yul\":4103:4168   */\n      tag_124\n        /* \"#utility.yul\":4165:4166   */\n      0x00\n        /* \"#utility.yul\":4154:4163   */\n      dup4\n        /* \"#utility.yul\":4150:4167   */\n      add\n        /* \"#utility.yul\":4141:4147   */\n      dup5\n        /* \"#utility.yul\":4103:4168   */\n      tag_79\n      jump\t// in\n    tag_124:\n        /* \"#utility.yul\":3965:4175   */\n      swap3\n      swap2\n      pop\n      pop\n      jump\t// out\n        /* \"#utility.yul\":4181:4490   */\n    tag_20:\n        /* \"#utility.yul\":4292:4296   */\n      0x00\n        /* \"#utility.yul\":4330:4332   */\n      0x20\n        /* \"#utility.yul\":4319:4328   */\n      dup3\n        /* \"#utility.yul\":4315:4333   */\n      add\n        /* \"#utility.yul\":4307:4333   */\n      swap1\n      pop\n        /* \"#utility.yul\":4379:4388   */\n      dup2\n        /* \"#utility.yul\":4373:4377   */\n      dup2\n        /* \"#utility.yul\":4369:4389   */\n      sub\n        /* \"#utility.yul\":4365:4366   */\n      0x00\n        /* \"#utility.yul\":4354:4363   */\n      dup4\n        /* \"#utility.yul\":4350:4367   */\n      add\n        /* \"#utility.yul\":4343:4390   */\n      mstore\n        /* \"#utility.yul\":4407:4483   */\n      tag_126\n        /* \"#utility.yul\":4478:4482   */\n      dup2\n        /* \"#utility.yul\":4469:4475   */\n      dup5\n        /* \"#utility.yul\":4407:4483   */\n      tag_83\n      jump\t// in\n    tag_126:\n        /* \"#utility.yul\":4399:4483   */\n      swap1\n      pop\n        /* \"#utility.yul\":4181:4490   */\n      swap3\n      swap2\n      pop\n      pop\n      jump\t// out\n        /* \"#utility.yul\":4496:4809   */\n    tag_10:\n        /* \"#utility.yul\":4609:4613   */\n      0x00\n        /* \"#utility.yul\":4647:4649   */\n      0x20\n        /* \"#utility.yul\":4636:4645   */\n      dup3\n        /* \"#utility.yul\":4632:4650   */\n      add\n        /* \"#utility.yul\":4624:4650   */\n      swap1\n      pop\n        /* \"#utility.yul\":4696:4705   */\n      dup2\n        /* \"#utility.yul\":4690:4694   */\n      dup2\n        /* \"#utility.yul\":4686:4706   */\n      sub\n        /* \"#utility.yul\":4682:4683   */\n      0x00\n        /* \"#utility.yul\":4671:4680   */\n      dup4\n        /* \"#utility.yul\":4667:4684   */\n      add\n        /* \"#utility.yul\":4660:4707   */\n      mstore\n        /* \"#utility.yul\":4724:4802   */\n      tag_128\n        /* \"#utility.yul\":4797:4801   */\n      dup2\n        /* \"#utility.yul\":4788:4794   */\n      dup5\n        /* \"#utility.yul\":4724:4802   */\n      tag_93\n      jump\t// in\n    tag_128:\n        /* \"#utility.yul\":4716:4802   */\n      swap1\n      pop\n        /* \"#utility.yul\":4496:4809   */\n      swap3\n      swap2\n      pop\n      pop\n      jump\t// out\n        /* \"#utility.yul\":4815:4944   */\n    tag_59:\n        /* \"#utility.yul\":4849:4855   */\n      0x00\n        /* \"#utility.yul\":4876:4896   */\n      tag_130\n      tag_131\n      jump\t// in\n    tag_130:\n        /* \"#utility.yul\":4866:4896   */\n      swap1\n      pop\n        /* \"#utility.yul\":4905:4938   */\n      tag_132\n        /* \"#utility.yul\":4933:4937   */\n      dup3\n        /* \"#utility.yul\":4925:4931   */\n      dup3\n        /* \"#utility.yul\":4905:4938   */\n      tag_133\n      jump\t// in\n    tag_132:\n        /* \"#utility.yul\":4815:4944   */\n      swap2\n      swap1\n      pop\n      jump\t// out\n        /* \"#utility.yul\":4950:5025   */\n    tag_131:\n        /* \"#utility.yul\":4983:4989   */\n      0x00\n        /* \"#utility.yul\":5016:5018   */\n      0x40\n        /* \"#utility.yul\":5010:5019   */\n      mload\n        /* \"#utility.yul\":5000:5019   */\n      swap1\n      pop\n        /* \"#utility.yul\":4950:5025   */\n      swap1\n      jump\t// out\n        /* \"#utility.yul\":5031:5339   */\n    tag_58:\n        /* \"#utility.yul\":5093:5097   */\n      0x00\n        /* \"#utility.yul\":5183:5201   */\n      0xffffffffffffffff\n        /* \"#utility.yul\":5175:5181   */\n      dup3\n        /* \"#utility.yul\":5172:5202   */\n      gt\n        /* \"#utility.yul\":5169:5225   */\n      iszero\n      tag_136\n      jumpi\n        /* \"#utility.yul\":5205:5223   */\n      tag_137\n      tag_138\n      jump\t// in\n    tag_137:\n        /* \"#utility.yul\":5169:5225   */\n    tag_136:\n        /* \"#utility.yul\":5243:5272   */\n      tag_139\n        /* \"#utility.yul\":5265:5271   */\n      dup3\n        /* \"#utility.yul\":5243:5272   */\n      tag_92\n      jump\t// in\n    tag_139:\n        /* \"#utility.yul\":5235:5272   */\n      swap1\n      pop\n        /* \"#utility.yul\":5327:5331   */\n      0x20\n        /* \"#utility.yul\":5321:5325   */\n      dup2\n        /* \"#utility.yul\":5317:5332   */\n      add\n        /* \"#utility.yul\":5309:5332   */\n      swap1\n      pop\n        /* \"#utility.yul\":5031:5339   */\n      swap2\n      swap1\n      pop\n      jump\t// out\n        /* \"#utility.yul\":5345:5486   */\n    tag_115:\n        /* \"#utility.yul\":5394:5398   */\n      0x00\n        /* \"#utility.yul\":5417:5420   */\n      dup2\n        /* \"#utility.yul\":5409:5420   */\n      swap1\n      pop\n        /* \"#utility.yul\":5440:5443   */\n      dup2\n        /* \"#utility.yul\":5437:5438   */\n      0x00\n        /* \"#utility.yul\":5430:5444   */\n      mstore\n        /* \"#utility.yul\":5474:5478   */\n      0x20\n        /* \"#utility.yul\":5471:5472   */\n      0x00\n        /* \"#utility.yul\":5461:5479   */\n      keccak256\n        /* \"#utility.yul\":5453:5479   */\n      swap1\n      pop\n        /* \"#utility.yul\":5345:5486   */\n      swap2\n      swap1\n      pop\n      jump\t// out\n        /* \"#utility.yul\":5492:5590   */\n    tag_86:\n        /* \"#utility.yul\":5543:5549   */\n      0x00\n        /* \"#utility.yul\":5577:5582   */\n      dup2\n        /* \"#utility.yul\":5571:5583   */\n      mload\n        /* \"#utility.yul\":5561:5583   */\n      swap1\n      pop\n        /* \"#utility.yul\":5492:5590   */\n      swap2\n      swap1\n      pop\n      jump\t// out\n        /* \"#utility.yul\":5596:5695   */\n    tag_96:\n        /* \"#utility.yul\":5648:5654   */\n      0x00\n        /* \"#utility.yul\":5682:5687   */\n      dup2\n        /* \"#utility.yul\":5676:5688   */\n      mload\n        /* \"#utility.yul\":5666:5688   */\n      swap1\n      pop\n        /* \"#utility.yul\":5596:5695   */\n      swap2\n      swap1\n      pop\n      jump\t// out\n        /* \"#utility.yul\":5701:5869   */\n    tag_88:\n        /* \"#utility.yul\":5784:5795   */\n      0x00\n        /* \"#utility.yul\":5818:5824   */\n      dup3\n        /* \"#utility.yul\":5813:5816   */\n      dup3\n        /* \"#utility.yul\":5806:5825   */\n      mstore\n        /* \"#utility.yul\":5858:5862   */\n      0x20\n        /* \"#utility.yul\":5853:5856   */\n      dup3\n        /* \"#utility.yul\":5849:5863   */\n      add\n        /* \"#utility.yul\":5834:5863   */\n      swap1\n      pop\n        /* \"#utility.yul\":5701:5869   */\n      swap3\n      swap2\n      pop\n      pop\n      jump\t// out\n        /* \"#utility.yul\":5875:6044   */\n    tag_98:\n        /* \"#utility.yul\":5959:5970   */\n      0x00\n        /* \"#utility.yul\":5993:5999   */\n      dup3\n        /* \"#utility.yul\":5988:5991   */\n      dup3\n        /* \"#utility.yul\":5981:6000   */\n      mstore\n        /* \"#utility.yul\":6033:6037   */\n      0x20\n        /* \"#utility.yul\":6028:6031   */\n      dup3\n        /* \"#utility.yul\":6024:6038   */\n      add\n        /* \"#utility.yul\":6009:6038   */\n      swap1\n      pop\n        /* \"#utility.yul\":5875:6044   */\n      swap3\n      swap2\n      pop\n      pop\n      jump\t// out\n        /* \"#utility.yul\":6050:6198   */\n    tag_105:\n        /* \"#utility.yul\":6152:6163   */\n      0x00\n        /* \"#utility.yul\":6189:6192   */\n      dup2\n        /* \"#utility.yul\":6174:6192   */\n      swap1\n      pop\n        /* \"#utility.yul\":6050:6198   */\n      swap3\n      swap2\n      pop\n      pop\n      jump\t// out\n        /* \"#utility.yul\":6204:6294   */\n    tag_82:\n        /* \"#utility.yul\":6238:6245   */\n      0x00\n        /* \"#utility.yul\":6281:6286   */\n      dup2\n        /* \"#utility.yul\":6274:6287   */\n      iszero\n        /* \"#utility.yul\":6267:6288   */\n      iszero\n        /* \"#utility.yul\":6256:6288   */\n      swap1\n      pop\n        /* \"#utility.yul\":6204:6294   */\n      swap2\n      swap1\n      pop\n      jump\t// out\n        /* \"#utility.yul\":6300:6454   */\n    tag_64:\n        /* \"#utility.yul\":6384:6390   */\n      dup3\n        /* \"#utility.yul\":6379:6382   */\n      dup2\n        /* \"#utility.yul\":6374:6377   */\n      dup4\n        /* \"#utility.yul\":6361:6391   */\n      calldatacopy\n        /* \"#utility.yul\":6446:6447   */\n      0x00\n        /* \"#utility.yul\":6437:6443   */\n      dup4\n        /* \"#utility.yul\":6432:6435   */\n      dup4\n        /* \"#utility.yul\":6428:6444   */\n      add\n        /* \"#utility.yul\":6421:6448   */\n      mstore\n        /* \"#utility.yul\":6300:6454   */\n      pop\n      pop\n      pop\n      jump\t// out\n        /* \"#utility.yul\":6460:6767   */\n    tag_90:\n        /* \"#utility.yul\":6528:6529   */\n      0x00\n        /* \"#utility.yul\":6538:6651   */\n    tag_149:\n        /* \"#utility.yul\":6552:6558   */\n      dup4\n        /* \"#utility.yul\":6549:6550   */\n      dup2\n        /* \"#utility.yul\":6546:6559   */\n      lt\n        /* \"#utility.yul\":6538:6651   */\n      iszero\n      tag_151\n      jumpi\n        /* \"#utility.yul\":6637:6638   */\n      dup1\n        /* \"#utility.yul\":6632:6635   */\n      dup3\n        /* \"#utility.yul\":6628:6639   */\n      add\n        /* \"#utility.yul\":6622:6640   */\n      mload\n        /* \"#utility.yul\":6618:6619   */\n      dup2\n        /* \"#utility.yul\":6613:6616   */\n      dup5\n        /* \"#utility.yul\":6609:6620   */\n      add\n        /* \"#utility.yul\":6602:6641   */\n      mstore\n        /* \"#utility.yul\":6574:6576   */\n      0x20\n        /* \"#utility.yul\":6571:6572   */\n      dup2\n        /* \"#utility.yul\":6567:6577   */\n      add\n        /* \"#utility.yul\":6562:6577   */\n      swap1\n      pop\n        /* \"#utility.yul\":6538:6651   */\n      jump(tag_149)\n    tag_151:\n        /* \"#utility.yul\":6669:6675   */\n      dup4\n        /* \"#utility.yul\":6666:6667   */\n      dup2\n        /* \"#utility.yul\":6663:6676   */\n      gt\n        /* \"#utility.yul\":6660:6761   */\n      iszero\n      tag_152\n      jumpi\n        /* \"#utility.yul\":6749:6750   */\n      0x00\n        /* \"#utility.yul\":6740:6746   */\n      dup5\n        /* \"#utility.yul\":6735:6738   */\n      dup5\n        /* \"#utility.yul\":6731:6747   */\n      add\n        /* \"#utility.yul\":6724:6751   */\n      mstore\n        /* \"#utility.yul\":6660:6761   */\n    tag_152:\n        /* \"#utility.yul\":6509:6767   */\n      pop\n        /* \"#utility.yul\":6460:6767   */\n      pop\n      pop\n      pop\n      jump\t// out\n        /* \"#utility.yul\":6773:7093   */\n    tag_25:\n        /* \"#utility.yul\":6817:6823   */\n      0x00\n        /* \"#utility.yul\":6854:6855   */\n      0x02\n        /* \"#utility.yul\":6848:6852   */\n      dup3\n        /* \"#utility.yul\":6844:6856   */\n      div\n        /* \"#utility.yul\":6834:6856   */\n      swap1\n      pop\n        /* \"#utility.yul\":6901:6902   */\n      0x01\n        /* \"#utility.yul\":6895:6899   */\n      dup3\n        /* \"#utility.yul\":6891:6903   */\n      and\n        /* \"#utility.yul\":6922:6940   */\n      dup1\n        /* \"#utility.yul\":6912:6993   */\n      tag_154\n      jumpi\n        /* \"#utility.yul\":6978:6982   */\n      0x7f\n        /* \"#utility.yul\":6970:6976   */\n      dup3\n        /* \"#utility.yul\":6966:6983   */\n      and\n        /* \"#utility.yul\":6956:6983   */\n      swap2\n      pop\n        /* \"#utility.yul\":6912:6993   */\n    tag_154:\n        /* \"#utility.yul\":7040:7042   */\n      0x20\n        /* \"#utility.yul\":7032:7038   */\n      dup3\n        /* \"#utility.yul\":7029:7043   */\n      lt\n        /* \"#utility.yul\":7009:7027   */\n      dup2\n        /* \"#utility.yul\":7006:7044   */\n      eq\n        /* \"#utility.yul\":7003:7087   */\n      iszero\n      tag_155\n      jumpi\n        /* \"#utility.yul\":7059:7077   */\n      tag_156\n      tag_157\n      jump\t// in\n    tag_156:\n        /* \"#utility.yul\":7003:7087   */\n    tag_155:\n        /* \"#utility.yul\":6824:7093   */\n      pop\n        /* \"#utility.yul\":6773:7093   */\n      swap2\n      swap1\n      pop\n      jump\t// out\n        /* \"#utility.yul\":7099:7380   */\n    tag_133:\n        /* \"#utility.yul\":7182:7209   */\n      tag_159\n        /* \"#utility.yul\":7204:7208   */\n      dup3\n        /* \"#utility.yul\":7182:7209   */\n      tag_92\n      jump\t// in\n    tag_159:\n        /* \"#utility.yul\":7174:7180   */\n      dup2\n        /* \"#utility.yul\":7170:7210   */\n      add\n        /* \"#utility.yul\":7312:7318   */\n      dup2\n        /* \"#utility.yul\":7300:7310   */\n      dup2\n        /* \"#utility.yul\":7297:7319   */\n      lt\n        /* \"#utility.yul\":7276:7294   */\n      0xffffffffffffffff\n        /* \"#utility.yul\":7264:7274   */\n      dup3\n        /* \"#utility.yul\":7261:7295   */\n      gt\n        /* \"#utility.yul\":7258:7320   */\n      or\n        /* \"#utility.yul\":7255:7343   */\n      iszero\n      tag_160\n      jumpi\n        /* \"#utility.yul\":7323:7341   */\n      tag_161\n      tag_138\n      jump\t// in\n    tag_161:\n        /* \"#utility.yul\":7255:7343   */\n    tag_160:\n        /* \"#utility.yul\":7363:7373   */\n      dup1\n        /* \"#utility.yul\":7359:7361   */\n      0x40\n        /* \"#utility.yul\":7352:7374   */\n      mstore\n        /* \"#utility.yul\":7142:7380   */\n      pop\n        /* \"#utility.yul\":7099:7380   */\n      pop\n      pop\n      jump\t// out\n        /* \"#utility.yul\":7386:7566   */\n    tag_157:\n        /* \"#utility.yul\":7434:7511   */\n      0x4e487b7100000000000000000000000000000000000000000000000000000000\n        /* \"#utility.yul\":7431:7432   */\n      0x00\n        /* \"#utility.yul\":7424:7512   */\n      mstore\n        /* \"#utility.yul\":7531:7535   */\n      0x22\n        /* \"#utility.yul\":7528:7529   */\n      0x04\n        /* \"#utility.yul\":7521:7536   */\n      mstore\n        /* \"#utility.yul\":7555:7559   */\n      0x24\n        /* \"#utility.yul\":7552:7553   */\n      0x00\n        /* \"#utility.yul\":7545:7560   */\n      revert\n        /* \"#utility.yul\":7572:7752   */\n    tag_138:\n        /* \"#utility.yul\":7620:7697   */\n      0x4e487b7100000000000000000000000000000000000000000000000000000000\n        /* \"#utility.yul\":7617:7618   */\n      0x00\n        /* \"#utility.yul\":7610:7698   */\n      mstore\n        /* \"#utility.yul\":7717:7721   */\n      0x41\n        /* \"#utility.yul\":7714:7715   */\n      0x04\n        /* \"#utility.yul\":7707:7722   */\n      mstore\n        /* \"#utility.yul\":7741:7745   */\n      0x24\n        /* \"#utility.yul\":7738:7739   */\n      0x00\n        /* \"#utility.yul\":7731:7746   */\n      revert\n        /* \"#utility.yul\":7758:7875   */\n    tag_69:\n        /* \"#utility.yul\":7867:7868   */\n      0x00\n        /* \"#utility.yul\":7864:7865   */\n      dup1\n        /* \"#utility.yul\":7857:7869   */\n      revert\n        /* \"#utility.yul\":7881:7998   */\n    tag_62:\n        /* \"#utility.yul\":7990:7991   */\n      0x00\n        /* \"#utility.yul\":7987:7988   */\n      dup1\n        /* \"#utility.yul\":7980:7992   */\n      revert\n        /* \"#utility.yul\":8004:8121   */\n    tag_77:\n        /* \"#utility.yul\":8113:8114   */\n      0x00\n        /* \"#utility.yul\":8110:8111   */\n      dup1\n        /* \"#utility.yul\":8103:8115   */\n      revert\n        /* \"#utility.yul\":8127:8244   */\n    tag_74:\n        /* \"#utility.yul\":8236:8237   */\n      0x00\n        /* \"#utility.yul\":8233:8234   */\n      dup1\n        /* \"#utility.yul\":8226:8238   */\n      revert\n        /* \"#utility.yul\":8250:8352   */\n    tag_92:\n        /* \"#utility.yul\":8291:8297   */\n      0x00\n        /* \"#utility.yul\":8342:8344   */\n      0x1f\n        /* \"#utility.yul\":8338:8345   */\n      not\n        /* \"#utility.yul\":8333:8335   */\n      0x1f\n        /* \"#utility.yul\":8326:8331   */\n      dup4\n        /* \"#utility.yul\":8322:8336   */\n      add\n        /* \"#utility.yul\":8318:8346   */\n      and\n        /* \"#utility.yul\":8308:8346   */\n      swap1\n      pop\n        /* \"#utility.yul\":8250:8352   */\n      swap2\n      swap1\n      pop\n      jump\t// out\n\n    auxdata: 0xa2646970667358221220818f249ac4887152f36c50dce380f26794dc5152fb9de22f9da8c37bf36c794064736f6c63430008070033\n}\n",
				"bytecode": {
					"linkReferences": {},
					"object": "60806040526040518060400160405280600b81526020017f48656c6c6f20576f726c640000000000000000000000000000000000000000008152506000908051906020019062000051929190620000b4565b506040518060400160405280600b81526020017f48656c6c6f20576f726c64000000000000000000000000000000000000000000815250600190805190602001906200009f92919062000145565b50348015620000ad57600080fd5b506200025a565b828054620000c290620001f5565b90600052602060002090601f016020900481019282620000e6576000855562000132565b82601f106200010157805160ff191683800117855562000132565b8280016001018555821562000132579182015b828111156200013157825182559160200191906001019062000114565b5b509050620001419190620001d6565b5090565b8280546200015390620001f5565b90600052602060002090601f016020900481019282620001775760008555620001c3565b82601f106200019257805160ff1916838001178555620001c3565b82800160010185558215620001c3579182015b82811115620001c2578251825591602001919060010190620001a5565b5b509050620001d29190620001d6565b5090565b5b80821115620001f1576000816000905550600101620001d7565b5090565b600060028204905060018216806200020e57607f821691505b602082108114156200022557620002246200022b565b5b50919050565b7f4e487b7100000000000000000000000000000000000000000000000000000000600052602260045260246000fd5b61079a806200026a6000396000f3fe608060405234801561001057600080fd5b506004361061004c5760003560e01c8063492bfa18146100515780635ce253531461006f578063712f46021461009f57806382180568146100bd575b600080fd5b6100596100d9565b6040516100669190610560565b60405180910390f35b6100896004803603810190610084919061037b565b610167565b6040516100969190610523565b60405180910390f35b6100a76101c0565b6040516100b4919061053e565b60405180910390f35b6100d760048036038101906100d2919061037b565b61024e565b005b600080546100e69061067e565b80601f01602080910402602001604051908101604052809291908181526020018280546101129061067e565b801561015f5780601f106101345761010080835404028352916020019161015f565b820191906000526020600020905b81548152906001019060200180831161014257829003601f168201915b505050505081565b60008160405160200161017a91906104f5565b6040516020818303038152906040528051906020012060006040516020016101a2919061050c565b60405160208183030381529060405280519060200120149050919050565b600180546101cd9061067e565b80601f01602080910402602001604051908101604052809291908181526020018280546101f99061067e565b80156102465780601f1061021b57610100808354040283529160200191610246565b820191906000526020600020905b81548152906001019060200180831161022957829003601f168201915b505050505081565b8060009080519060200190610264929190610268565b5050565b8280546102749061067e565b90600052602060002090601f01602090048101928261029657600085556102dd565b82601f106102af57805160ff19168380011785556102dd565b828001600101855582156102dd579182015b828111156102dc5782518255916020019190600101906102c1565b5b5090506102ea91906102ee565b5090565b5b808211156103075760008160009055506001016102ef565b5090565b600061031e610319846105a7565b610582565b90508281526020810184848401111561033a57610339610744565b5b61034584828561063c565b509392505050565b600082601f8301126103625761036161073f565b5b813561037284826020860161030b565b91505092915050565b6000602082840312156103915761039061074e565b5b600082013567ffffffffffffffff8111156103af576103ae610749565b5b6103bb8482850161034d565b91505092915050565b6103cd81610630565b82525050565b60006103de826105ed565b6103e88185610603565b93506103f881856020860161064b565b61040181610753565b840191505092915050565b6000610417826105f8565b6104218185610614565b935061043181856020860161064b565b61043a81610753565b840191505092915050565b6000610450826105f8565b61045a8185610625565b935061046a81856020860161064b565b80840191505092915050565b600081546104838161067e565b61048d8186610625565b945060018216600081146104a857600181146104b9576104ec565b60ff198316865281860193506104ec565b6104c2856105d8565b60005b838110156104e4578154818901526001820191506020810190506104c5565b838801955050505b50505092915050565b60006105018284610445565b915081905092915050565b60006105188284610476565b915081905092915050565b600060208201905061053860008301846103c4565b92915050565b6000602082019050818103600083015261055881846103d3565b905092915050565b6000602082019050818103600083015261057a818461040c565b905092915050565b600061058c61059d565b905061059882826106b0565b919050565b6000604051905090565b600067ffffffffffffffff8211156105c2576105c1610710565b5b6105cb82610753565b9050602081019050919050565b60008190508160005260206000209050919050565b600081519050919050565b600081519050919050565b600082825260208201905092915050565b600082825260208201905092915050565b600081905092915050565b60008115159050919050565b82818337600083830152505050565b60005b8381101561066957808201518184015260208101905061064e565b83811115610678576000848401525b50505050565b6000600282049050600182168061069657607f821691505b602082108114156106aa576106a96106e1565b5b50919050565b6106b982610753565b810181811067ffffffffffffffff821117156106d8576106d7610710565b5b80604052505050565b7f4e487b7100000000000000000000000000000000000000000000000000000000600052602260045260246000fd5b7f4e487b7100000000000000000000000000000000000000000000000000000000600052604160045260246000fd5b600080fd5b600080fd5b600080fd5b600080fd5b6000601f19601f830116905091905056fea2646970667358221220818f249ac4887152f36c50dce380f26794dc5152fb9de22f9da8c37bf36c794064736f6c63430008070033",
					"opcodes": "PUSH1 0x80 PUSH1 0x40 MSTORE PUSH1 0x40 MLOAD DUP1 PUSH1 0x40 ADD PUSH1 0x40 MSTORE DUP1 PUSH1 0xB DUP2 MSTORE PUSH1 0x20 ADD PUSH32 0x48656C6C6F20576F726C64000000000000000000000000000000000000000000 DUP2 MSTORE POP PUSH1 0x0 SWAP1 DUP1 MLOAD SWAP1 PUSH1 0x20 ADD SWAP1 PUSH3 0x51 SWAP3 SWAP2 SWAP1 PUSH3 0xB4 JUMP JUMPDEST POP PUSH1 0x40 MLOAD DUP1 PUSH1 0x40 ADD PUSH1 0x40 MSTORE DUP1 PUSH1 0xB DUP2 MSTORE PUSH1 0x20 ADD PUSH32 0x48656C6C6F20576F726C64000000000000000000000000000000000000000000 DUP2 MSTORE POP PUSH1 0x1 SWAP1 DUP1 MLOAD SWAP1 PUSH1 0x20 ADD SWAP1 PUSH3 0x9F SWAP3 SWAP2 SWAP1 PUSH3 0x145 JUMP JUMPDEST POP CALLVALUE DUP1 ISZERO PUSH3 0xAD JUMPI PUSH1 0x0 DUP1 REVERT JUMPDEST POP PUSH3 0x25A JUMP JUMPDEST DUP3 DUP1 SLOAD PUSH3 0xC2 SWAP1 PUSH3 0x1F5 JUMP JUMPDEST SWAP1 PUSH1 0x0 MSTORE PUSH1 0x20 PUSH1 0x0 KECCAK256 SWAP1 PUSH1 0x1F ADD PUSH1 0x20 SWAP1 DIV DUP2 ADD SWAP3 DUP3 PUSH3 0xE6 JUMPI PUSH1 0x0 DUP6 SSTORE PUSH3 0x132 JUMP JUMPDEST DUP3 PUSH1 0x1F LT PUSH3 0x101 JUMPI DUP1 MLOAD PUSH1 0xFF NOT AND DUP4 DUP1 ADD OR DUP6 SSTORE PUSH3 0x132 JUMP JUMPDEST DUP3 DUP1 ADD PUSH1 0x1 ADD DUP6 SSTORE DUP3 ISZERO PUSH3 0x132 JUMPI SWAP2 DUP3 ADD JUMPDEST DUP3 DUP2 GT ISZERO PUSH3 0x131 JUMPI DUP3 MLOAD DUP3 SSTORE SWAP2 PUSH1 0x20 ADD SWAP2 SWAP1 PUSH1 0x1 ADD SWAP1 PUSH3 0x114 JUMP JUMPDEST JUMPDEST POP SWAP1 POP PUSH3 0x141 SWAP2 SWAP1 PUSH3 0x1D6 JUMP JUMPDEST POP SWAP1 JUMP JUMPDEST DUP3 DUP1 SLOAD PUSH3 0x153 SWAP1 PUSH3 0x1F5 JUMP JUMPDEST SWAP1 PUSH1 0x0 MSTORE PUSH1 0x20 PUSH1 0x0 KECCAK256 SWAP1 PUSH1 0x1F ADD PUSH1 0x20 SWAP1 DIV DUP2 ADD SWAP3 DUP3 PUSH3 0x177 JUMPI PUSH1 0x0 DUP6 SSTORE PUSH3 0x1C3 JUMP JUMPDEST DUP3 PUSH1 0x1F LT PUSH3 0x192 JUMPI DUP1 MLOAD PUSH1 0xFF NOT AND DUP4 DUP1 ADD OR DUP6 SSTORE PUSH3 0x1C3 JUMP JUMPDEST DUP3 DUP1 ADD PUSH1 0x1 ADD DUP6 SSTORE DUP3 ISZERO PUSH3 0x1C3 JUMPI SWAP2 DUP3 ADD JUMPDEST DUP3 DUP2 GT ISZERO PUSH3 0x1C2 JUMPI DUP3 MLOAD DUP3 SSTORE SWAP2 PUSH1 0x20 ADD SWAP2 SWAP1 PUSH1 0x1 ADD SWAP1 PUSH3 0x1A5 JUMP JUMPDEST JUMPDEST POP SWAP1 POP PUSH3 0x1D2 SWAP2 SWAP1 PUSH3 0x1D6 JUMP JUMPDEST POP SWAP1 JUMP JUMPDEST JUMPDEST DUP1 DUP3 GT ISZERO PUSH3 0x1F1 JUMPI PUSH1 0x0 DUP2 PUSH1 0x0 SWAP1 SSTORE POP PUSH1 0x1 ADD PUSH3 0x1D7 JUMP JUMPDEST POP SWAP1 JUMP JUMPDEST PUSH1 0x0 PUSH1 0x2 DUP3 DIV SWAP1 POP PUSH1 0x1 DUP3 AND DUP1 PUSH3 0x20E JUMPI PUSH1 0x7F DUP3 AND SWAP2 POP JUMPDEST PUSH1 0x20 DUP3 LT DUP2 EQ ISZERO PUSH3 0x225 JUMPI PUSH3 0x224 PUSH3 0x22B JUMP JUMPDEST JUMPDEST POP SWAP2 SWAP1 POP JUMP JUMPDEST PUSH32 0x4E487B7100000000000000000000000000000000000000000000000000000000 PUSH1 0x0 MSTORE PUSH1 0x22 PUSH1 0x4 MSTORE PUSH1 0x24 PUSH1 0x0 REVERT JUMPDEST PUSH2 0x79A DUP1 PUSH3 0x26A PUSH1 0x0 CODECOPY PUSH1 0x0 RETURN INVALID PUSH1 0x80 PUSH1 0x40 MSTORE CALLVALUE DUP1 ISZERO PUSH2 0x10 JUMPI PUSH1 0x0 DUP1 REVERT JUMPDEST POP PUSH1 0x4 CALLDATASIZE LT PUSH2 0x4C JUMPI PUSH1 0x0 CALLDATALOAD PUSH1 0xE0 SHR DUP1 PUSH4 0x492BFA18 EQ PUSH2 0x51 JUMPI DUP1 PUSH4 0x5CE25353 EQ PUSH2 0x6F JUMPI DUP1 PUSH4 0x712F4602 EQ PUSH2 0x9F JUMPI DUP1 PUSH4 0x82180568 EQ PUSH2 0xBD JUMPI JUMPDEST PUSH1 0x0 DUP1 REVERT JUMPDEST PUSH2 0x59 PUSH2 0xD9 JUMP JUMPDEST PUSH1 0x40 MLOAD PUSH2 0x66 SWAP2 SWAP1 PUSH2 0x560 JUMP JUMPDEST PUSH1 0x40 MLOAD DUP1 SWAP2 SUB SWAP1 RETURN JUMPDEST PUSH2 0x89 PUSH1 0x4 DUP1 CALLDATASIZE SUB DUP2 ADD SWAP1 PUSH2 0x84 SWAP2 SWAP1 PUSH2 0x37B JUMP JUMPDEST PUSH2 0x167 JUMP JUMPDEST PUSH1 0x40 MLOAD PUSH2 0x96 SWAP2 SWAP1 PUSH2 0x523 JUMP JUMPDEST PUSH1 0x40 MLOAD DUP1 SWAP2 SUB SWAP1 RETURN JUMPDEST PUSH2 0xA7 PUSH2 0x1C0 JUMP JUMPDEST PUSH1 0x40 MLOAD PUSH2 0xB4 SWAP2 SWAP1 PUSH2 0x53E JUMP JUMPDEST PUSH1 0x40 MLOAD DUP1 SWAP2 SUB SWAP1 RETURN JUMPDEST PUSH2 0xD7 PUSH1 0x4 DUP1 CALLDATASIZE SUB DUP2 ADD SWAP1 PUSH2 0xD2 SWAP2 SWAP1 PUSH2 0x37B JUMP JUMPDEST PUSH2 0x24E JUMP JUMPDEST STOP JUMPDEST PUSH1 0x0 DUP1 SLOAD PUSH2 0xE6 SWAP1 PUSH2 0x67E JUMP JUMPDEST DUP1 PUSH1 0x1F ADD PUSH1 0x20 DUP1 SWAP2 DIV MUL PUSH1 0x20 ADD PUSH1 0x40 MLOAD SWAP1 DUP2 ADD PUSH1 0x40 MSTORE DUP1 SWAP3 SWAP2 SWAP1 DUP2 DUP2 MSTORE PUSH1 0x20 ADD DUP3 DUP1 SLOAD PUSH2 0x112 SWAP1 PUSH2 0x67E JUMP JUMPDEST DUP1 ISZERO PUSH2 0x15F JUMPI DUP1 PUSH1 0x1F LT PUSH2 0x134 JUMPI PUSH2 0x100 DUP1 DUP4 SLOAD DIV MUL DUP4 MSTORE SWAP2 PUSH1 0x20 ADD SWAP2 PUSH2 0x15F JUMP JUMPDEST DUP3 ADD SWAP2 SWAP1 PUSH1 0x0 MSTORE PUSH1 0x20 PUSH1 0x0 KECCAK256 SWAP1 JUMPDEST DUP2 SLOAD DUP2 MSTORE SWAP1 PUSH1 0x1 ADD SWAP1 PUSH1 0x20 ADD DUP1 DUP4 GT PUSH2 0x142 JUMPI DUP3 SWAP1 SUB PUSH1 0x1F AND DUP3 ADD SWAP2 JUMPDEST POP POP POP POP POP DUP2 JUMP JUMPDEST PUSH1 0x0 DUP2 PUSH1 0x40 MLOAD PUSH1 0x20 ADD PUSH2 0x17A SWAP2 SWAP1 PUSH2 0x4F5 JUMP JUMPDEST PUSH1 0x40 MLOAD PUSH1 0x20 DUP2 DUP4 SUB SUB DUP2 MSTORE SWAP1 PUSH1 0x40 MSTORE DUP1 MLOAD SWAP1 PUSH1 0x20 ADD KECCAK256 PUSH1 0x0 PUSH1 0x40 MLOAD PUSH1 0x20 ADD PUSH2 0x1A2 SWAP2 SWAP1 PUSH2 0x50C JUMP JUMPDEST PUSH1 0x40 MLOAD PUSH1 0x20 DUP2 DUP4 SUB SUB DUP2 MSTORE SWAP1 PUSH1 0x40 MSTORE DUP1 MLOAD SWAP1 PUSH1 0x20 ADD KECCAK256 EQ SWAP1 POP SWAP2 SWAP1 POP JUMP JUMPDEST PUSH1 0x1 DUP1 SLOAD PUSH2 0x1CD SWAP1 PUSH2 0x67E JUMP JUMPDEST DUP1 PUSH1 0x1F ADD PUSH1 0x20 DUP1 SWAP2 DIV MUL PUSH1 0x20 ADD PUSH1 0x40 MLOAD SWAP1 DUP2 ADD PUSH1 0x40 MSTORE DUP1 SWAP3 SWAP2 SWAP1 DUP2 DUP2 MSTORE PUSH1 0x20 ADD DUP3 DUP1 SLOAD PUSH2 0x1F9 SWAP1 PUSH2 0x67E JUMP JUMPDEST DUP1 ISZERO PUSH2 0x246 JUMPI DUP1 PUSH1 0x1F LT PUSH2 0x21B JUMPI PUSH2 0x100 DUP1 DUP4 SLOAD DIV MUL DUP4 MSTORE SWAP2 PUSH1 0x20 ADD SWAP2 PUSH2 0x246 JUMP JUMPDEST DUP3 ADD SWAP2 SWAP1 PUSH1 0x0 MSTORE PUSH1 0x20 PUSH1 0x0 KECCAK256 SWAP1 JUMPDEST DUP2 SLOAD DUP2 MSTORE SWAP1 PUSH1 0x1 ADD SWAP1 PUSH1 0x20 ADD DUP1 DUP4 GT PUSH2 0x229 JUMPI DUP3 SWAP1 SUB PUSH1 0x1F AND DUP3 ADD SWAP2 JUMPDEST POP POP POP POP POP DUP2 JUMP JUMPDEST DUP1 PUSH1 0x0 SWAP1 DUP1 MLOAD SWAP1 PUSH1 0x20 ADD SWAP1 PUSH2 0x264 SWAP3 SWAP2 SWAP1 PUSH2 0x268 JUMP JUMPDEST POP POP JUMP JUMPDEST DUP3 DUP1 SLOAD PUSH2 0x274 SWAP1 PUSH2 0x67E JUMP JUMPDEST SWAP1 PUSH1 0x0 MSTORE PUSH1 0x20 PUSH1 0x0 KECCAK256 SWAP1 PUSH1 0x1F ADD PUSH1 0x20 SWAP1 DIV DUP2 ADD SWAP3 DUP3 PUSH2 0x296 JUMPI PUSH1 0x0 DUP6 SSTORE PUSH2 0x2DD JUMP JUMPDEST DUP3 PUSH1 0x1F LT PUSH2 0x2AF JUMPI DUP1 MLOAD PUSH1 0xFF NOT AND DUP4 DUP1 ADD OR DUP6 SSTORE PUSH2 0x2DD JUMP JUMPDEST DUP3 DUP1 ADD PUSH1 0x1 ADD DUP6 SSTORE DUP3 ISZERO PUSH2 0x2DD JUMPI SWAP2 DUP3 ADD JUMPDEST DUP3 DUP2 GT ISZERO PUSH2 0x2DC JUMPI DUP3 MLOAD DUP3 SSTORE SWAP2 PUSH1 0x20 ADD SWAP2 SWAP1 PUSH1 0x1 ADD SWAP1 PUSH2 0x2C1 JUMP JUMPDEST JUMPDEST POP SWAP1 POP PUSH2 0x2EA SWAP2 SWAP1 PUSH2 0x2EE JUMP JUMPDEST POP SWAP1 JUMP JUMPDEST JUMPDEST DUP1 DUP3 GT ISZERO PUSH2 0x307 JUMPI PUSH1 0x0 DUP2 PUSH1 0x0 SWAP1 SSTORE POP PUSH1 0x1 ADD PUSH2 0x2EF JUMP JUMPDEST POP SWAP1 JUMP JUMPDEST PUSH1 0x0 PUSH2 0x31E PUSH2 0x319 DUP5 PUSH2 0x5A7 JUMP JUMPDEST PUSH2 0x582 JUMP JUMPDEST SWAP1 POP DUP3 DUP2 MSTORE PUSH1 0x20 DUP2 ADD DUP5 DUP5 DUP5 ADD GT ISZERO PUSH2 0x33A JUMPI PUSH2 0x339 PUSH2 0x744 JUMP JUMPDEST JUMPDEST PUSH2 0x345 DUP5 DUP3 DUP6 PUSH2 0x63C JUMP JUMPDEST POP SWAP4 SWAP3 POP POP POP JUMP JUMPDEST PUSH1 0x0 DUP3 PUSH1 0x1F DUP4 ADD SLT PUSH2 0x362 JUMPI PUSH2 0x361 PUSH2 0x73F JUMP JUMPDEST JUMPDEST DUP2 CALLDATALOAD PUSH2 0x372 DUP5 DUP3 PUSH1 0x20 DUP7 ADD PUSH2 0x30B JUMP JUMPDEST SWAP2 POP POP SWAP3 SWAP2 POP POP JUMP JUMPDEST PUSH1 0x0 PUSH1 0x20 DUP3 DUP5 SUB SLT ISZERO PUSH2 0x391 JUMPI PUSH2 0x390 PUSH2 0x74E JUMP JUMPDEST JUMPDEST PUSH1 0x0 DUP3 ADD CALLDATALOAD PUSH8 0xFFFFFFFFFFFFFFFF DUP2 GT ISZERO PUSH2 0x3AF JUMPI PUSH2 0x3AE PUSH2 0x749 JUMP JUMPDEST JUMPDEST PUSH2 0x3BB DUP5 DUP3 DUP6 ADD PUSH2 0x34D JUMP JUMPDEST SWAP2 POP POP SWAP3 SWAP2 POP POP JUMP JUMPDEST PUSH2 0x3CD DUP2 PUSH2 0x630 JUMP JUMPDEST DUP3 MSTORE POP POP JUMP JUMPDEST PUSH1 0x0 PUSH2 0x3DE DUP3 PUSH2 0x5ED JUMP JUMPDEST PUSH2 0x3E8 DUP2 DUP6 PUSH2 0x603 JUMP JUMPDEST SWAP4 POP PUSH2 0x3F8 DUP2 DUP6 PUSH1 0x20 DUP7 ADD PUSH2 0x64B JUMP JUMPDEST PUSH2 0x401 DUP2 PUSH2 0x753 JUMP JUMPDEST DUP5 ADD SWAP2 POP POP SWAP3 SWAP2 POP POP JUMP JUMPDEST PUSH1 0x0 PUSH2 0x417 DUP3 PUSH2 0x5F8 JUMP JUMPDEST PUSH2 0x421 DUP2 DUP6 PUSH2 0x614 JUMP JUMPDEST SWAP4 POP PUSH2 0x431 DUP2 DUP6 PUSH1 0x20 DUP7 ADD PUSH2 0x64B JUMP JUMPDEST PUSH2 0x43A DUP2 PUSH2 0x753 JUMP JUMPDEST DUP5 ADD SWAP2 POP POP SWAP3 SWAP2 POP POP JUMP JUMPDEST PUSH1 0x0 PUSH2 0x450 DUP3 PUSH2 0x5F8 JUMP JUMPDEST PUSH2 0x45A DUP2 DUP6 PUSH2 0x625 JUMP JUMPDEST SWAP4 POP PUSH2 0x46A DUP2 DUP6 PUSH1 0x20 DUP7 ADD PUSH2 0x64B JUMP JUMPDEST DUP1 DUP5 ADD SWAP2 POP POP SWAP3 SWAP2 POP POP JUMP JUMPDEST PUSH1 0x0 DUP2 SLOAD PUSH2 0x483 DUP2 PUSH2 0x67E JUMP JUMPDEST PUSH2 0x48D DUP2 DUP7 PUSH2 0x625 JUMP JUMPDEST SWAP5 POP PUSH1 0x1 DUP3 AND PUSH1 0x0 DUP2 EQ PUSH2 0x4A8 JUMPI PUSH1 0x1 DUP2 EQ PUSH2 0x4B9 JUMPI PUSH2 0x4EC JUMP JUMPDEST PUSH1 0xFF NOT DUP4 AND DUP7 MSTORE DUP2 DUP7 ADD SWAP4 POP PUSH2 0x4EC JUMP JUMPDEST PUSH2 0x4C2 DUP6 PUSH2 0x5D8 JUMP JUMPDEST PUSH1 0x0 JUMPDEST DUP4 DUP2 LT ISZERO PUSH2 0x4E4 JUMPI DUP2 SLOAD DUP2 DUP10 ADD MSTORE PUSH1 0x1 DUP3 ADD SWAP2 POP PUSH1 0x20 DUP2 ADD SWAP1 POP PUSH2 0x4C5 JUMP JUMPDEST DUP4 DUP9 ADD SWAP6 POP POP POP JUMPDEST POP POP POP SWAP3 SWAP2 POP POP JUMP JUMPDEST PUSH1 0x0 PUSH2 0x501 DUP3 DUP5 PUSH2 0x445 JUMP JUMPDEST SWAP2 POP DUP2 SWAP1 POP SWAP3 SWAP2 POP POP JUMP JUMPDEST PUSH1 0x0 PUSH2 0x518 DUP3 DUP5 PUSH2 0x476 JUMP JUMPDEST SWAP2 POP DUP2 SWAP1 POP SWAP3 SWAP2 POP POP JUMP JUMPDEST PUSH1 0x0 PUSH1 0x20 DUP3 ADD SWAP1 POP PUSH2 0x538 PUSH1 0x0 DUP4 ADD DUP5 PUSH2 0x3C4 JUMP JUMPDEST SWAP3 SWAP2 POP POP JUMP JUMPDEST PUSH1 0x0 PUSH1 0x20 DUP3 ADD SWAP1 POP DUP2 DUP2 SUB PUSH1 0x0 DUP4 ADD MSTORE PUSH2 0x558 DUP2 DUP5 PUSH2 0x3D3 JUMP JUMPDEST SWAP1 POP SWAP3 SWAP2 POP POP JUMP JUMPDEST PUSH1 0x0 PUSH1 0x20 DUP3 ADD SWAP1 POP DUP2 DUP2 SUB PUSH1 0x0 DUP4 ADD MSTORE PUSH2 0x57A DUP2 DUP5 PUSH2 0x40C JUMP JUMPDEST SWAP1 POP SWAP3 SWAP2 POP POP JUMP JUMPDEST PUSH1 0x0 PUSH2 0x58C PUSH2 0x59D JUMP JUMPDEST SWAP1 POP PUSH2 0x598 DUP3 DUP3 PUSH2 0x6B0 JUMP JUMPDEST SWAP2 SWAP1 POP JUMP JUMPDEST PUSH1 0x0 PUSH1 0x40 MLOAD SWAP1 POP SWAP1 JUMP JUMPDEST PUSH1 0x0 PUSH8 0xFFFFFFFFFFFFFFFF DUP3 GT ISZERO PUSH2 0x5C2 JUMPI PUSH2 0x5C1 PUSH2 0x710 JUMP JUMPDEST JUMPDEST PUSH2 0x5CB DUP3 PUSH2 0x753 JUMP JUMPDEST SWAP1 POP PUSH1 0x20 DUP2 ADD SWAP1 POP SWAP2 SWAP1 POP JUMP JUMPDEST PUSH1 0x0 DUP2 SWAP1 POP DUP2 PUSH1 0x0 MSTORE PUSH1 0x20 PUSH1 0x0 KECCAK256 SWAP1 POP SWAP2 SWAP1 POP JUMP JUMPDEST PUSH1 0x0 DUP2 MLOAD SWAP1 POP SWAP2 SWAP1 POP JUMP JUMPDEST PUSH1 0x0 DUP2 MLOAD SWAP1 POP SWAP2 SWAP1 POP JUMP JUMPDEST PUSH1 0x0 DUP3 DUP3 MSTORE PUSH1 0x20 DUP3 ADD SWAP1 POP SWAP3 SWAP2 POP POP JUMP JUMPDEST PUSH1 0x0 DUP3 DUP3 MSTORE PUSH1 0x20 DUP3 ADD SWAP1 POP SWAP3 SWAP2 POP POP JUMP JUMPDEST PUSH1 0x0 DUP2 SWAP1 POP SWAP3 SWAP2 POP POP JUMP JUMPDEST PUSH1 0x0 DUP2 ISZERO ISZERO SWAP1 POP SWAP2 SWAP1 POP JUMP JUMPDEST DUP3 DUP2 DUP4 CALLDATACOPY PUSH1 0x0 DUP4 DUP4 ADD MSTORE POP POP POP JUMP JUMPDEST PUSH1 0x0 JUMPDEST DUP4 DUP2 LT ISZERO PUSH2 0x669 JUMPI DUP1 DUP3 ADD MLOAD DUP2 DUP5 ADD MSTORE PUSH1 0x20 DUP2 ADD SWAP1 POP PUSH2 0x64E JUMP JUMPDEST DUP4 DUP2 GT ISZERO PUSH2 0x678 JUMPI PUSH1 0x0 DUP5 DUP5 ADD MSTORE JUMPDEST POP POP POP POP JUMP JUMPDEST PUSH1 0x0 PUSH1 0x2 DUP3 DIV SWAP1 POP PUSH1 0x1 DUP3 AND DUP1 PUSH2 0x696 JUMPI PUSH1 0x7F DUP3 AND SWAP2 POP JUMPDEST PUSH1 0x20 DUP3 LT DUP2 EQ ISZERO PUSH2 0x6AA JUMPI PUSH2 0x6A9 PUSH2 0x6E1 JUMP JUMPDEST JUMPDEST POP SWAP2 SWAP1 POP JUMP JUMPDEST PUSH2 0x6B9 DUP3 PUSH2 0x753 JUMP JUMPDEST DUP2 ADD DUP2 DUP2 LT PUSH8 0xFFFFFFFFFFFFFFFF DUP3 GT OR ISZERO PUSH2 0x6D8 JUMPI PUSH2 0x6D7 PUSH2 0x710 JUMP JUMPDEST JUMPDEST DUP1 PUSH1 0x40 MSTORE POP POP POP JUMP JUMPDEST PUSH32 0x4E487B7100000000000000000000000000000000000000000000000000000000 PUSH1 0x0 MSTORE PUSH1 0x22 PUSH1 0x4 MSTORE PUSH1 0x24 PUSH1 0x0 REVERT JUMPDEST PUSH32 0x4E487B7100000000000000000000000000000000000000000000000000000000 PUSH1 0x0 MSTORE PUSH1 0x41 PUSH1 0x4 MSTORE PUSH1 0x24 PUSH1 0x0 REVERT JUMPDEST PUSH1 0x0 DUP1 REVERT JUMPDEST PUSH1 0x0 DUP1 REVERT JUMPDEST PUSH1 0x0 DUP1 REVERT JUMPDEST PUSH1 0x0 DUP1 REVERT JUMPDEST PUSH1 0x0 PUSH1 0x1F NOT PUSH1 0x1F DUP4 ADD AND SWAP1 POP SWAP2 SWAP1 POP JUMP INVALID LOG2 PUSH5 0x6970667358 0x22 SLT KECCAK256 DUP2 DUP16 0x24 SWAP11 0xC4 DUP9 PUSH18 0x52F36C50DCE380F26794DC5152FB9DE22F9D 0xA8 0xC3 PUSH28 0xF36C794064736F6C6343000807003300000000000000000000000000 "
				},
				"gasEstimates": {
					"creation": {
						"codeDepositCost": "389200",
						"executionCost": "infinite",
						"totalCost": "infinite"
					},
					"external": {
						"compareTwoStrings(string)": "infinite",
						"myBytes()": "infinite",
						"myString()": "infinite",
						"setMyString(string)": "infinite"
					}
				},
				"methodIdentifiers": {
					"compareTwoStrings(string)": "5ce25353",
					"myBytes()": "712f4602",
					"myString()": "492bfa18",
					"setMyString(string)": "82180568"
				}
			},
			"storageLayout": {
				"storage": [
					{
						"astId": 4,
						"contract": "contracts/ExampleStrings.sol:ExampleStrings",
						"label": "myString",
						"offset": 0,
						"slot": "0",
						"type": "t_string_storage"
					},
					{
						"astId": 7,
						"contract": "contracts/ExampleStrings.sol:ExampleStrings",
						"label": "myBytes",
						"offset": 0,
						"slot": "1",
						"type": "t_bytes_storage"
					}
				],
				"types": {
					"t_bytes_storage": {
						"encoding": "bytes",
						"label": "bytes",
						"numberOfBytes": "32"
					},
					"t_string_storage": {
						"encoding": "bytes",
						"label": "string",
						"numberOfBytes": "32"
					}
				}
			},
			"userdoc": {
				"kind": "user",
				"methods": {},
				"version": 1
			}
		}
	}
}