{
	"contracts/SendMoney.sol": {
		"SendMoney": {
			"abi": [
				{
					"inputs": [],
					"name": "balanceReceived",
					"outputs": [
						{
							"internalType": "uint256",
							"name": "",
							"type": "uint256"
						}
					],
					"stateMutability": "view",
					"type": "function"
				},
				{
					"inputs": [],
					"name": "deposit",
					"outputs": [],
					"stateMutability": "payable",
					"type": "function"
				},
				{
					"inputs": [],
					"name": "getContractBalance",
					"outputs": [
						{
							"internalType": "uint256",
							"name": "",
							"type": "uint256"
						}
					],
					"stateMutability": "view",
					"type": "function"
				},
				{
					"inputs": [],
					"name": "withdrawAll",
					"outputs": [],
					"stateMutability": "nonpayable",
					"type": "function"
				},
				{
					"inputs": [
						{
							"internalType": "address payable",
							"name": "to",
							"type": "address"
						}
					],
					"name": "withdrawToAddress",
					"outputs": [],
					"stateMutability": "nonpayable",
					"type": "function"
				}
			],
			"devdoc": {
				"kind": "dev",
				"methods": {},
				"version": 1
			},
			"evm": {
				"assembly": "    /* \"contracts/SendMoney.sol\":61:574  contract SendMoney {\r... */\n  mstore(0x40, 0x80)\n  callvalue\n  dup1\n  iszero\n  tag_1\n  jumpi\n  0x00\n  dup1\n  revert\ntag_1:\n  pop\n  dataSize(sub_0)\n  dup1\n  dataOffset(sub_0)\n  0x00\n  codecopy\n  0x00\n  return\nstop\n\nsub_0: assembly {\n        /* \"contracts/SendMoney.sol\":61:574  contract SendMoney {\r... */\n      mstore(0x40, 0x80)\n      jumpi(tag_1, lt(calldatasize, 0x04))\n      shr(0xe0, calldataload(0x00))\n      dup1\n      0x52a90c42\n      eq\n      tag_2\n      jumpi\n      dup1\n      0x6f9fb98a\n      eq\n      tag_3\n      jumpi\n      dup1\n      0x853828b6\n      eq\n      tag_4\n      jumpi\n      dup1\n      0xa92bd72c\n      eq\n      tag_5\n      jumpi\n      dup1\n      0xd0e30db0\n      eq\n      tag_6\n      jumpi\n    tag_1:\n      0x00\n      dup1\n      revert\n        /* \"contracts/SendMoney.sol\":89:116  uint public balanceReceived */\n    tag_2:\n      callvalue\n      dup1\n      iszero\n      tag_7\n      jumpi\n      0x00\n      dup1\n      revert\n    tag_7:\n      pop\n      tag_8\n      tag_9\n      jump\t// in\n    tag_8:\n      mload(0x40)\n      tag_10\n      swap2\n      swap1\n      tag_11\n      jump\t// in\n    tag_10:\n      mload(0x40)\n      dup1\n      swap2\n      sub\n      swap1\n      return\n        /* \"contracts/SendMoney.sol\":211:314  function getContractBalance() public view returns(uint) {\r... */\n    tag_3:\n      callvalue\n      dup1\n      iszero\n      tag_12\n      jumpi\n      0x00\n      dup1\n      revert\n    tag_12:\n      pop\n      tag_13\n      tag_14\n      jump\t// in\n    tag_13:\n      mload(0x40)\n      tag_15\n      swap2\n      swap1\n      tag_11\n      jump\t// in\n    tag_15:\n      mload(0x40)\n      dup1\n      swap2\n      sub\n      swap1\n      return\n        /* \"contracts/SendMoney.sol\":322:455  function withdrawAll() public {\r... */\n    tag_4:\n      callvalue\n      dup1\n      iszero\n      tag_16\n      jumpi\n      0x00\n      dup1\n      revert\n    tag_16:\n      pop\n      tag_17\n      tag_18\n      jump\t// in\n    tag_17:\n      stop\n        /* \"contracts/SendMoney.sol\":463:569  function withdrawToAddress(address payable to) public {\r... */\n    tag_5:\n      callvalue\n      dup1\n      iszero\n      tag_19\n      jumpi\n      0x00\n      dup1\n      revert\n    tag_19:\n      pop\n      tag_20\n      0x04\n      dup1\n      calldatasize\n      sub\n      dup2\n      add\n      swap1\n      tag_21\n      swap2\n      swap1\n      tag_22\n      jump\t// in\n    tag_21:\n      tag_23\n      jump\t// in\n    tag_20:\n      stop\n        /* \"contracts/SendMoney.sol\":123:203  function deposit() public payable{\r... */\n    tag_6:\n      tag_24\n      tag_25\n      jump\t// in\n    tag_24:\n      stop\n        /* \"contracts/SendMoney.sol\":89:116  uint public balanceReceived */\n    tag_9:\n      sload(0x00)\n      dup2\n      jump\t// out\n        /* \"contracts/SendMoney.sol\":211:314  function getContractBalance() public view returns(uint) {\r... */\n    tag_14:\n        /* \"contracts/SendMoney.sol\":261:265  uint */\n      0x00\n        /* \"contracts/SendMoney.sol\":285:306  address(this).balance */\n      selfbalance\n        /* \"contracts/SendMoney.sol\":278:306  return address(this).balance */\n      swap1\n      pop\n        /* \"contracts/SendMoney.sol\":211:314  function getContractBalance() public view returns(uint) {\r... */\n      swap1\n      jump\t// out\n        /* \"contracts/SendMoney.sol\":322:455  function withdrawAll() public {\r... */\n    tag_18:\n        /* \"contracts/SendMoney.sol\":363:381  address payable to */\n      0x00\n        /* \"contracts/SendMoney.sol\":392:402  msg.sender */\n      caller\n        /* \"contracts/SendMoney.sol\":363:403  address payable to = payable(msg.sender) */\n      swap1\n      pop\n        /* \"contracts/SendMoney.sol\":414:416  to */\n      dup1\n        /* \"contracts/SendMoney.sol\":414:425  to.transfer */\n      0xffffffffffffffffffffffffffffffffffffffff\n      and\n        /* \"contracts/SendMoney.sol\":414:447  to.transfer(getContractBalance()) */\n      0x08fc\n        /* \"contracts/SendMoney.sol\":426:446  getContractBalance() */\n      tag_28\n        /* \"contracts/SendMoney.sol\":426:444  getContractBalance */\n      tag_14\n        /* \"contracts/SendMoney.sol\":426:446  getContractBalance() */\n      jump\t// in\n    tag_28:\n        /* \"contracts/SendMoney.sol\":414:447  to.transfer(getContractBalance()) */\n      swap1\n      dup2\n      iszero\n      mul\n      swap1\n      mload(0x40)\n      0x00\n      mload(0x40)\n      dup1\n      dup4\n      sub\n      dup2\n      dup6\n      dup9\n      dup9\n      call\n      swap4\n      pop\n      pop\n      pop\n      pop\n      iszero\n      dup1\n      iszero\n      tag_30\n      jumpi\n      returndatasize\n      0x00\n      dup1\n      returndatacopy\n      revert(0x00, returndatasize)\n    tag_30:\n      pop\n        /* \"contracts/SendMoney.sol\":352:455  {\r... */\n      pop\n        /* \"contracts/SendMoney.sol\":322:455  function withdrawAll() public {\r... */\n      jump\t// out\n        /* \"contracts/SendMoney.sol\":463:569  function withdrawToAddress(address payable to) public {\r... */\n    tag_23:\n        /* \"contracts/SendMoney.sol\":528:530  to */\n      dup1\n        /* \"contracts/SendMoney.sol\":528:539  to.transfer */\n      0xffffffffffffffffffffffffffffffffffffffff\n      and\n        /* \"contracts/SendMoney.sol\":528:561  to.transfer(getContractBalance()) */\n      0x08fc\n        /* \"contracts/SendMoney.sol\":540:560  getContractBalance() */\n      tag_32\n        /* \"contracts/SendMoney.sol\":540:558  getContractBalance */\n      tag_14\n        /* \"contracts/SendMoney.sol\":540:560  getContractBalance() */\n      jump\t// in\n    tag_32:\n        /* \"contracts/SendMoney.sol\":528:561  to.transfer(getContractBalance()) */\n      swap1\n      dup2\n      iszero\n      mul\n      swap1\n      mload(0x40)\n      0x00\n      mload(0x40)\n      dup1\n      dup4\n      sub\n      dup2\n      dup6\n      dup9\n      dup9\n      call\n      swap4\n      pop\n      pop\n      pop\n      pop\n      iszero\n      dup1\n      iszero\n      tag_34\n      jumpi\n      returndatasize\n      0x00\n      dup1\n      returndatacopy\n      revert(0x00, returndatasize)\n    tag_34:\n      pop\n        /* \"contracts/SendMoney.sol\":463:569  function withdrawToAddress(address payable to) public {\r... */\n      pop\n      jump\t// out\n        /* \"contracts/SendMoney.sol\":123:203  function deposit() public payable{\r... */\n    tag_25:\n        /* \"contracts/SendMoney.sol\":186:195  msg.value */\n      callvalue\n        /* \"contracts/SendMoney.sol\":167:182  balanceReceived */\n      0x00\n      dup1\n        /* \"contracts/SendMoney.sol\":167:195  balanceReceived += msg.value */\n      dup3\n      dup3\n      sload\n      tag_36\n      swap2\n      swap1\n      tag_37\n      jump\t// in\n    tag_36:\n      swap3\n      pop\n      pop\n      dup2\n      swap1\n      sstore\n      pop\n        /* \"contracts/SendMoney.sol\":123:203  function deposit() public payable{\r... */\n      jump\t// out\n        /* \"#utility.yul\":7:162   */\n    tag_39:\n        /* \"#utility.yul\":61:66   */\n      0x00\n        /* \"#utility.yul\":99:105   */\n      dup2\n        /* \"#utility.yul\":86:106   */\n      calldataload\n        /* \"#utility.yul\":77:106   */\n      swap1\n      pop\n        /* \"#utility.yul\":115:156   */\n      tag_41\n        /* \"#utility.yul\":150:155   */\n      dup2\n        /* \"#utility.yul\":115:156   */\n      tag_42\n      jump\t// in\n    tag_41:\n        /* \"#utility.yul\":7:162   */\n      swap3\n      swap2\n      pop\n      pop\n      jump\t// out\n        /* \"#utility.yul\":168:513   */\n    tag_22:\n        /* \"#utility.yul\":235:241   */\n      0x00\n        /* \"#utility.yul\":284:286   */\n      0x20\n        /* \"#utility.yul\":272:281   */\n      dup3\n        /* \"#utility.yul\":263:270   */\n      dup5\n        /* \"#utility.yul\":259:282   */\n      sub\n        /* \"#utility.yul\":255:287   */\n      slt\n        /* \"#utility.yul\":252:371   */\n      iszero\n      tag_44\n      jumpi\n        /* \"#utility.yul\":290:369   */\n      tag_45\n      tag_46\n      jump\t// in\n    tag_45:\n        /* \"#utility.yul\":252:371   */\n    tag_44:\n        /* \"#utility.yul\":410:411   */\n      0x00\n        /* \"#utility.yul\":435:496   */\n      tag_47\n        /* \"#utility.yul\":488:495   */\n      dup5\n        /* \"#utility.yul\":479:485   */\n      dup3\n        /* \"#utility.yul\":468:477   */\n      dup6\n        /* \"#utility.yul\":464:486   */\n      add\n        /* \"#utility.yul\":435:496   */\n      tag_39\n      jump\t// in\n    tag_47:\n        /* \"#utility.yul\":425:496   */\n      swap2\n      pop\n        /* \"#utility.yul\":381:506   */\n      pop\n        /* \"#utility.yul\":168:513   */\n      swap3\n      swap2\n      pop\n      pop\n      jump\t// out\n        /* \"#utility.yul\":519:637   */\n    tag_48:\n        /* \"#utility.yul\":606:630   */\n      tag_50\n        /* \"#utility.yul\":624:629   */\n      dup2\n        /* \"#utility.yul\":606:630   */\n      tag_51\n      jump\t// in\n    tag_50:\n        /* \"#utility.yul\":601:604   */\n      dup3\n        /* \"#utility.yul\":594:631   */\n      mstore\n        /* \"#utility.yul\":519:637   */\n      pop\n      pop\n      jump\t// out\n        /* \"#utility.yul\":643:865   */\n    tag_11:\n        /* \"#utility.yul\":736:740   */\n      0x00\n        /* \"#utility.yul\":774:776   */\n      0x20\n        /* \"#utility.yul\":763:772   */\n      dup3\n        /* \"#utility.yul\":759:777   */\n      add\n        /* \"#utility.yul\":751:777   */\n      swap1\n      pop\n        /* \"#utility.yul\":787:858   */\n      tag_53\n        /* \"#utility.yul\":855:856   */\n      0x00\n        /* \"#utility.yul\":844:853   */\n      dup4\n        /* \"#utility.yul\":840:857   */\n      add\n        /* \"#utility.yul\":831:837   */\n      dup5\n        /* \"#utility.yul\":787:858   */\n      tag_48\n      jump\t// in\n    tag_53:\n        /* \"#utility.yul\":643:865   */\n      swap3\n      swap2\n      pop\n      pop\n      jump\t// out\n        /* \"#utility.yul\":952:1257   */\n    tag_37:\n        /* \"#utility.yul\":992:995   */\n      0x00\n        /* \"#utility.yul\":1011:1031   */\n      tag_57\n        /* \"#utility.yul\":1029:1030   */\n      dup3\n        /* \"#utility.yul\":1011:1031   */\n      tag_51\n      jump\t// in\n    tag_57:\n        /* \"#utility.yul\":1006:1031   */\n      swap2\n      pop\n        /* \"#utility.yul\":1045:1065   */\n      tag_58\n        /* \"#utility.yul\":1063:1064   */\n      dup4\n        /* \"#utility.yul\":1045:1065   */\n      tag_51\n      jump\t// in\n    tag_58:\n        /* \"#utility.yul\":1040:1065   */\n      swap3\n      pop\n        /* \"#utility.yul\":1199:1200   */\n      dup3\n        /* \"#utility.yul\":1131:1197   */\n      0xffffffffffffffffffffffffffffffffffffffffffffffffffffffffffffffff\n        /* \"#utility.yul\":1127:1201   */\n      sub\n        /* \"#utility.yul\":1124:1125   */\n      dup3\n        /* \"#utility.yul\":1121:1202   */\n      gt\n        /* \"#utility.yul\":1118:1225   */\n      iszero\n      tag_59\n      jumpi\n        /* \"#utility.yul\":1205:1223   */\n      tag_60\n      tag_61\n      jump\t// in\n    tag_60:\n        /* \"#utility.yul\":1118:1225   */\n    tag_59:\n        /* \"#utility.yul\":1249:1250   */\n      dup3\n        /* \"#utility.yul\":1246:1247   */\n      dup3\n        /* \"#utility.yul\":1242:1251   */\n      add\n        /* \"#utility.yul\":1235:1251   */\n      swap1\n      pop\n        /* \"#utility.yul\":952:1257   */\n      swap3\n      swap2\n      pop\n      pop\n      jump\t// out\n        /* \"#utility.yul\":1263:1367   */\n    tag_62:\n        /* \"#utility.yul\":1308:1315   */\n      0x00\n        /* \"#utility.yul\":1337:1361   */\n      tag_64\n        /* \"#utility.yul\":1355:1360   */\n      dup3\n        /* \"#utility.yul\":1337:1361   */\n      tag_65\n      jump\t// in\n    tag_64:\n        /* \"#utility.yul\":1326:1361   */\n      swap1\n      pop\n        /* \"#utility.yul\":1263:1367   */\n      swap2\n      swap1\n      pop\n      jump\t// out\n        /* \"#utility.yul\":1373:1499   */\n    tag_65:\n        /* \"#utility.yul\":1410:1417   */\n      0x00\n        /* \"#utility.yul\":1450:1492   */\n      0xffffffffffffffffffffffffffffffffffffffff\n        /* \"#utility.yul\":1443:1448   */\n      dup3\n        /* \"#utility.yul\":1439:1493   */\n      and\n        /* \"#utility.yul\":1428:1493   */\n      swap1\n      pop\n        /* \"#utility.yul\":1373:1499   */\n      swap2\n      swap1\n      pop\n      jump\t// out\n        /* \"#utility.yul\":1505:1582   */\n    tag_51:\n        /* \"#utility.yul\":1542:1549   */\n      0x00\n        /* \"#utility.yul\":1571:1576   */\n      dup2\n        /* \"#utility.yul\":1560:1576   */\n      swap1\n      pop\n        /* \"#utility.yul\":1505:1582   */\n      swap2\n      swap1\n      pop\n      jump\t// out\n        /* \"#utility.yul\":1588:1768   */\n    tag_61:\n        /* \"#utility.yul\":1636:1713   */\n      0x4e487b7100000000000000000000000000000000000000000000000000000000\n        /* \"#utility.yul\":1633:1634   */\n      0x00\n        /* \"#utility.yul\":1626:1714   */\n      mstore\n        /* \"#utility.yul\":1733:1737   */\n      0x11\n        /* \"#utility.yul\":1730:1731   */\n      0x04\n        /* \"#utility.yul\":1723:1738   */\n      mstore\n        /* \"#utility.yul\":1757:1761   */\n      0x24\n        /* \"#utility.yul\":1754:1755   */\n      0x00\n        /* \"#utility.yul\":1747:1762   */\n      revert\n        /* \"#utility.yul\":1897:2014   */\n    tag_46:\n        /* \"#utility.yul\":2006:2007   */\n      0x00\n        /* \"#utility.yul\":2003:2004   */\n      dup1\n        /* \"#utility.yul\":1996:2008   */\n      revert\n        /* \"#utility.yul\":2020:2158   */\n    tag_42:\n        /* \"#utility.yul\":2101:2133   */\n      tag_73\n        /* \"#utility.yul\":2127:2132   */\n      dup2\n        /* \"#utility.yul\":2101:2133   */\n      tag_62\n      jump\t// in\n    tag_73:\n        /* \"#utility.yul\":2094:2099   */\n      dup2\n        /* \"#utility.yul\":2091:2134   */\n      eq\n        /* \"#utility.yul\":2081:2152   */\n      tag_74\n      jumpi\n        /* \"#utility.yul\":2148:2149   */\n      0x00\n        /* \"#utility.yul\":2145:2146   */\n      dup1\n        /* \"#utility.yul\":2138:2150   */\n      revert\n        /* \"#utility.yul\":2081:2152   */\n    tag_74:\n        /* \"#utility.yul\":2020:2158   */\n      pop\n      jump\t// out\n\n    auxdata: 0xa2646970667358221220cf792979c53ee56bb775224992f3e58d4e7617e14b1001376809196bae5657c364736f6c63430008070033\n}\n",
				"bytecode": {
					"linkReferences": {},
					"object": "608060405234801561001057600080fd5b5061033d806100206000396000f3fe60806040526004361061004a5760003560e01c806352a90c421461004f5780636f9fb98a1461007a578063853828b6146100a5578063a92bd72c146100bc578063d0e30db0146100e5575b600080fd5b34801561005b57600080fd5b506100646100ef565b604051610071919061020f565b60405180910390f35b34801561008657600080fd5b5061008f6100f5565b60405161009c919061020f565b60405180910390f35b3480156100b157600080fd5b506100ba6100fd565b005b3480156100c857600080fd5b506100e360048036038101906100de91906101d3565b610153565b005b6100ed6101a4565b005b60005481565b600047905090565b60003390508073ffffffffffffffffffffffffffffffffffffffff166108fc6101246100f5565b9081150290604051600060405180830381858888f1935050505015801561014f573d6000803e3d6000fd5b5050565b8073ffffffffffffffffffffffffffffffffffffffff166108fc6101756100f5565b9081150290604051600060405180830381858888f193505050501580156101a0573d6000803e3d6000fd5b5050565b346000808282546101b5919061022a565b92505081905550565b6000813590506101cd816102f0565b92915050565b6000602082840312156101e9576101e86102eb565b5b60006101f7848285016101be565b91505092915050565b610209816102b2565b82525050565b60006020820190506102246000830184610200565b92915050565b6000610235826102b2565b9150610240836102b2565b9250827fffffffffffffffffffffffffffffffffffffffffffffffffffffffffffffffff03821115610275576102746102bc565b5b828201905092915050565b600061028b82610292565b9050919050565b600073ffffffffffffffffffffffffffffffffffffffff82169050919050565b6000819050919050565b7f4e487b7100000000000000000000000000000000000000000000000000000000600052601160045260246000fd5b600080fd5b6102f981610280565b811461030457600080fd5b5056fea2646970667358221220cf792979c53ee56bb775224992f3e58d4e7617e14b1001376809196bae5657c364736f6c63430008070033",
					"opcodes": "PUSH1 0x80 PUSH1 0x40 MSTORE CALLVALUE DUP1 ISZERO PUSH2 0x10 JUMPI PUSH1 0x0 DUP1 REVERT JUMPDEST POP PUSH2 0x33D DUP1 PUSH2 0x20 PUSH1 0x0 CODECOPY PUSH1 0x0 RETURN INVALID PUSH1 0x80 PUSH1 0x40 MSTORE PUSH1 0x4 CALLDATASIZE LT PUSH2 0x4A JUMPI PUSH1 0x0 CALLDATALOAD PUSH1 0xE0 SHR DUP1 PUSH4 0x52A90C42 EQ PUSH2 0x4F JUMPI DUP1 PUSH4 0x6F9FB98A EQ PUSH2 0x7A JUMPI DUP1 PUSH4 0x853828B6 EQ PUSH2 0xA5 JUMPI DUP1 PUSH4 0xA92BD72C EQ PUSH2 0xBC JUMPI DUP1 PUSH4 0xD0E30DB0 EQ PUSH2 0xE5 JUMPI JUMPDEST PUSH1 0x0 DUP1 REVERT JUMPDEST CALLVALUE DUP1 ISZERO PUSH2 0x5B JUMPI PUSH1 0x0 DUP1 REVERT JUMPDEST POP PUSH2 0x64 PUSH2 0xEF JUMP JUMPDEST PUSH1 0x40 MLOAD PUSH2 0x71 SWAP2 SWAP1 PUSH2 0x20F JUMP JUMPDEST PUSH1 0x40 MLOAD DUP1 SWAP2 SUB SWAP1 RETURN JUMPDEST CALLVALUE DUP1 ISZERO PUSH2 0x86 JUMPI PUSH1 0x0 DUP1 REVERT JUMPDEST POP PUSH2 0x8F PUSH2 0xF5 JUMP JUMPDEST PUSH1 0x40 MLOAD PUSH2 0x9C SWAP2 SWAP1 PUSH2 0x20F JUMP JUMPDEST PUSH1 0x40 MLOAD DUP1 SWAP2 SUB SWAP1 RETURN JUMPDEST CALLVALUE DUP1 ISZERO PUSH2 0xB1 JUMPI PUSH1 0x0 DUP1 REVERT JUMPDEST POP PUSH2 0xBA PUSH2 0xFD JUMP JUMPDEST STOP JUMPDEST CALLVALUE DUP1 ISZERO PUSH2 0xC8 JUMPI PUSH1 0x0 DUP1 REVERT JUMPDEST POP PUSH2 0xE3 PUSH1 0x4 DUP1 CALLDATASIZE SUB DUP2 ADD SWAP1 PUSH2 0xDE SWAP2 SWAP1 PUSH2 0x1D3 JUMP JUMPDEST PUSH2 0x153 JUMP JUMPDEST STOP JUMPDEST PUSH2 0xED PUSH2 0x1A4 JUMP JUMPDEST STOP JUMPDEST PUSH1 0x0 SLOAD DUP2 JUMP JUMPDEST PUSH1 0x0 SELFBALANCE SWAP1 POP SWAP1 JUMP JUMPDEST PUSH1 0x0 CALLER SWAP1 POP DUP1 PUSH20 0xFFFFFFFFFFFFFFFFFFFFFFFFFFFFFFFFFFFFFFFF AND PUSH2 0x8FC PUSH2 0x124 PUSH2 0xF5 JUMP JUMPDEST SWAP1 DUP2 ISZERO MUL SWAP1 PUSH1 0x40 MLOAD PUSH1 0x0 PUSH1 0x40 MLOAD DUP1 DUP4 SUB DUP2 DUP6 DUP9 DUP9 CALL SWAP4 POP POP POP POP ISZERO DUP1 ISZERO PUSH2 0x14F JUMPI RETURNDATASIZE PUSH1 0x0 DUP1 RETURNDATACOPY RETURNDATASIZE PUSH1 0x0 REVERT JUMPDEST POP POP JUMP JUMPDEST DUP1 PUSH20 0xFFFFFFFFFFFFFFFFFFFFFFFFFFFFFFFFFFFFFFFF AND PUSH2 0x8FC PUSH2 0x175 PUSH2 0xF5 JUMP JUMPDEST SWAP1 DUP2 ISZERO MUL SWAP1 PUSH1 0x40 MLOAD PUSH1 0x0 PUSH1 0x40 MLOAD DUP1 DUP4 SUB DUP2 DUP6 DUP9 DUP9 CALL SWAP4 POP POP POP POP ISZERO DUP1 ISZERO PUSH2 0x1A0 JUMPI RETURNDATASIZE PUSH1 0x0 DUP1 RETURNDATACOPY RETURNDATASIZE PUSH1 0x0 REVERT JUMPDEST POP POP JUMP JUMPDEST CALLVALUE PUSH1 0x0 DUP1 DUP3 DUP3 SLOAD PUSH2 0x1B5 SWAP2 SWAP1 PUSH2 0x22A JUMP JUMPDEST SWAP3 POP POP DUP2 SWAP1 SSTORE POP JUMP JUMPDEST PUSH1 0x0 DUP2 CALLDATALOAD SWAP1 POP PUSH2 0x1CD DUP2 PUSH2 0x2F0 JUMP JUMPDEST SWAP3 SWAP2 POP POP JUMP JUMPDEST PUSH1 0x0 PUSH1 0x20 DUP3 DUP5 SUB SLT ISZERO PUSH2 0x1E9 JUMPI PUSH2 0x1E8 PUSH2 0x2EB JUMP JUMPDEST JUMPDEST PUSH1 0x0 PUSH2 0x1F7 DUP5 DUP3 DUP6 ADD PUSH2 0x1BE JUMP JUMPDEST SWAP2 POP POP SWAP3 SWAP2 POP POP JUMP JUMPDEST PUSH2 0x209 DUP2 PUSH2 0x2B2 JUMP JUMPDEST DUP3 MSTORE POP POP JUMP JUMPDEST PUSH1 0x0 PUSH1 0x20 DUP3 ADD SWAP1 POP PUSH2 0x224 PUSH1 0x0 DUP4 ADD DUP5 PUSH2 0x200 JUMP JUMPDEST SWAP3 SWAP2 POP POP JUMP JUMPDEST PUSH1 0x0 PUSH2 0x235 DUP3 PUSH2 0x2B2 JUMP JUMPDEST SWAP2 POP PUSH2 0x240 DUP4 PUSH2 0x2B2 JUMP JUMPDEST SWAP3 POP DUP3 PUSH32 0xFFFFFFFFFFFFFFFFFFFFFFFFFFFFFFFFFFFFFFFFFFFFFFFFFFFFFFFFFFFFFFFF SUB DUP3 GT ISZERO PUSH2 0x275 JUMPI PUSH2 0x274 PUSH2 0x2BC JUMP JUMPDEST JUMPDEST DUP3 DUP3 ADD SWAP1 POP SWAP3 SWAP2 POP POP JUMP JUMPDEST PUSH1 0x0 PUSH2 0x28B DUP3 PUSH2 0x292 JUMP JUMPDEST SWAP1 POP SWAP2 SWAP1 POP JUMP JUMPDEST PUSH1 0x0 PUSH20 0xFFFFFFFFFFFFFFFFFFFFFFFFFFFFFFFFFFFFFFFF DUP3 AND SWAP1 POP SWAP2 SWAP1 POP JUMP JUMPDEST PUSH1 0x0 DUP2 SWAP1 POP SWAP2 SWAP1 POP JUMP JUMPDEST PUSH32 0x4E487B7100000000000000000000000000000000000000000000000000000000 PUSH1 0x0 MSTORE PUSH1 0x11 PUSH1 0x4 MSTORE PUSH1 0x24 PUSH1 0x0 REVERT JUMPDEST PUSH1 0x0 DUP1 REVERT JUMPDEST PUSH2 0x2F9 DUP2 PUSH2 0x280 JUMP JUMPDEST DUP2 EQ PUSH2 0x304 JUMPI PUSH1 0x0 DUP1 REVERT JUMPDEST POP JUMP INVALID LOG2 PUSH5 0x6970667358 0x22 SLT KECCAK256 0xCF PUSH26 0x2979C53EE56BB775224992F3E58D4E7617E14B1001376809196B 0xAE JUMP JUMPI 0xC3 PUSH5 0x736F6C6343 STOP ADDMOD SMOD STOP CALLER "
				},
				"gasEstimates": {
					"creation": {
						"codeDepositCost": "165800",
						"executionCost": "208",
						"totalCost": "166008"
					},
					"external": {
						"balanceReceived()": "2407",
						"deposit()": "infinite",
						"getContractBalance()": "339",
						"withdrawAll()": "infinite",
						"withdrawToAddress(address)": "infinite"
					}
				},
				"methodIdentifiers": {
					"balanceReceived()": "52a90c42",
					"deposit()": "d0e30db0",
					"getContractBalance()": "6f9fb98a",
					"withdrawAll()": "853828b6",
					"withdrawToAddress(address)": "a92bd72c"
				}
			},
			"storageLayout": {
				"storage": [
					{
						"astId": 3,
						"contract": "contracts/SendMoney.sol:SendMoney",
						"label": "balanceReceived",
						"offset": 0,
						"slot": "0",
						"type": "t_uint256"
					}
				],
				"types": {
					"t_uint256": {
						"encoding": "inplace",
						"label": "uint256",
						"numberOfBytes": "32"
					}
				}
			},
			"userdoc": {
				"kind": "user",
				"methods": {},
				"version": 1
			}
		}
	}
}