{
	"data": {
		"bytecode": {
			"linkReferences": {},
			"object": "608060405260fa600160006101000a81548160ff021916908360ff1602179055507ffffffffffffffffffffffffffffffffffffffffffffffffffffffffffffffff660025534801561005057600080fd5b506103cc806100606000396000f3fe608060405234801561001057600080fd5b506004361061007d5760003560e01c8063e2a4b2af1161005b578063e2a4b2af146100c8578063e492fd84146100e6578063e62e063514610102578063f102a71d1461010c5761007d565b806306540f7e146100825780632cb777a6146100a057806384ea3606146100be575b600080fd5b61008a610116565b6040516100979190610257565b60405180910390f35b6100a861011c565b6040516100b5919061023c565b60405180910390f35b6100c6610122565b005b6100d061015c565b6040516100dd9190610272565b60405180910390f35b61010060048036038101906100fb91906101e2565b61016f565b005b61010a610179565b005b6101146101b3565b005b60005481565b60025481565b6001600081819054906101000a900460ff168092919061014190610321565b91906101000a81548160ff021916908360ff16021790555050565b600160009054906101000a900460ff1681565b8060008190555050565b6001600081819054906101000a900460ff1680929190610198906102ae565b91906101000a81548160ff021916908360ff16021790555050565b600260008154809291906101c6906102d8565b9190505550565b6000813590506101dc8161037f565b92915050565b6000602082840312156101f8576101f761037a565b5b6000610206848285016101cd565b91505092915050565b6102188161028d565b82525050565b61022781610297565b82525050565b610236816102a1565b82525050565b6000602082019050610251600083018461020f565b92915050565b600060208201905061026c600083018461021e565b92915050565b6000602082019050610287600083018461022d565b92915050565b6000819050919050565b6000819050919050565b600060ff82169050919050565b60006102b9826102a1565b915060008214156102cd576102cc61034b565b5b600182039050919050565b60006102e38261028d565b91507f7fffffffffffffffffffffffffffffffffffffffffffffffffffffffffffffff8214156103165761031561034b565b5b600182019050919050565b600061032c826102a1565b915060ff8214156103405761033f61034b565b5b600182019050919050565b7f4e487b7100000000000000000000000000000000000000000000000000000000600052601160045260246000fd5b600080fd5b61038881610297565b811461039357600080fd5b5056fea2646970667358221220850dc81fa2730f96e6c5062f1c858d743b81c50262985330ed434e24f596b9ce64736f6c63430008070033",
			"opcodes": "PUSH1 0x80 PUSH1 0x40 MSTORE PUSH1 0xFA PUSH1 0x1 PUSH1 0x0 PUSH2 0x100 EXP DUP2 SLOAD DUP2 PUSH1 0xFF MUL NOT AND SWAP1 DUP4 PUSH1 0xFF AND MUL OR SWAP1 SSTORE POP PUSH32 0xFFFFFFFFFFFFFFFFFFFFFFFFFFFFFFFFFFFFFFFFFFFFFFFFFFFFFFFFFFFFFFF6 PUSH1 0x2 SSTORE CALLVALUE DUP1 ISZERO PUSH2 0x50 JUMPI PUSH1 0x0 DUP1 REVERT JUMPDEST POP PUSH2 0x3CC DUP1 PUSH2 0x60 PUSH1 0x0 CODECOPY PUSH1 0x0 RETURN INVALID PUSH1 0x80 PUSH1 0x40 MSTORE CALLVALUE DUP1 ISZERO PUSH2 0x10 JUMPI PUSH1 0x0 DUP1 REVERT JUMPDEST POP PUSH1 0x4 CALLDATASIZE LT PUSH2 0x7D JUMPI PUSH1 0x0 CALLDATALOAD PUSH1 0xE0 SHR DUP1 PUSH4 0xE2A4B2AF GT PUSH2 0x5B JUMPI DUP1 PUSH4 0xE2A4B2AF EQ PUSH2 0xC8 JUMPI DUP1 PUSH4 0xE492FD84 EQ PUSH2 0xE6 JUMPI DUP1 PUSH4 0xE62E0635 EQ PUSH2 0x102 JUMPI DUP1 PUSH4 0xF102A71D EQ PUSH2 0x10C JUMPI PUSH2 0x7D JUMP JUMPDEST DUP1 PUSH4 0x6540F7E EQ PUSH2 0x82 JUMPI DUP1 PUSH4 0x2CB777A6 EQ PUSH2 0xA0 JUMPI DUP1 PUSH4 0x84EA3606 EQ PUSH2 0xBE JUMPI JUMPDEST PUSH1 0x0 DUP1 REVERT JUMPDEST PUSH2 0x8A PUSH2 0x116 JUMP JUMPDEST PUSH1 0x40 MLOAD PUSH2 0x97 SWAP2 SWAP1 PUSH2 0x257 JUMP JUMPDEST PUSH1 0x40 MLOAD DUP1 SWAP2 SUB SWAP1 RETURN JUMPDEST PUSH2 0xA8 PUSH2 0x11C JUMP JUMPDEST PUSH1 0x40 MLOAD PUSH2 0xB5 SWAP2 SWAP1 PUSH2 0x23C JUMP JUMPDEST PUSH1 0x40 MLOAD DUP1 SWAP2 SUB SWAP1 RETURN JUMPDEST PUSH2 0xC6 PUSH2 0x122 JUMP JUMPDEST STOP JUMPDEST PUSH2 0xD0 PUSH2 0x15C JUMP JUMPDEST PUSH1 0x40 MLOAD PUSH2 0xDD SWAP2 SWAP1 PUSH2 0x272 JUMP JUMPDEST PUSH1 0x40 MLOAD DUP1 SWAP2 SUB SWAP1 RETURN JUMPDEST PUSH2 0x100 PUSH1 0x4 DUP1 CALLDATASIZE SUB DUP2 ADD SWAP1 PUSH2 0xFB SWAP2 SWAP1 PUSH2 0x1E2 JUMP JUMPDEST PUSH2 0x16F JUMP JUMPDEST STOP JUMPDEST PUSH2 0x10A PUSH2 0x179 JUMP JUMPDEST STOP JUMPDEST PUSH2 0x114 PUSH2 0x1B3 JUMP JUMPDEST STOP JUMPDEST PUSH1 0x0 SLOAD DUP2 JUMP JUMPDEST PUSH1 0x2 SLOAD DUP2 JUMP JUMPDEST PUSH1 0x1 PUSH1 0x0 DUP2 DUP2 SWAP1 SLOAD SWAP1 PUSH2 0x100 EXP SWAP1 DIV PUSH1 0xFF AND DUP1 SWAP3 SWAP2 SWAP1 PUSH2 0x141 SWAP1 PUSH2 0x321 JUMP JUMPDEST SWAP2 SWAP1 PUSH2 0x100 EXP DUP2 SLOAD DUP2 PUSH1 0xFF MUL NOT AND SWAP1 DUP4 PUSH1 0xFF AND MUL OR SWAP1 SSTORE POP POP JUMP JUMPDEST PUSH1 0x1 PUSH1 0x0 SWAP1 SLOAD SWAP1 PUSH2 0x100 EXP SWAP1 DIV PUSH1 0xFF AND DUP2 JUMP JUMPDEST DUP1 PUSH1 0x0 DUP2 SWAP1 SSTORE POP POP JUMP JUMPDEST PUSH1 0x1 PUSH1 0x0 DUP2 DUP2 SWAP1 SLOAD SWAP1 PUSH2 0x100 EXP SWAP1 DIV PUSH1 0xFF AND DUP1 SWAP3 SWAP2 SWAP1 PUSH2 0x198 SWAP1 PUSH2 0x2AE JUMP JUMPDEST SWAP2 SWAP1 PUSH2 0x100 EXP DUP2 SLOAD DUP2 PUSH1 0xFF MUL NOT AND SWAP1 DUP4 PUSH1 0xFF AND MUL OR SWAP1 SSTORE POP POP JUMP JUMPDEST PUSH1 0x2 PUSH1 0x0 DUP2 SLOAD DUP1 SWAP3 SWAP2 SWAP1 PUSH2 0x1C6 SWAP1 PUSH2 0x2D8 JUMP JUMPDEST SWAP2 SWAP1 POP SSTORE POP JUMP JUMPDEST PUSH1 0x0 DUP2 CALLDATALOAD SWAP1 POP PUSH2 0x1DC DUP2 PUSH2 0x37F JUMP JUMPDEST SWAP3 SWAP2 POP POP JUMP JUMPDEST PUSH1 0x0 PUSH1 0x20 DUP3 DUP5 SUB SLT ISZERO PUSH2 0x1F8 JUMPI PUSH2 0x1F7 PUSH2 0x37A JUMP JUMPDEST JUMPDEST PUSH1 0x0 PUSH2 0x206 DUP5 DUP3 DUP6 ADD PUSH2 0x1CD JUMP JUMPDEST SWAP2 POP POP SWAP3 SWAP2 POP POP JUMP JUMPDEST PUSH2 0x218 DUP2 PUSH2 0x28D JUMP JUMPDEST DUP3 MSTORE POP POP JUMP JUMPDEST PUSH2 0x227 DUP2 PUSH2 0x297 JUMP JUMPDEST DUP3 MSTORE POP POP JUMP JUMPDEST PUSH2 0x236 DUP2 PUSH2 0x2A1 JUMP JUMPDEST DUP3 MSTORE POP POP JUMP JUMPDEST PUSH1 0x0 PUSH1 0x20 DUP3 ADD SWAP1 POP PUSH2 0x251 PUSH1 0x0 DUP4 ADD DUP5 PUSH2 0x20F JUMP JUMPDEST SWAP3 SWAP2 POP POP JUMP JUMPDEST PUSH1 0x0 PUSH1 0x20 DUP3 ADD SWAP1 POP PUSH2 0x26C PUSH1 0x0 DUP4 ADD DUP5 PUSH2 0x21E JUMP JUMPDEST SWAP3 SWAP2 POP POP JUMP JUMPDEST PUSH1 0x0 PUSH1 0x20 DUP3 ADD SWAP1 POP PUSH2 0x287 PUSH1 0x0 DUP4 ADD DUP5 PUSH2 0x22D JUMP JUMPDEST SWAP3 SWAP2 POP POP JUMP JUMPDEST PUSH1 0x0 DUP2 SWAP1 POP SWAP2 SWAP1 POP JUMP JUMPDEST PUSH1 0x0 DUP2 SWAP1 POP SWAP2 SWAP1 POP JUMP JUMPDEST PUSH1 0x0 PUSH1 0xFF DUP3 AND SWAP1 POP SWAP2 SWAP1 POP JUMP JUMPDEST PUSH1 0x0 PUSH2 0x2B9 DUP3 PUSH2 0x2A1 JUMP JUMPDEST SWAP2 POP PUSH1 0x0 DUP3 EQ ISZERO PUSH2 0x2CD JUMPI PUSH2 0x2CC PUSH2 0x34B JUMP JUMPDEST JUMPDEST PUSH1 0x1 DUP3 SUB SWAP1 POP SWAP2 SWAP1 POP JUMP JUMPDEST PUSH1 0x0 PUSH2 0x2E3 DUP3 PUSH2 0x28D JUMP JUMPDEST SWAP2 POP PUSH32 0x7FFFFFFFFFFFFFFFFFFFFFFFFFFFFFFFFFFFFFFFFFFFFFFFFFFFFFFFFFFFFFFF DUP3 EQ ISZERO PUSH2 0x316 JUMPI PUSH2 0x315 PUSH2 0x34B JUMP JUMPDEST JUMPDEST PUSH1 0x1 DUP3 ADD SWAP1 POP SWAP2 SWAP1 POP JUMP JUMPDEST PUSH1 0x0 PUSH2 0x32C DUP3 PUSH2 0x2A1 JUMP JUMPDEST SWAP2 POP PUSH1 0xFF DUP3 EQ ISZERO PUSH2 0x340 JUMPI PUSH2 0x33F PUSH2 0x34B JUMP JUMPDEST JUMPDEST PUSH1 0x1 DUP3 ADD SWAP1 POP SWAP2 SWAP1 POP JUMP JUMPDEST PUSH32 0x4E487B7100000000000000000000000000000000000000000000000000000000 PUSH1 0x0 MSTORE PUSH1 0x11 PUSH1 0x4 MSTORE PUSH1 0x24 PUSH1 0x0 REVERT JUMPDEST PUSH1 0x0 DUP1 REVERT JUMPDEST PUSH2 0x388 DUP2 PUSH2 0x297 JUMP JUMPDEST DUP2 EQ PUSH2 0x393 JUMPI PUSH1 0x0 DUP1 REVERT JUMPDEST POP JUMP INVALID LOG2 PUSH5 0x6970667358 0x22 SLT KECCAK256 DUP6 0xD 0xC8 0x1F LOG2 PUSH20 0xF96E6C5062F1C858D743B81C50262985330ED43 0x4E 0x24 CREATE2 SWAP7 0xB9 0xCE PUSH5 0x736F6C6343 STOP ADDMOD SMOD STOP CALLER "
		},
		"gasEstimates": {
			"creation": {
				"codeDepositCost": "194400",
				"executionCost": "46611",
				"totalCost": "241011"
			},
			"external": {
				"decrementUint8()": "26746",
				"incrementInt()": "24570",
				"incrementUint8()": "26747",
				"myInt()": "2452",
				"myUint()": "2430",
				"myUint8()": "2471",
				"setMyUint(uint256)": "22542"
			}
		},
		"methodIdentifiers": {
			"decrementUint8()": "e62e0635",
			"incrementInt()": "f102a71d",
			"incrementUint8()": "84ea3606",
			"myInt()": "2cb777a6",
			"myUint()": "06540f7e",
			"myUint8()": "e2a4b2af",
			"setMyUint(uint256)": "e492fd84"
		}
	},
	"abi": [
		{
			"inputs": [],
			"name": "decrementUint8",
			"outputs": [],
			"stateMutability": "nonpayable",
			"type": "function"
		},
		{
			"inputs": [],
			"name": "incrementInt",
			"outputs": [],
			"stateMutability": "nonpayable",
			"type": "function"
		},
		{
			"inputs": [],
			"name": "incrementUint8",
			"outputs": [],
			"stateMutability": "nonpayable",
			"type": "function"
		},
		{
			"inputs": [],
			"name": "myInt",
			"outputs": [
				{
					"internalType": "int256",
					"name": "",
					"type": "int256"
				}
			],
			"stateMutability": "view",
			"type": "function"
		},
		{
			"inputs": [],
			"name": "myUint",
			"outputs": [
				{
					"internalType": "uint256",
					"name": "",
					"type": "uint256"
				}
			],
			"stateMutability": "view",
			"type": "function"
		},
		{
			"inputs": [],
			"name": "myUint8",
			"outputs": [
				{
					"internalType": "uint8",
					"name": "",
					"type": "uint8"
				}
			],
			"stateMutability": "view",
			"type": "function"
		},
		{
			"inputs": [
				{
					"internalType": "uint256",
					"name": "_myUint",
					"type": "uint256"
				}
			],
			"name": "setMyUint",
			"outputs": [],
			"stateMutability": "nonpayable",
			"type": "function"
		}
	]
}